{
  "contractName": "AccessManager",
  "abi": [
    {
      "inputs": [
        {
          "internalType": "address",
          "name": "initialAdmin",
          "type": "address"
        }
      ],
      "stateMutability": "nonpayable",
      "type": "constructor"
    },
    {
      "inputs": [
        {
          "internalType": "bytes32",
          "name": "operationId",
          "type": "bytes32"
        }
      ],
      "name": "AccessManagerAlreadyScheduled",
      "type": "error"
    },
    {
      "inputs": [],
      "name": "AccessManagerBadConfirmation",
      "type": "error"
    },
    {
      "inputs": [
        {
          "internalType": "bytes32",
          "name": "operationId",
          "type": "bytes32"
        }
      ],
      "name": "AccessManagerExpired",
      "type": "error"
    },
    {
      "inputs": [
        {
          "internalType": "address",
          "name": "initialAdmin",
          "type": "address"
        }
      ],
      "name": "AccessManagerInvalidInitialAdmin",
      "type": "error"
    },
    {
      "inputs": [
        {
          "internalType": "address",
          "name": "account",
          "type": "address"
        }
      ],
      "name": "AccessManagerLockedAccount",
      "type": "error"
    },
    {
      "inputs": [
        {
          "internalType": "uint64",
          "name": "roleId",
          "type": "uint64"
        }
      ],
      "name": "AccessManagerLockedRole",
      "type": "error"
    },
    {
      "inputs": [
        {
          "internalType": "bytes32",
          "name": "operationId",
          "type": "bytes32"
        }
      ],
      "name": "AccessManagerNotReady",
      "type": "error"
    },
    {
      "inputs": [
        {
          "internalType": "bytes32",
          "name": "operationId",
          "type": "bytes32"
        }
      ],
      "name": "AccessManagerNotScheduled",
      "type": "error"
    },
    {
      "inputs": [
        {
          "internalType": "address",
          "name": "msgsender",
          "type": "address"
        },
        {
          "internalType": "uint64",
          "name": "roleId",
          "type": "uint64"
        }
      ],
      "name": "AccessManagerUnauthorizedAccount",
      "type": "error"
    },
    {
      "inputs": [
        {
          "internalType": "address",
          "name": "caller",
          "type": "address"
        },
        {
          "internalType": "address",
          "name": "target",
          "type": "address"
        },
        {
          "internalType": "bytes4",
          "name": "selector",
          "type": "bytes4"
        }
      ],
      "name": "AccessManagerUnauthorizedCall",
      "type": "error"
    },
    {
      "inputs": [
        {
          "internalType": "address",
          "name": "msgsender",
          "type": "address"
        },
        {
          "internalType": "address",
          "name": "caller",
          "type": "address"
        },
        {
          "internalType": "address",
          "name": "target",
          "type": "address"
        },
        {
          "internalType": "bytes4",
          "name": "selector",
          "type": "bytes4"
        }
      ],
      "name": "AccessManagerUnauthorizedCancel",
      "type": "error"
    },
    {
      "inputs": [
        {
          "internalType": "address",
          "name": "target",
          "type": "address"
        }
      ],
      "name": "AccessManagerUnauthorizedConsume",
      "type": "error"
    },
    {
      "inputs": [
        {
          "internalType": "address",
          "name": "target",
          "type": "address"
        }
      ],
      "name": "AddressEmptyCode",
      "type": "error"
    },
    {
      "inputs": [
        {
          "internalType": "address",
          "name": "account",
          "type": "address"
        }
      ],
      "name": "AddressInsufficientBalance",
      "type": "error"
    },
    {
      "inputs": [],
      "name": "FailedInnerCall",
      "type": "error"
    },
    {
      "inputs": [
        {
          "internalType": "uint8",
          "name": "bits",
          "type": "uint8"
        },
        {
          "internalType": "uint256",
          "name": "value",
          "type": "uint256"
        }
      ],
      "name": "SafeCastOverflowedUintDowncast",
      "type": "error"
    },
    {
      "anonymous": false,
      "inputs": [
        {
          "indexed": true,
          "internalType": "bytes32",
          "name": "operationId",
          "type": "bytes32"
        },
        {
          "indexed": true,
          "internalType": "uint32",
          "name": "nonce",
          "type": "uint32"
        }
      ],
      "name": "OperationCanceled",
      "type": "event"
    },
    {
      "anonymous": false,
      "inputs": [
        {
          "indexed": true,
          "internalType": "bytes32",
          "name": "operationId",
          "type": "bytes32"
        },
        {
          "indexed": true,
          "internalType": "uint32",
          "name": "nonce",
          "type": "uint32"
        }
      ],
      "name": "OperationExecuted",
      "type": "event"
    },
    {
      "anonymous": false,
      "inputs": [
        {
          "indexed": true,
          "internalType": "bytes32",
          "name": "operationId",
          "type": "bytes32"
        },
        {
          "indexed": true,
          "internalType": "uint32",
          "name": "nonce",
          "type": "uint32"
        },
        {
          "indexed": false,
          "internalType": "uint48",
          "name": "schedule",
          "type": "uint48"
        },
        {
          "indexed": false,
          "internalType": "address",
          "name": "caller",
          "type": "address"
        },
        {
          "indexed": false,
          "internalType": "address",
          "name": "target",
          "type": "address"
        },
        {
          "indexed": false,
          "internalType": "bytes",
          "name": "data",
          "type": "bytes"
        }
      ],
      "name": "OperationScheduled",
      "type": "event"
    },
    {
      "anonymous": false,
      "inputs": [
        {
          "indexed": true,
          "internalType": "uint64",
          "name": "roleId",
          "type": "uint64"
        },
        {
          "indexed": true,
          "internalType": "uint64",
          "name": "admin",
          "type": "uint64"
        }
      ],
      "name": "RoleAdminChanged",
      "type": "event"
    },
    {
      "anonymous": false,
      "inputs": [
        {
          "indexed": true,
          "internalType": "uint64",
          "name": "roleId",
          "type": "uint64"
        },
        {
          "indexed": false,
          "internalType": "uint32",
          "name": "delay",
          "type": "uint32"
        },
        {
          "indexed": false,
          "internalType": "uint48",
          "name": "since",
          "type": "uint48"
        }
      ],
      "name": "RoleGrantDelayChanged",
      "type": "event"
    },
    {
      "anonymous": false,
      "inputs": [
        {
          "indexed": true,
          "internalType": "uint64",
          "name": "roleId",
          "type": "uint64"
        },
        {
          "indexed": true,
          "internalType": "address",
          "name": "account",
          "type": "address"
        },
        {
          "indexed": false,
          "internalType": "uint32",
          "name": "delay",
          "type": "uint32"
        },
        {
          "indexed": false,
          "internalType": "uint48",
          "name": "since",
          "type": "uint48"
        },
        {
          "indexed": false,
          "internalType": "bool",
          "name": "newMember",
          "type": "bool"
        }
      ],
      "name": "RoleGranted",
      "type": "event"
    },
    {
      "anonymous": false,
      "inputs": [
        {
          "indexed": true,
          "internalType": "uint64",
          "name": "roleId",
          "type": "uint64"
        },
        {
          "indexed": true,
          "internalType": "uint64",
          "name": "guardian",
          "type": "uint64"
        }
      ],
      "name": "RoleGuardianChanged",
      "type": "event"
    },
    {
      "anonymous": false,
      "inputs": [
        {
          "indexed": true,
          "internalType": "uint64",
          "name": "roleId",
          "type": "uint64"
        },
        {
          "indexed": false,
          "internalType": "string",
          "name": "label",
          "type": "string"
        }
      ],
      "name": "RoleLabel",
      "type": "event"
    },
    {
      "anonymous": false,
      "inputs": [
        {
          "indexed": true,
          "internalType": "uint64",
          "name": "roleId",
          "type": "uint64"
        },
        {
          "indexed": true,
          "internalType": "address",
          "name": "account",
          "type": "address"
        }
      ],
      "name": "RoleRevoked",
      "type": "event"
    },
    {
      "anonymous": false,
      "inputs": [
        {
          "indexed": true,
          "internalType": "address",
          "name": "target",
          "type": "address"
        },
        {
          "indexed": false,
          "internalType": "uint32",
          "name": "delay",
          "type": "uint32"
        },
        {
          "indexed": false,
          "internalType": "uint48",
          "name": "since",
          "type": "uint48"
        }
      ],
      "name": "TargetAdminDelayUpdated",
      "type": "event"
    },
    {
      "anonymous": false,
      "inputs": [
        {
          "indexed": true,
          "internalType": "address",
          "name": "target",
          "type": "address"
        },
        {
          "indexed": false,
          "internalType": "bool",
          "name": "closed",
          "type": "bool"
        }
      ],
      "name": "TargetClosed",
      "type": "event"
    },
    {
      "anonymous": false,
      "inputs": [
        {
          "indexed": true,
          "internalType": "address",
          "name": "target",
          "type": "address"
        },
        {
          "indexed": false,
          "internalType": "bytes4",
          "name": "selector",
          "type": "bytes4"
        },
        {
          "indexed": true,
          "internalType": "uint64",
          "name": "roleId",
          "type": "uint64"
        }
      ],
      "name": "TargetFunctionRoleUpdated",
      "type": "event"
    },
    {
      "inputs": [],
      "name": "ADMIN_ROLE",
      "outputs": [
        {
          "internalType": "uint64",
          "name": "",
          "type": "uint64"
        }
      ],
      "stateMutability": "view",
      "type": "function"
    },
    {
      "inputs": [],
      "name": "PUBLIC_ROLE",
      "outputs": [
        {
          "internalType": "uint64",
          "name": "",
          "type": "uint64"
        }
      ],
      "stateMutability": "view",
      "type": "function"
    },
    {
      "inputs": [
        {
          "internalType": "bytes[]",
          "name": "data",
          "type": "bytes[]"
        }
      ],
      "name": "multicall",
      "outputs": [
        {
          "internalType": "bytes[]",
          "name": "results",
          "type": "bytes[]"
        }
      ],
      "stateMutability": "nonpayable",
      "type": "function"
    },
    {
      "inputs": [
        {
          "internalType": "address",
          "name": "caller",
          "type": "address"
        },
        {
          "internalType": "address",
          "name": "target",
          "type": "address"
        },
        {
          "internalType": "bytes4",
          "name": "selector",
          "type": "bytes4"
        }
      ],
      "name": "canCall",
      "outputs": [
        {
          "internalType": "bool",
          "name": "immediate",
          "type": "bool"
        },
        {
          "internalType": "uint32",
          "name": "delay",
          "type": "uint32"
        }
      ],
      "stateMutability": "view",
      "type": "function"
    },
    {
      "inputs": [],
      "name": "expiration",
      "outputs": [
        {
          "internalType": "uint32",
          "name": "",
          "type": "uint32"
        }
      ],
      "stateMutability": "view",
      "type": "function"
    },
    {
      "inputs": [],
      "name": "minSetback",
      "outputs": [
        {
          "internalType": "uint32",
          "name": "",
          "type": "uint32"
        }
      ],
      "stateMutability": "view",
      "type": "function"
    },
    {
      "inputs": [
        {
          "internalType": "address",
          "name": "target",
          "type": "address"
        }
      ],
      "name": "isTargetClosed",
      "outputs": [
        {
          "internalType": "bool",
          "name": "",
          "type": "bool"
        }
      ],
      "stateMutability": "view",
      "type": "function"
    },
    {
      "inputs": [
        {
          "internalType": "address",
          "name": "target",
          "type": "address"
        },
        {
          "internalType": "bytes4",
          "name": "selector",
          "type": "bytes4"
        }
      ],
      "name": "getTargetFunctionRole",
      "outputs": [
        {
          "internalType": "uint64",
          "name": "",
          "type": "uint64"
        }
      ],
      "stateMutability": "view",
      "type": "function"
    },
    {
      "inputs": [
        {
          "internalType": "address",
          "name": "target",
          "type": "address"
        }
      ],
      "name": "getTargetAdminDelay",
      "outputs": [
        {
          "internalType": "uint32",
          "name": "",
          "type": "uint32"
        }
      ],
      "stateMutability": "view",
      "type": "function"
    },
    {
      "inputs": [
        {
          "internalType": "uint64",
          "name": "roleId",
          "type": "uint64"
        }
      ],
      "name": "getRoleAdmin",
      "outputs": [
        {
          "internalType": "uint64",
          "name": "",
          "type": "uint64"
        }
      ],
      "stateMutability": "view",
      "type": "function"
    },
    {
      "inputs": [
        {
          "internalType": "uint64",
          "name": "roleId",
          "type": "uint64"
        }
      ],
      "name": "getRoleGuardian",
      "outputs": [
        {
          "internalType": "uint64",
          "name": "",
          "type": "uint64"
        }
      ],
      "stateMutability": "view",
      "type": "function"
    },
    {
      "inputs": [
        {
          "internalType": "uint64",
          "name": "roleId",
          "type": "uint64"
        }
      ],
      "name": "getRoleGrantDelay",
      "outputs": [
        {
          "internalType": "uint32",
          "name": "",
          "type": "uint32"
        }
      ],
      "stateMutability": "view",
      "type": "function"
    },
    {
      "inputs": [
        {
          "internalType": "uint64",
          "name": "roleId",
          "type": "uint64"
        },
        {
          "internalType": "address",
          "name": "account",
          "type": "address"
        }
      ],
      "name": "getAccess",
      "outputs": [
        {
          "internalType": "uint48",
          "name": "since",
          "type": "uint48"
        },
        {
          "internalType": "uint32",
          "name": "currentDelay",
          "type": "uint32"
        },
        {
          "internalType": "uint32",
          "name": "pendingDelay",
          "type": "uint32"
        },
        {
          "internalType": "uint48",
          "name": "effect",
          "type": "uint48"
        }
      ],
      "stateMutability": "view",
      "type": "function"
    },
    {
      "inputs": [
        {
          "internalType": "uint64",
          "name": "roleId",
          "type": "uint64"
        },
        {
          "internalType": "address",
          "name": "account",
          "type": "address"
        }
      ],
      "name": "hasRole",
      "outputs": [
        {
          "internalType": "bool",
          "name": "isMember",
          "type": "bool"
        },
        {
          "internalType": "uint32",
          "name": "executionDelay",
          "type": "uint32"
        }
      ],
      "stateMutability": "view",
      "type": "function"
    },
    {
      "inputs": [
        {
          "internalType": "uint64",
          "name": "roleId",
          "type": "uint64"
        },
        {
          "internalType": "string",
          "name": "label",
          "type": "string"
        }
      ],
      "name": "labelRole",
      "outputs": [],
      "stateMutability": "nonpayable",
      "type": "function"
    },
    {
      "inputs": [
        {
          "internalType": "uint64",
          "name": "roleId",
          "type": "uint64"
        },
        {
          "internalType": "address",
          "name": "account",
          "type": "address"
        },
        {
          "internalType": "uint32",
          "name": "executionDelay",
          "type": "uint32"
        }
      ],
      "name": "grantRole",
      "outputs": [],
      "stateMutability": "nonpayable",
      "type": "function"
    },
    {
      "inputs": [
        {
          "internalType": "uint64",
          "name": "roleId",
          "type": "uint64"
        },
        {
          "internalType": "address",
          "name": "account",
          "type": "address"
        }
      ],
      "name": "revokeRole",
      "outputs": [],
      "stateMutability": "nonpayable",
      "type": "function"
    },
    {
      "inputs": [
        {
          "internalType": "uint64",
          "name": "roleId",
          "type": "uint64"
        },
        {
          "internalType": "address",
          "name": "callerConfirmation",
          "type": "address"
        }
      ],
      "name": "renounceRole",
      "outputs": [],
      "stateMutability": "nonpayable",
      "type": "function"
    },
    {
      "inputs": [
        {
          "internalType": "uint64",
          "name": "roleId",
          "type": "uint64"
        },
        {
          "internalType": "uint64",
          "name": "admin",
          "type": "uint64"
        }
      ],
      "name": "setRoleAdmin",
      "outputs": [],
      "stateMutability": "nonpayable",
      "type": "function"
    },
    {
      "inputs": [
        {
          "internalType": "uint64",
          "name": "roleId",
          "type": "uint64"
        },
        {
          "internalType": "uint64",
          "name": "guardian",
          "type": "uint64"
        }
      ],
      "name": "setRoleGuardian",
      "outputs": [],
      "stateMutability": "nonpayable",
      "type": "function"
    },
    {
      "inputs": [
        {
          "internalType": "uint64",
          "name": "roleId",
          "type": "uint64"
        },
        {
          "internalType": "uint32",
          "name": "newDelay",
          "type": "uint32"
        }
      ],
      "name": "setGrantDelay",
      "outputs": [],
      "stateMutability": "nonpayable",
      "type": "function"
    },
    {
      "inputs": [
        {
          "internalType": "address",
          "name": "target",
          "type": "address"
        },
        {
          "internalType": "bytes4[]",
          "name": "selectors",
          "type": "bytes4[]"
        },
        {
          "internalType": "uint64",
          "name": "roleId",
          "type": "uint64"
        }
      ],
      "name": "setTargetFunctionRole",
      "outputs": [],
      "stateMutability": "nonpayable",
      "type": "function"
    },
    {
      "inputs": [
        {
          "internalType": "address",
          "name": "target",
          "type": "address"
        },
        {
          "internalType": "uint32",
          "name": "newDelay",
          "type": "uint32"
        }
      ],
      "name": "setTargetAdminDelay",
      "outputs": [],
      "stateMutability": "nonpayable",
      "type": "function"
    },
    {
      "inputs": [
        {
          "internalType": "address",
          "name": "target",
          "type": "address"
        },
        {
          "internalType": "bool",
          "name": "closed",
          "type": "bool"
        }
      ],
      "name": "setTargetClosed",
      "outputs": [],
      "stateMutability": "nonpayable",
      "type": "function"
    },
    {
      "inputs": [
        {
          "internalType": "bytes32",
          "name": "id",
          "type": "bytes32"
        }
      ],
      "name": "getSchedule",
      "outputs": [
        {
          "internalType": "uint48",
          "name": "",
          "type": "uint48"
        }
      ],
      "stateMutability": "view",
      "type": "function"
    },
    {
      "inputs": [
        {
          "internalType": "bytes32",
          "name": "id",
          "type": "bytes32"
        }
      ],
      "name": "getNonce",
      "outputs": [
        {
          "internalType": "uint32",
          "name": "",
          "type": "uint32"
        }
      ],
      "stateMutability": "view",
      "type": "function"
    },
    {
      "inputs": [
        {
          "internalType": "address",
          "name": "target",
          "type": "address"
        },
        {
          "internalType": "bytes",
          "name": "data",
          "type": "bytes"
        },
        {
          "internalType": "uint48",
          "name": "when",
          "type": "uint48"
        }
      ],
      "name": "schedule",
      "outputs": [
        {
          "internalType": "bytes32",
          "name": "operationId",
          "type": "bytes32"
        },
        {
          "internalType": "uint32",
          "name": "nonce",
          "type": "uint32"
        }
      ],
      "stateMutability": "nonpayable",
      "type": "function"
    },
    {
      "inputs": [
        {
          "internalType": "address",
          "name": "target",
          "type": "address"
        },
        {
          "internalType": "bytes",
          "name": "data",
          "type": "bytes"
        }
      ],
      "name": "execute",
      "outputs": [
        {
          "internalType": "uint32",
          "name": "",
          "type": "uint32"
        }
      ],
      "stateMutability": "payable",
      "type": "function"
    },
    {
      "inputs": [
        {
          "internalType": "address",
          "name": "caller",
          "type": "address"
        },
        {
          "internalType": "address",
          "name": "target",
          "type": "address"
        },
        {
          "internalType": "bytes",
          "name": "data",
          "type": "bytes"
        }
      ],
      "name": "cancel",
      "outputs": [
        {
          "internalType": "uint32",
          "name": "",
          "type": "uint32"
        }
      ],
      "stateMutability": "nonpayable",
      "type": "function"
    },
    {
      "inputs": [
        {
          "internalType": "address",
          "name": "caller",
          "type": "address"
        },
        {
          "internalType": "bytes",
          "name": "data",
          "type": "bytes"
        }
      ],
      "name": "consumeScheduledOp",
      "outputs": [],
      "stateMutability": "nonpayable",
      "type": "function"
    },
    {
      "inputs": [
        {
          "internalType": "address",
          "name": "caller",
          "type": "address"
        },
        {
          "internalType": "address",
          "name": "target",
          "type": "address"
        },
        {
          "internalType": "bytes",
          "name": "data",
          "type": "bytes"
        }
      ],
      "name": "hashOperation",
      "outputs": [
        {
          "internalType": "bytes32",
          "name": "",
          "type": "bytes32"
        }
      ],
      "stateMutability": "view",
      "type": "function"
    },
    {
      "inputs": [
        {
          "internalType": "address",
          "name": "target",
          "type": "address"
        },
        {
          "internalType": "address",
          "name": "newAuthority",
          "type": "address"
        }
      ],
      "name": "updateAuthority",
      "outputs": [],
      "stateMutability": "nonpayable",
      "type": "function"
    }
  ],
  "bytecode": "0x608060405234801562000010575f80fd5b5060405162004d0c38038062004d0c833981810160405281019062000036919062000795565b5f73ffffffffffffffffffffffffffffffffffffffff168173ffffffffffffffffffffffffffffffffffffffff1603620000a9575f6040517f0813ada2000000000000000000000000000000000000000000000000000000008152600401620000a09190620007d6565b60405180910390fd5b620000bd5f825f80620000c560201b60201c565b505062000a0f565b5f67ffffffffffffffff80168567ffffffffffffffff16036200012157846040517f1871a90c00000000000000000000000000000000000000000000000000000000815260040162000118919062000815565b60405180910390fd5b5f8060015f8867ffffffffffffffff1667ffffffffffffffff1681526020019081526020015f205f015f8773ffffffffffffffffffffffffffffffffffffffff1673ffffffffffffffffffffffffffffffffffffffff1681526020019081526020015f205f015f9054906101000a900465ffffffffffff1665ffffffffffff161490505f8115620002e1578463ffffffff16620001c36200049160201b60201c565b620001cf91906200086e565b905060405180604001604052808265ffffffffffff168152602001620002018663ffffffff16620004a860201b60201c565b6dffffffffffffffffffffffffffff1681525060015f8967ffffffffffffffff1667ffffffffffffffff1681526020019081526020015f205f015f8873ffffffffffffffffffffffffffffffffffffffff1673ffffffffffffffffffffffffffffffffffffffff1681526020019081526020015f205f820151815f015f6101000a81548165ffffffffffff021916908365ffffffffffff1602179055506020820151815f0160066101000a8154816dffffffffffffffffffffffffffff02191690836dffffffffffffffffffffffffffff16021790555090505062000425565b62000386845f60015f8b67ffffffffffffffff1667ffffffffffffffff1681526020019081526020015f205f015f8a73ffffffffffffffffffffffffffffffffffffffff1673ffffffffffffffffffffffffffffffffffffffff1681526020019081526020015f205f0160069054906101000a90046dffffffffffffffffffffffffffff166dffffffffffffffffffffffffffff16620004b760201b9092919060201c565b60015f8a67ffffffffffffffff1667ffffffffffffffff1681526020019081526020015f205f015f8973ffffffffffffffffffffffffffffffffffffffff1673ffffffffffffffffffffffffffffffffffffffff1681526020019081526020015f205f0160068294508391906101000a8154816dffffffffffffffffffffffffffff02191690836dffffffffffffffffffffffffffff16021790555050505b8573ffffffffffffffffffffffffffffffffffffffff168767ffffffffffffffff167ff98448b987f1428e0e230e1f3c6e2ce15b5693eaf31827fbd0b1ec4b424ae7cf8684866040516200047c93929190620008fb565b60405180910390a38192505050949350505050565b5f620004a3426200056b60201b60201c565b905090565b5f8163ffffffff169050919050565b5f805f620004db866dffffffffffffffffffffffffffff16620005c760201b60201c565b90505f620005258563ffffffff168763ffffffff168463ffffffff161162000504575f62000513565b878462000512919062000936565b5b63ffffffff16620005f760201b60201c565b90508063ffffffff166200053e6200049160201b60201c565b6200054a91906200086e565b92506200055f8287856200061160201b60201c565b93505050935093915050565b5f65ffffffffffff8016821115620005bf576030826040517f6dfcc650000000000000000000000000000000000000000000000000000000008152600401620005b6929190620009e4565b60405180910390fd5b819050919050565b5f80620005ea836dffffffffffffffffffffffffffff166200065c60201b60201c565b5050905080915050919050565b5f81831162000607578162000609565b825b905092915050565b5f8263ffffffff1660208563ffffffff166dffffffffffffffffffffffffffff16901b60408465ffffffffffff166dffffffffffffffffffffffffffff16901b171790509392505050565b5f805f6200068084620006746200049160201b60201c565b6200068d60201b60201c565b9250925092509193909250565b5f805f805f80620006b4886dffffffffffffffffffffffffffff16620006f060201b60201c565b9250925092508665ffffffffffff168165ffffffffffff161115620006dc57828282620006e0565b815f805b9550955095505050509250925092565b5f805f808490508092506020816dffffffffffffffffffffffffffff16901c93506040816dffffffffffffffffffffffffffff16901c9150509193909250565b5f80fd5b5f73ffffffffffffffffffffffffffffffffffffffff82169050919050565b5f6200075f8262000734565b9050919050565b620007718162000753565b81146200077c575f80fd5b50565b5f815190506200078f8162000766565b92915050565b5f60208284031215620007ad57620007ac62000730565b5b5f620007bc848285016200077f565b91505092915050565b620007d08162000753565b82525050565b5f602082019050620007eb5f830184620007c5565b92915050565b5f67ffffffffffffffff82169050919050565b6200080f81620007f1565b82525050565b5f6020820190506200082a5f83018462000804565b92915050565b5f65ffffffffffff82169050919050565b7f4e487b71000000000000000000000000000000000000000000000000000000005f52601160045260245ffd5b5f6200087a8262000830565b9150620008878362000830565b9250828201905065ffffffffffff811115620008a857620008a762000841565b5b92915050565b5f63ffffffff82169050919050565b620008c881620008ae565b82525050565b620008d98162000830565b82525050565b5f8115159050919050565b620008f581620008df565b82525050565b5f606082019050620009105f830186620008bd565b6200091f6020830185620008ce565b6200092e6040830184620008ea565b949350505050565b5f6200094282620008ae565b91506200094f83620008ae565b9250828203905063ffffffff8111156200096e576200096d62000841565b5b92915050565b5f819050919050565b5f60ff82169050919050565b5f819050919050565b5f620009b2620009ac620009a68462000974565b62000989565b6200097d565b9050919050565b620009c48162000992565b82525050565b5f819050919050565b620009de81620009ca565b82525050565b5f604082019050620009f95f830185620009b9565b62000a086020830184620009d3565b9392505050565b6142ef8062000a1d5f395ff3fe6080604052600436106101e2575f3560e01c80636d5115bd11610101578063b700961311610094578063d22b598911610063578063d22b59891461075f578063d6bb62c614610787578063f801a698146107c3578063fe0776f514610800576101e2565b8063b700961314610693578063b7d2b162146106d0578063cc1b6c81146106f8578063d1f856ee14610722576101e2565b8063a166aa89116100d0578063a166aa89146105b7578063a64d95ce146105f3578063abd9bd2a1461061b578063ac9650d814610657576101e2565b80636d5115bd1461050157806375b238fc1461053d578063853551b81461056757806394c7d7ee1461058f576101e2565b806330cae187116101795780634665096d116101485780634665096d146104375780634c1da1e214610461578063529629521461049d578063530dd456146104c5576101e2565b806330cae1871461036d5780633adc277a146103955780633ca7c02a146103d15780634136a33c146103fb576101e2565b806318ff183c116101b557806318ff183c146102ae5780631cff79cd146102d657806325c471a0146103065780633078f1141461032e576101e2565b806308d6122d146101e65780630b0a93ba1461020e57806312be87271461024a578063167bd39514610286575b5f80fd5b3480156101f1575f80fd5b5061020c600480360381019061020791906131ed565b610828565b005b348015610219575f80fd5b50610234600480360381019061022f919061325e565b610887565b6040516102419190613298565b60405180910390f35b348015610255575f80fd5b50610270600480360381019061026b919061325e565b6108cc565b60405161027d91906132cf565b60405180910390f35b348015610291575f80fd5b506102ac60048036038101906102a7919061331d565b61092f565b005b3480156102b9575f80fd5b506102d460048036038101906102cf919061335b565b610945565b005b6102f060048036038101906102eb91906133ee565b6109b7565b6040516102fd91906132cf565b60405180910390f35b348015610311575f80fd5b5061032c60048036038101906103279190613475565b610b02565b005b348015610339575f80fd5b50610354600480360381019061034f91906134c5565b610b24565b6040516103649493929190613523565b60405180910390f35b348015610378575f80fd5b50610393600480360381019061038e9190613566565b610bf0565b005b3480156103a0575f80fd5b506103bb60048036038101906103b691906135d7565b610c06565b6040516103c89190613602565b60405180910390f35b3480156103dc575f80fd5b506103e5610c4c565b6040516103f29190613298565b60405180910390f35b348015610406575f80fd5b50610421600480360381019061041c91906135d7565b610c58565b60405161042e91906132cf565b60405180910390f35b348015610442575f80fd5b5061044b610c84565b60405161045891906132cf565b60405180910390f35b34801561046c575f80fd5b506104876004803603810190610482919061361b565b610c8e565b60405161049491906132cf565b60405180910390f35b3480156104a8575f80fd5b506104c360048036038101906104be9190613566565b610d07565b005b3480156104d0575f80fd5b506104eb60048036038101906104e6919061325e565b610d1d565b6040516104f89190613298565b60405180910390f35b34801561050c575f80fd5b506105276004803603810190610522919061369b565b610d61565b6040516105349190613298565b60405180910390f35b348015610548575f80fd5b50610551610e09565b60405161055e9190613298565b60405180910390f35b348015610572575f80fd5b5061058d6004803603810190610588919061372e565b610e0d565b005b34801561059a575f80fd5b506105b560048036038101906105b091906133ee565b610ed5565b005b3480156105c2575f80fd5b506105dd60048036038101906105d8919061361b565b610ff0565b6040516105ea919061379a565b60405180910390f35b3480156105fe575f80fd5b50610619600480360381019061061491906137b3565b611045565b005b348015610626575f80fd5b50610641600480360381019061063c91906137f1565b61105b565b60405161064e9190613871565b60405180910390f35b348015610662575f80fd5b5061067d600480360381019061067891906138df565b611093565b60405161068a9190613a6f565b60405180910390f35b34801561069e575f80fd5b506106b960048036038101906106b49190613a8f565b61119d565b6040516106c7929190613adf565b60405180910390f35b3480156106db575f80fd5b506106f660048036038101906106f191906134c5565b611243565b005b348015610703575f80fd5b5061070c61125a565b60405161071991906132cf565b60405180910390f35b34801561072d575f80fd5b50610748600480360381019061074391906134c5565b611264565b604051610756929190613adf565b60405180910390f35b34801561076a575f80fd5b5061078560048036038101906107809190613b06565b6112dd565b005b348015610792575f80fd5b506107ad60048036038101906107a891906137f1565b6112f3565b6040516107ba91906132cf565b60405180910390f35b3480156107ce575f80fd5b506107e960048036038101906107e49190613b6e565b6114d3565b6040516107f7929190613bdf565b60405180910390f35b34801561080b575f80fd5b50610826600480360381019061082191906134c5565b6116a7565b005b610830611722565b5f5b838390508110156108805761086f8585858481811061085457610853613c06565b5b90506020020160208101906108699190613c33565b846117cb565b8061087990613c94565b9050610832565b5050505050565b5f60015f8367ffffffffffffffff1667ffffffffffffffff1681526020019081526020015f2060010160089054906101000a900467ffffffffffffffff169050919050565b5f61092860015f8467ffffffffffffffff1667ffffffffffffffff1681526020019081526020015f2060010160109054906101000a90046dffffffffffffffffffffffffffff166dffffffffffffffffffffffffffff166118da565b9050919050565b610937611722565b6109418282611902565b5050565b61094d611722565b8173ffffffffffffffffffffffffffffffffffffffff16637a9e5e4b826040518263ffffffff1660e01b81526004016109869190613cea565b5f604051808303815f87803b15801561099d575f80fd5b505af11580156109af573d5f803e3d5ffd5b505050505050565b5f806109c1611a1b565b90505f806109d183888888611a22565b91509150811580156109e857505f8163ffffffff16145b15610a375782876109f98888611aa0565b6040517f81c6f24b000000000000000000000000000000000000000000000000000000008152600401610a2e93929190613d12565b60405180910390fd5b5f610a448489898961105b565b90505f808363ffffffff16141580610a6c57505f610a6183610c06565b65ffffffffffff1614155b15610a7d57610a7a82611ac7565b90505b5f6003549050610a968a610a918b8b611aa0565b611c6f565b600381905550610aea8a8a8a8080601f0160208091040260200160405190810160405280939291908181526020018383808284375f81840152601f19601f8201169050808301925050505050505034611ca1565b50806003819055508196505050505050509392505050565b610b0a611722565b610b1e8383610b18866108cc565b84611d6a565b50505050565b5f805f805f60015f8867ffffffffffffffff1667ffffffffffffffff1681526020019081526020015f205f015f8773ffffffffffffffffffffffffffffffffffffffff1673ffffffffffffffffffffffffffffffffffffffff1681526020019081526020015f209050805f015f9054906101000a900465ffffffffffff169450610bda815f0160069054906101000a90046dffffffffffffffffffffffffffff166dffffffffffffffffffffffffffff1661211b565b8094508195508296505050505092959194509250565b610bf8611722565b610c02828261213c565b5050565b5f8060025f8481526020019081526020015f205f015f9054906101000a900465ffffffffffff169050610c3881612247565b610c425780610c44565b5f5b915050919050565b67ffffffffffffffff81565b5f60025f8381526020019081526020015f205f0160069054906101000a900463ffffffff169050919050565b5f62093a80905090565b5f610d005f808473ffffffffffffffffffffffffffffffffffffffff1673ffffffffffffffffffffffffffffffffffffffff1681526020019081526020015f206001015f9054906101000a90046dffffffffffffffffffffffffffff166dffffffffffffffffffffffffffff166118da565b9050919050565b610d0f611722565b610d198282612282565b5050565b5f60015f8367ffffffffffffffff1667ffffffffffffffff1681526020019081526020015f206001015f9054906101000a900467ffffffffffffffff169050919050565b5f805f8473ffffffffffffffffffffffffffffffffffffffff1673ffffffffffffffffffffffffffffffffffffffff1681526020019081526020015f205f015f837bffffffffffffffffffffffffffffffffffffffffffffffffffffffff19167bffffffffffffffffffffffffffffffffffffffffffffffffffffffff191681526020019081526020015f205f9054906101000a900467ffffffffffffffff16905092915050565b5f81565b610e15611722565b5f67ffffffffffffffff168367ffffffffffffffff161480610e4a575067ffffffffffffffff80168367ffffffffffffffff16145b15610e8c57826040517f1871a90c000000000000000000000000000000000000000000000000000000008152600401610e839190613298565b60405180910390fd5b8267ffffffffffffffff167f1256f5b5ecb89caec12db449738f2fbcd1ba5806cf38f35413f4e5c15bf6a4508383604051610ec8929190613d91565b60405180910390a2505050565b5f610ede611a1b565b9050638fb3603760e01b7bffffffffffffffffffffffffffffffffffffffffffffffffffffffff19168173ffffffffffffffffffffffffffffffffffffffff16638fb360376040518163ffffffff1660e01b8152600401602060405180830381865afa158015610f50573d5f803e3d5ffd5b505050506040513d601f19601f82011682018060405250810190610f749190613dc7565b7bffffffffffffffffffffffffffffffffffffffffffffffffffffffff191614610fd557806040517f320ff748000000000000000000000000000000000000000000000000000000008152600401610fcc9190613cea565b60405180910390fd5b610fe9610fe48583868661105b565b611ac7565b5050505050565b5f805f8373ffffffffffffffffffffffffffffffffffffffff1673ffffffffffffffffffffffffffffffffffffffff1681526020019081526020015f20600101600e9054906101000a900460ff169050919050565b61104d611722565b611057828261238e565b5050565b5f848484846040516020016110739493929190613e2e565b604051602081830303815290604052805190602001209050949350505050565b60608282905067ffffffffffffffff8111156110b2576110b1613e6c565b5b6040519080825280602002602001820160405280156110e557816020015b60608152602001906001900390816110d05790505b5090505f5b83839050811015611196576111653085858481811061110c5761110b613c06565b5b905060200281019061111e9190613ea5565b8080601f0160208091040260200160405190810160405280939291908181526020018383808284375f81840152601f19601f82011690508083019250505050505050612500565b82828151811061117857611177613c06565b5b6020026020010181905250808061118e90613c94565b9150506110ea565b5092915050565b5f806111a884610ff0565b156111b8575f809150915061123b565b3073ffffffffffffffffffffffffffffffffffffffff168573ffffffffffffffffffffffffffffffffffffffff16036111ff576111f58484612580565b5f9150915061123b565b5f61120a8585610d61565b90505f806112188389611264565b9150915081611228575f80611233565b5f8163ffffffff1614815b945094505050505b935093915050565b61124b611722565b6112558282612597565b505050565b5f62069780905090565b5f8067ffffffffffffffff80168467ffffffffffffffff160361128d5760015f915091506112d6565b5f806112998686610b24565b5050915091505f8265ffffffffffff16141580156112ce57506112ba612771565b65ffffffffffff168265ffffffffffff1611155b819350935050505b9250929050565b6112e5611722565b6112ef8282612780565b5050565b5f806112fd611a1b565b90505f61130a8585611aa0565b90505f6113198888888861105b565b90505f60025f8381526020019081526020015f205f015f9054906101000a900465ffffffffffff1665ffffffffffff160361138b57806040517f60a299b00000000000000000000000000000000000000000000000000000000081526004016113829190613871565b60405180910390fd5b8273ffffffffffffffffffffffffffffffffffffffff168873ffffffffffffffffffffffffffffffffffffffff1614611442575f6113c95f85611264565b5090505f6113e86113e26113dd8b87610d61565b610887565b86611264565b509050811580156113f7575080155b1561143f57848a8a866040517f3fe2751c0000000000000000000000000000000000000000000000000000000081526004016114369493929190613f07565b60405180910390fd5b50505b60025f8281526020019081526020015f205f015f6101000a81549065ffffffffffff02191690555f60025f8381526020019081526020015f205f0160069054906101000a900463ffffffff1690508063ffffffff16827fbd9ac67a6e2f6463b80927326310338bcbb4bdb7936ce1365ea3e01067e7b9f760405160405180910390a380945050505050949350505050565b5f805f6114de611a1b565b90505f6114ed82898989611a22565b9150505f8163ffffffff16611500612771565b61150a9190613f4a565b90505f8263ffffffff16148061154257505f8665ffffffffffff1611801561154157508065ffffffffffff168665ffffffffffff16105b5b156115915782896115538a8a611aa0565b6040517f81c6f24b00000000000000000000000000000000000000000000000000000000815260040161158893929190613d12565b60405180910390fd5b6115ab8665ffffffffffff168265ffffffffffff166128d2565b95506115b9838a8a8a61105b565b94506115c4856128ea565b600160025f8781526020019081526020015f205f0160069054906101000a900463ffffffff160193508560025f8781526020019081526020015f205f015f6101000a81548165ffffffffffff021916908365ffffffffffff1602179055508360025f8781526020019081526020015f205f0160066101000a81548163ffffffff021916908363ffffffff1602179055508363ffffffff16857f82a2da5dee54ea8021c6545b4444620291e07ee83be6dd57edb175062715f3b488868d8d8d604051611693959493929190613f83565b60405180910390a350505094509492505050565b6116af611a1b565b73ffffffffffffffffffffffffffffffffffffffff168173ffffffffffffffffffffffffffffffffffffffff1614611713576040517f5f159e6300000000000000000000000000000000000000000000000000000000815260040160405180910390fd5b61171d8282612597565b505050565b5f61172b611a1b565b90505f806117408361173b612976565b612982565b91509150816117c6575f8163ffffffff16036117aa575f611767611762612976565b612a67565b5091505083816040517ff07e038f0000000000000000000000000000000000000000000000000000000081526004016117a1929190613fcf565b60405180910390fd5b6117c46117bf84306117ba612976565b61105b565b611ac7565b505b505050565b805f808573ffffffffffffffffffffffffffffffffffffffff1673ffffffffffffffffffffffffffffffffffffffff1681526020019081526020015f205f015f847bffffffffffffffffffffffffffffffffffffffffffffffffffffffff19167bffffffffffffffffffffffffffffffffffffffffffffffffffffffff191681526020019081526020015f205f6101000a81548167ffffffffffffffff021916908367ffffffffffffffff1602179055508067ffffffffffffffff168373ffffffffffffffffffffffffffffffffffffffff167f9ea6790c7dadfd01c9f8b9762b3682607af2c7e79e05a9f9fdf5580dde949151846040516118cd9190613ff6565b60405180910390a3505050565b5f806118f5836dffffffffffffffffffffffffffff1661211b565b5050905080915050919050565b3073ffffffffffffffffffffffffffffffffffffffff168273ffffffffffffffffffffffffffffffffffffffff160361197257816040517f5a068bc80000000000000000000000000000000000000000000000000000000081526004016119699190613cea565b60405180910390fd5b805f808473ffffffffffffffffffffffffffffffffffffffff1673ffffffffffffffffffffffffffffffffffffffff1681526020019081526020015f20600101600e6101000a81548160ff0219169083151502179055508173ffffffffffffffffffffffffffffffffffffffff167f90d4e7bb7e5d933792b3562e1741306f8be94837e1348dacef9b6f1df56eb13882604051611a0f919061379a565b60405180910390a25050565b5f33905090565b5f803073ffffffffffffffffffffffffffffffffffffffff168573ffffffffffffffffffffffffffffffffffffffff1603611a6b57611a62868585612982565b91509150611a97565b60048484905010611a8f57611a8a8686611a858787611aa0565b61119d565b611a92565b5f805b915091505b94509492505050565b5f82825f90600492611ab493929190614017565b90611abf9190614067565b905092915050565b5f8060025f8481526020019081526020015f205f015f9054906101000a900465ffffffffffff1690505f60025f8581526020019081526020015f205f0160069054906101000a900463ffffffff1690505f8265ffffffffffff1603611b6357836040517f60a299b0000000000000000000000000000000000000000000000000000000008152600401611b5a9190613871565b60405180910390fd5b611b6b612771565b65ffffffffffff168265ffffffffffff161115611bbf57836040517f18cb6b7a000000000000000000000000000000000000000000000000000000008152600401611bb69190613871565b60405180910390fd5b611bc882612247565b15611c0a57836040517f78a5d6e4000000000000000000000000000000000000000000000000000000008152600401611c019190613871565b60405180910390fd5b60025f8581526020019081526020015f205f015f6101000a81549065ffffffffffff02191690558063ffffffff16847f76a2a46953689d4861a5d3f6ed883ad7e6af674a21f8e162707159fc9dde614d60405160405180910390a38092505050919050565b5f8282604051602001611c839291906140c5565b60405160208183030381529060405280519060200120905092915050565b606081471015611ce857306040517fcd786059000000000000000000000000000000000000000000000000000000008152600401611cdf9190613cea565b60405180910390fd5b5f808573ffffffffffffffffffffffffffffffffffffffff168486604051611d109190614126565b5f6040518083038185875af1925050503d805f8114611d4a576040519150601f19603f3d011682016040523d82523d5f602084013e611d4f565b606091505b5091509150611d5f868383612e42565b925050509392505050565b5f67ffffffffffffffff80168567ffffffffffffffff1603611dc357846040517f1871a90c000000000000000000000000000000000000000000000000000000008152600401611dba9190613298565b60405180910390fd5b5f8060015f8867ffffffffffffffff1667ffffffffffffffff1681526020019081526020015f205f015f8773ffffffffffffffffffffffffffffffffffffffff1673ffffffffffffffffffffffffffffffffffffffff1681526020019081526020015f205f015f9054906101000a900465ffffffffffff1665ffffffffffff161490505f8115611f6f578463ffffffff16611e5c612771565b611e669190613f4a565b905060405180604001604052808265ffffffffffff168152602001611e908663ffffffff16612ecf565b6dffffffffffffffffffffffffffff1681525060015f8967ffffffffffffffff1667ffffffffffffffff1681526020019081526020015f205f015f8873ffffffffffffffffffffffffffffffffffffffff1673ffffffffffffffffffffffffffffffffffffffff1681526020019081526020015f205f820151815f015f6101000a81548165ffffffffffff021916908365ffffffffffff1602179055506020820151815f0160066101000a8154816dffffffffffffffffffffffffffff02191690836dffffffffffffffffffffffffffff1602179055509050506120b1565b612012845f60015f8b67ffffffffffffffff1667ffffffffffffffff1681526020019081526020015f205f015f8a73ffffffffffffffffffffffffffffffffffffffff1673ffffffffffffffffffffffffffffffffffffffff1681526020019081526020015f205f0160069054906101000a90046dffffffffffffffffffffffffffff166dffffffffffffffffffffffffffff16612ede9092919063ffffffff16565b60015f8a67ffffffffffffffff1667ffffffffffffffff1681526020019081526020015f205f015f8973ffffffffffffffffffffffffffffffffffffffff1673ffffffffffffffffffffffffffffffffffffffff1681526020019081526020015f205f0160068294508391906101000a8154816dffffffffffffffffffffffffffff02191690836dffffffffffffffffffffffffffff16021790555050505b8573ffffffffffffffffffffffffffffffffffffffff168767ffffffffffffffff167ff98448b987f1428e0e230e1f3c6e2ce15b5693eaf31827fbd0b1ec4b424ae7cf8684866040516121069392919061413c565b60405180910390a38192505050949350505050565b5f805f61212f8461212a612771565b612f6c565b9250925092509193909250565b5f67ffffffffffffffff168267ffffffffffffffff161480612171575067ffffffffffffffff80168267ffffffffffffffff16145b156121b357816040517f1871a90c0000000000000000000000000000000000000000000000000000000081526004016121aa9190613298565b60405180910390fd5b8060015f8467ffffffffffffffff1667ffffffffffffffff1681526020019081526020015f206001015f6101000a81548167ffffffffffffffff021916908367ffffffffffffffff1602179055508067ffffffffffffffff168267ffffffffffffffff167f1fd6dd7631312dfac2205b52913f99de03b4d7e381d5d27d3dbfe0713e6e634060405160405180910390a35050565b5f612250612771565b65ffffffffffff16612260610c84565b63ffffffff16836122719190613f4a565b65ffffffffffff1611159050919050565b5f67ffffffffffffffff168267ffffffffffffffff1614806122b7575067ffffffffffffffff80168267ffffffffffffffff16145b156122f957816040517f1871a90c0000000000000000000000000000000000000000000000000000000081526004016122f09190613298565b60405180910390fd5b8060015f8467ffffffffffffffff1667ffffffffffffffff1681526020019081526020015f2060010160086101000a81548167ffffffffffffffff021916908367ffffffffffffffff1602179055508067ffffffffffffffff168267ffffffffffffffff167f7a8059630b897b5de4c08ade69f8b90c3ead1f8596d62d10b6c4d14a0afb4ae260405160405180910390a35050565b67ffffffffffffffff80168267ffffffffffffffff16036123e657816040517f1871a90c0000000000000000000000000000000000000000000000000000000081526004016123dd9190613298565b60405180910390fd5b5f612455826123f361125a565b60015f8767ffffffffffffffff1667ffffffffffffffff1681526020019081526020015f2060010160109054906101000a90046dffffffffffffffffffffffffffff166dffffffffffffffffffffffffffff16612ede9092919063ffffffff16565b60015f8667ffffffffffffffff1667ffffffffffffffff1681526020019081526020015f2060010160108294508391906101000a8154816dffffffffffffffffffffffffffff02191690836dffffffffffffffffffffffffffff16021790555050508267ffffffffffffffff167ffeb69018ee8b8fd50ea86348f1267d07673379f72cffdeccec63853ee8ce8b4883836040516124f3929190614171565b60405180910390a2505050565b60605f808473ffffffffffffffffffffffffffffffffffffffff16846040516125299190614126565b5f60405180830381855af49150503d805f8114612561576040519150601f19603f3d011682016040523d82523d5f602084013e612566565b606091505b5091509150612576858383612e42565b9250505092915050565b5f61258b8383611c6f565b60035414905092915050565b5f67ffffffffffffffff80168367ffffffffffffffff16036125f057826040517f1871a90c0000000000000000000000000000000000000000000000000000000081526004016125e79190613298565b60405180910390fd5b5f60015f8567ffffffffffffffff1667ffffffffffffffff1681526020019081526020015f205f015f8473ffffffffffffffffffffffffffffffffffffffff1673ffffffffffffffffffffffffffffffffffffffff1681526020019081526020015f205f015f9054906101000a900465ffffffffffff1665ffffffffffff160361267c575f905061276b565b60015f8467ffffffffffffffff1667ffffffffffffffff1681526020019081526020015f205f015f8373ffffffffffffffffffffffffffffffffffffffff1673ffffffffffffffffffffffffffffffffffffffff1681526020019081526020015f205f8082015f6101000a81549065ffffffffffff02191690555f820160066101000a8154906dffffffffffffffffffffffffffff021916905550508173ffffffffffffffffffffffffffffffffffffffff168367ffffffffffffffff167ff229baa593af28c41b1d16b748cd7688f0c83aaf92d4be41c44005defe84c16660405160405180910390a3600190505b92915050565b5f61277b42612fc5565b905090565b5f6128058261278d61125a565b5f808773ffffffffffffffffffffffffffffffffffffffff1673ffffffffffffffffffffffffffffffffffffffff1681526020019081526020015f206001015f9054906101000a90046dffffffffffffffffffffffffffff166dffffffffffffffffffffffffffff16612ede9092919063ffffffff16565b5f808673ffffffffffffffffffffffffffffffffffffffff1673ffffffffffffffffffffffffffffffffffffffff1681526020019081526020015f206001015f8294508391906101000a8154816dffffffffffffffffffffffffffff02191690836dffffffffffffffffffffffffffff16021790555050508273ffffffffffffffffffffffffffffffffffffffff167fa56b76017453f399ec2327ba00375dbfb1fd070ff854341ad6191e6a2e2de19c83836040516128c5929190614171565b60405180910390a2505050565b5f8183116128e057816128e2565b825b905092915050565b5f60025f8381526020019081526020015f205f015f9054906101000a900465ffffffffffff1690505f8165ffffffffffff1614158015612930575061292e81612247565b155b1561297257816040517f813e94590000000000000000000000000000000000000000000000000000000081526004016129699190613871565b60405180910390fd5b5050565b365f8036915091509091565b5f80600484849050101561299b575f8091509150612a5f565b3073ffffffffffffffffffffffffffffffffffffffff168573ffffffffffffffffffffffffffffffffffffffff16036129eb576129e1306129dc8686611aa0565b612580565b5f91509150612a5f565b5f805f6129f88787612a67565b92509250925082612a11575f8094509450505050612a5f565b5f80612a1d848b611264565b9150915081612a36575f80965096505050505050612a5f565b612a4c8363ffffffff168263ffffffff166128d2565b95505f8663ffffffff1614965050505050505b935093915050565b5f805f6004858590501015612a84575f805f925092509250612e3b565b5f612a8f8686611aa0565b905063853551b860e01b7bffffffffffffffffffffffffffffffffffffffffffffffffffffffff1916817bffffffffffffffffffffffffffffffffffffffffffffffffffffffff19161480612b2857506330cae18760e01b7bffffffffffffffffffffffffffffffffffffffffffffffffffffffff1916817bffffffffffffffffffffffffffffffffffffffffffffffffffffffff1916145b80612b775750635296295260e01b7bffffffffffffffffffffffffffffffffffffffffffffffffffffffff1916817bffffffffffffffffffffffffffffffffffffffffffffffffffffffff1916145b80612bc6575063a64d95ce60e01b7bffffffffffffffffffffffffffffffffffffffffffffffffffffffff1916817bffffffffffffffffffffffffffffffffffffffffffffffffffffffff1916145b80612c15575063d22b598960e01b7bffffffffffffffffffffffffffffffffffffffffffffffffffffffff1916817bffffffffffffffffffffffffffffffffffffffffffffffffffffffff1916145b15612c2a5760015f8093509350935050612e3b565b6318ff183c60e01b7bffffffffffffffffffffffffffffffffffffffffffffffffffffffff1916817bffffffffffffffffffffffffffffffffffffffffffffffffffffffff19161480612cc1575063167bd39560e01b7bffffffffffffffffffffffffffffffffffffffffffffffffffffffff1916817bffffffffffffffffffffffffffffffffffffffffffffffffffffffff1916145b80612d1057506308d6122d60e01b7bffffffffffffffffffffffffffffffffffffffffffffffffffffffff1916817bffffffffffffffffffffffffffffffffffffffffffffffffffffffff1916145b15612d57575f8686600490602492612d2a93929190614017565b810190612d3791906141d3565b90505f612d4382610c8e565b905060015f82955095509550505050612e3b565b6325c471a060e01b7bffffffffffffffffffffffffffffffffffffffffffffffffffffffff1916817bffffffffffffffffffffffffffffffffffffffffffffffffffffffff19161480612dee575063b7d2b16260e01b7bffffffffffffffffffffffffffffffffffffffffffffffffffffffff1916817bffffffffffffffffffffffffffffffffffffffffffffffffffffffff1916145b15612e30575f8686600490602492612e0893929190614017565b810190612e15919061325e565b90506001612e2282610d1d565b5f9450945094505050612e3b565b5f805f935093509350505b9250925092565b606082612e5757612e528261301e565b612ec7565b5f8251148015612e7d57505f8473ffffffffffffffffffffffffffffffffffffffff163b145b15612ebf57836040517f9996b315000000000000000000000000000000000000000000000000000000008152600401612eb69190613cea565b60405180910390fd5b819050612ec8565b5b9392505050565b5f8163ffffffff169050919050565b5f805f612efa866dffffffffffffffffffffffffffff166118da565b90505f612f388563ffffffff168763ffffffff168463ffffffff1611612f20575f612f2d565b8784612f2c91906141fe565b5b63ffffffff166128d2565b90508063ffffffff16612f49612771565b612f539190613f4a565b9250612f60828785613062565b93505050935093915050565b5f805f805f80612f8b886dffffffffffffffffffffffffffff166130ad565b9250925092508665ffffffffffff168165ffffffffffff161115612fb157828282612fb5565b815f805b9550955095505050509250925092565b5f65ffffffffffff8016821115613016576030826040517f6dfcc65000000000000000000000000000000000000000000000000000000000815260040161300d929190614292565b60405180910390fd5b819050919050565b5f815111156130305780518082602001fd5b6040517f1425ea4200000000000000000000000000000000000000000000000000000000815260040160405180910390fd5b5f8263ffffffff1660208563ffffffff166dffffffffffffffffffffffffffff16901b60408465ffffffffffff166dffffffffffffffffffffffffffff16901b171790509392505050565b5f805f808490508092506020816dffffffffffffffffffffffffffff16901c93506040816dffffffffffffffffffffffffffff16901c9150509193909250565b5f80fd5b5f80fd5b5f73ffffffffffffffffffffffffffffffffffffffff82169050919050565b5f61311e826130f5565b9050919050565b61312e81613114565b8114613138575f80fd5b50565b5f8135905061314981613125565b92915050565b5f80fd5b5f80fd5b5f80fd5b5f8083601f8401126131705761316f61314f565b5b8235905067ffffffffffffffff81111561318d5761318c613153565b5b6020830191508360208202830111156131a9576131a8613157565b5b9250929050565b5f67ffffffffffffffff82169050919050565b6131cc816131b0565b81146131d6575f80fd5b50565b5f813590506131e7816131c3565b92915050565b5f805f8060608587031215613205576132046130ed565b5b5f6132128782880161313b565b945050602085013567ffffffffffffffff811115613233576132326130f1565b5b61323f8782880161315b565b93509350506040613252878288016131d9565b91505092959194509250565b5f60208284031215613273576132726130ed565b5b5f613280848285016131d9565b91505092915050565b613292816131b0565b82525050565b5f6020820190506132ab5f830184613289565b92915050565b5f63ffffffff82169050919050565b6132c9816132b1565b82525050565b5f6020820190506132e25f8301846132c0565b92915050565b5f8115159050919050565b6132fc816132e8565b8114613306575f80fd5b50565b5f81359050613317816132f3565b92915050565b5f8060408385031215613333576133326130ed565b5b5f6133408582860161313b565b925050602061335185828601613309565b9150509250929050565b5f8060408385031215613371576133706130ed565b5b5f61337e8582860161313b565b925050602061338f8582860161313b565b9150509250929050565b5f8083601f8401126133ae576133ad61314f565b5b8235905067ffffffffffffffff8111156133cb576133ca613153565b5b6020830191508360018202830111156133e7576133e6613157565b5b9250929050565b5f805f60408486031215613405576134046130ed565b5b5f6134128682870161313b565b935050602084013567ffffffffffffffff811115613433576134326130f1565b5b61343f86828701613399565b92509250509250925092565b613454816132b1565b811461345e575f80fd5b50565b5f8135905061346f8161344b565b92915050565b5f805f6060848603121561348c5761348b6130ed565b5b5f613499868287016131d9565b93505060206134aa8682870161313b565b92505060406134bb86828701613461565b9150509250925092565b5f80604083850312156134db576134da6130ed565b5b5f6134e8858286016131d9565b92505060206134f98582860161313b565b9150509250929050565b5f65ffffffffffff82169050919050565b61351d81613503565b82525050565b5f6080820190506135365f830187613514565b61354360208301866132c0565b61355060408301856132c0565b61355d6060830184613514565b95945050505050565b5f806040838503121561357c5761357b6130ed565b5b5f613589858286016131d9565b925050602061359a858286016131d9565b9150509250929050565b5f819050919050565b6135b6816135a4565b81146135c0575f80fd5b50565b5f813590506135d1816135ad565b92915050565b5f602082840312156135ec576135eb6130ed565b5b5f6135f9848285016135c3565b91505092915050565b5f6020820190506136155f830184613514565b92915050565b5f602082840312156136305761362f6130ed565b5b5f61363d8482850161313b565b91505092915050565b5f7fffffffff0000000000000000000000000000000000000000000000000000000082169050919050565b61367a81613646565b8114613684575f80fd5b50565b5f8135905061369581613671565b92915050565b5f80604083850312156136b1576136b06130ed565b5b5f6136be8582860161313b565b92505060206136cf85828601613687565b9150509250929050565b5f8083601f8401126136ee576136ed61314f565b5b8235905067ffffffffffffffff81111561370b5761370a613153565b5b60208301915083600182028301111561372757613726613157565b5b9250929050565b5f805f60408486031215613745576137446130ed565b5b5f613752868287016131d9565b935050602084013567ffffffffffffffff811115613773576137726130f1565b5b61377f868287016136d9565b92509250509250925092565b613794816132e8565b82525050565b5f6020820190506137ad5f83018461378b565b92915050565b5f80604083850312156137c9576137c86130ed565b5b5f6137d6858286016131d9565b92505060206137e785828601613461565b9150509250929050565b5f805f8060608587031215613809576138086130ed565b5b5f6138168782880161313b565b94505060206138278782880161313b565b935050604085013567ffffffffffffffff811115613848576138476130f1565b5b61385487828801613399565b925092505092959194509250565b61386b816135a4565b82525050565b5f6020820190506138845f830184613862565b92915050565b5f8083601f84011261389f5761389e61314f565b5b8235905067ffffffffffffffff8111156138bc576138bb613153565b5b6020830191508360208202830111156138d8576138d7613157565b5b9250929050565b5f80602083850312156138f5576138f46130ed565b5b5f83013567ffffffffffffffff811115613912576139116130f1565b5b61391e8582860161388a565b92509250509250929050565b5f81519050919050565b5f82825260208201905092915050565b5f819050602082019050919050565b5f81519050919050565b5f82825260208201905092915050565b5f5b8381101561398a57808201518184015260208101905061396f565b5f8484015250505050565b5f601f19601f8301169050919050565b5f6139af82613953565b6139b9818561395d565b93506139c981856020860161396d565b6139d281613995565b840191505092915050565b5f6139e883836139a5565b905092915050565b5f602082019050919050565b5f613a068261392a565b613a108185613934565b935083602082028501613a2285613944565b805f5b85811015613a5d5784840389528151613a3e85826139dd565b9450613a49836139f0565b925060208a01995050600181019050613a25565b50829750879550505050505092915050565b5f6020820190508181035f830152613a8781846139fc565b905092915050565b5f805f60608486031215613aa657613aa56130ed565b5b5f613ab38682870161313b565b9350506020613ac48682870161313b565b9250506040613ad586828701613687565b9150509250925092565b5f604082019050613af25f83018561378b565b613aff60208301846132c0565b9392505050565b5f8060408385031215613b1c57613b1b6130ed565b5b5f613b298582860161313b565b9250506020613b3a85828601613461565b9150509250929050565b613b4d81613503565b8114613b57575f80fd5b50565b5f81359050613b6881613b44565b92915050565b5f805f8060608587031215613b8657613b856130ed565b5b5f613b938782880161313b565b945050602085013567ffffffffffffffff811115613bb457613bb36130f1565b5b613bc087828801613399565b93509350506040613bd387828801613b5a565b91505092959194509250565b5f604082019050613bf25f830185613862565b613bff60208301846132c0565b9392505050565b7f4e487b71000000000000000000000000000000000000000000000000000000005f52603260045260245ffd5b5f60208284031215613c4857613c476130ed565b5b5f613c5584828501613687565b91505092915050565b7f4e487b71000000000000000000000000000000000000000000000000000000005f52601160045260245ffd5b5f819050919050565b5f613c9e82613c8b565b91507fffffffffffffffffffffffffffffffffffffffffffffffffffffffffffffffff8203613cd057613ccf613c5e565b5b600182019050919050565b613ce481613114565b82525050565b5f602082019050613cfd5f830184613cdb565b92915050565b613d0c81613646565b82525050565b5f606082019050613d255f830186613cdb565b613d326020830185613cdb565b613d3f6040830184613d03565b949350505050565b5f82825260208201905092915050565b828183375f83830152505050565b5f613d708385613d47565b9350613d7d838584613d57565b613d8683613995565b840190509392505050565b5f6020820190508181035f830152613daa818486613d65565b90509392505050565b5f81519050613dc181613671565b92915050565b5f60208284031215613ddc57613ddb6130ed565b5b5f613de984828501613db3565b91505092915050565b5f82825260208201905092915050565b5f613e0d8385613df2565b9350613e1a838584613d57565b613e2383613995565b840190509392505050565b5f606082019050613e415f830187613cdb565b613e4e6020830186613cdb565b8181036040830152613e61818486613e02565b905095945050505050565b7f4e487b71000000000000000000000000000000000000000000000000000000005f52604160045260245ffd5b5f80fd5b5f80fd5b5f80fd5b5f8083356001602003843603038112613ec157613ec0613e99565b5b80840192508235915067ffffffffffffffff821115613ee357613ee2613e9d565b5b602083019250600182023603831315613eff57613efe613ea1565b5b509250929050565b5f608082019050613f1a5f830187613cdb565b613f276020830186613cdb565b613f346040830185613cdb565b613f416060830184613d03565b95945050505050565b5f613f5482613503565b9150613f5f83613503565b9250828201905065ffffffffffff811115613f7d57613f7c613c5e565b5b92915050565b5f608082019050613f965f830188613514565b613fa36020830187613cdb565b613fb06040830186613cdb565b8181036060830152613fc3818486613e02565b90509695505050505050565b5f604082019050613fe25f830185613cdb565b613fef6020830184613289565b9392505050565b5f6020820190506140095f830184613d03565b92915050565b5f80fd5b5f80fd5b5f808585111561402a5761402961400f565b5b8386111561403b5761403a614013565b5b6001850283019150848603905094509492505050565b5f82905092915050565b5f82821b905092915050565b5f6140728383614051565b8261407d8135613646565b925060048210156140bd576140b87fffffffff000000000000000000000000000000000000000000000000000000008360040360080261405b565b831692505b505092915050565b5f6040820190506140d85f830185613cdb565b6140e56020830184613d03565b9392505050565b5f81905092915050565b5f61410082613953565b61410a81856140ec565b935061411a81856020860161396d565b80840191505092915050565b5f61413182846140f6565b915081905092915050565b5f60608201905061414f5f8301866132c0565b61415c6020830185613514565b614169604083018461378b565b949350505050565b5f6040820190506141845f8301856132c0565b6141916020830184613514565b9392505050565b5f6141a2826130f5565b9050919050565b6141b281614198565b81146141bc575f80fd5b50565b5f813590506141cd816141a9565b92915050565b5f602082840312156141e8576141e76130ed565b5b5f6141f5848285016141bf565b91505092915050565b5f614208826132b1565b9150614213836132b1565b9250828203905063ffffffff81111561422f5761422e613c5e565b5b92915050565b5f819050919050565b5f60ff82169050919050565b5f819050919050565b5f61426d61426861426384614235565b61424a565b61423e565b9050919050565b61427d81614253565b82525050565b61428c81613c8b565b82525050565b5f6040820190506142a55f830185614274565b6142b26020830184614283565b939250505056fea26469706673582212204c8c75c169bc20c4926398fc3993c9bfafd56f9a081f621310d91a703372b01564736f6c63430008150033",
  "immutableReferences": {},
  "source": "// SPDX-License-Identifier: MIT\n// OpenZeppelin Contracts (last updated v5.0.0) (access/manager/AccessManager.sol)\n\npragma solidity ^0.8.20;\n\nimport {IAccessManager} from \"./IAccessManager.sol\";\nimport {IAccessManaged} from \"./IAccessManaged.sol\";\nimport {Address} from \"../../utils/Address.sol\";\nimport {Context} from \"../../utils/Context.sol\";\nimport {Multicall} from \"../../utils/Multicall.sol\";\nimport {Math} from \"../../utils/math/Math.sol\";\nimport {Time} from \"../../utils/types/Time.sol\";\n\n/**\n * @dev AccessManager is a central contract to store the permissions of a system.\n *\n * A smart contract under the control of an AccessManager instance is known as a target, and will inherit from the\n * {AccessManaged} contract, be connected to this contract as its manager and implement the {AccessManaged-restricted}\n * modifier on a set of functions selected to be permissioned. Note that any function without this setup won't be\n * effectively restricted.\n *\n * The restriction rules for such functions are defined in terms of \"roles\" identified by an `uint64` and scoped\n * by target (`address`) and function selectors (`bytes4`). These roles are stored in this contract and can be\n * configured by admins (`ADMIN_ROLE` members) after a delay (see {getTargetAdminDelay}).\n *\n * For each target contract, admins can configure the following without any delay:\n *\n * * The target's {AccessManaged-authority} via {updateAuthority}.\n * * Close or open a target via {setTargetClosed} keeping the permissions intact.\n * * The roles that are allowed (or disallowed) to call a given function (identified by its selector) through {setTargetFunctionRole}.\n *\n * By default every address is member of the `PUBLIC_ROLE` and every target function is restricted to the `ADMIN_ROLE` until configured otherwise.\n * Additionally, each role has the following configuration options restricted to this manager's admins:\n *\n * * A role's admin role via {setRoleAdmin} who can grant or revoke roles.\n * * A role's guardian role via {setRoleGuardian} who's allowed to cancel operations.\n * * A delay in which a role takes effect after being granted through {setGrantDelay}.\n * * A delay of any target's admin action via {setTargetAdminDelay}.\n * * A role label for discoverability purposes with {labelRole}.\n *\n * Any account can be added and removed into any number of these roles by using the {grantRole} and {revokeRole} functions\n * restricted to each role's admin (see {getRoleAdmin}).\n *\n * Since all the permissions of the managed system can be modified by the admins of this instance, it is expected that\n * they will be highly secured (e.g., a multisig or a well-configured DAO).\n *\n * NOTE: This contract implements a form of the {IAuthority} interface, but {canCall} has additional return data so it\n * doesn't inherit `IAuthority`. It is however compatible with the `IAuthority` interface since the first 32 bytes of\n * the return data are a boolean as expected by that interface.\n *\n * NOTE: Systems that implement other access control mechanisms (for example using {Ownable}) can be paired with an\n * {AccessManager} by transferring permissions (ownership in the case of {Ownable}) directly to the {AccessManager}.\n * Users will be able to interact with these contracts through the {execute} function, following the access rules\n * registered in the {AccessManager}. Keep in mind that in that context, the msg.sender seen by restricted functions\n * will be {AccessManager} itself.\n *\n * WARNING: When granting permissions over an {Ownable} or {AccessControl} contract to an {AccessManager}, be very\n * mindful of the danger associated with functions such as {{Ownable-renounceOwnership}} or\n * {{AccessControl-renounceRole}}.\n */\ncontract AccessManager is Context, Multicall, IAccessManager {\n    using Time for *;\n\n    // Structure that stores the details for a target contract.\n    struct TargetConfig {\n        mapping(bytes4 selector => uint64 roleId) allowedRoles;\n        Time.Delay adminDelay;\n        bool closed;\n    }\n\n    // Structure that stores the details for a role/account pair. This structures fit into a single slot.\n    struct Access {\n        // Timepoint at which the user gets the permission.\n        // If this is either 0 or in the future, then the role permission is not available.\n        uint48 since;\n        // Delay for execution. Only applies to restricted() / execute() calls.\n        Time.Delay delay;\n    }\n\n    // Structure that stores the details of a role.\n    struct Role {\n        // Members of the role.\n        mapping(address user => Access access) members;\n        // Admin who can grant or revoke permissions.\n        uint64 admin;\n        // Guardian who can cancel operations targeting functions that need this role.\n        uint64 guardian;\n        // Delay in which the role takes effect after being granted.\n        Time.Delay grantDelay;\n    }\n\n    // Structure that stores the details for a scheduled operation. This structure fits into a single slot.\n    struct Schedule {\n        // Moment at which the operation can be executed.\n        uint48 timepoint;\n        // Operation nonce to allow third-party contracts to identify the operation.\n        uint32 nonce;\n    }\n\n    uint64 public constant ADMIN_ROLE = type(uint64).min; // 0\n    uint64 public constant PUBLIC_ROLE = type(uint64).max; // 2**64-1\n\n    mapping(address target => TargetConfig mode) private _targets;\n    mapping(uint64 roleId => Role) private _roles;\n    mapping(bytes32 operationId => Schedule) private _schedules;\n\n    // Used to identify operations that are currently being executed via {execute}.\n    // This should be transient storage when supported by the EVM.\n    bytes32 private _executionId;\n\n    /**\n     * @dev Check that the caller is authorized to perform the operation, following the restrictions encoded in\n     * {_getAdminRestrictions}.\n     */\n    modifier onlyAuthorized() {\n        _checkAuthorized();\n        _;\n    }\n\n    constructor(address initialAdmin) {\n        if (initialAdmin == address(0)) {\n            revert AccessManagerInvalidInitialAdmin(address(0));\n        }\n\n        // admin is active immediately and without any execution delay.\n        _grantRole(ADMIN_ROLE, initialAdmin, 0, 0);\n    }\n\n    // =================================================== GETTERS ====================================================\n    /// @inheritdoc IAccessManager\n    function canCall(\n        address caller,\n        address target,\n        bytes4 selector\n    ) public view virtual returns (bool immediate, uint32 delay) {\n        if (isTargetClosed(target)) {\n            return (false, 0);\n        } else if (caller == address(this)) {\n            // Caller is AccessManager, this means the call was sent through {execute} and it already checked\n            // permissions. We verify that the call \"identifier\", which is set during {execute}, is correct.\n            return (_isExecuting(target, selector), 0);\n        } else {\n            uint64 roleId = getTargetFunctionRole(target, selector);\n            (bool isMember, uint32 currentDelay) = hasRole(roleId, caller);\n            return isMember ? (currentDelay == 0, currentDelay) : (false, 0);\n        }\n    }\n\n    /// @inheritdoc IAccessManager\n    function expiration() public view virtual returns (uint32) {\n        return 1 weeks;\n    }\n\n    /// @inheritdoc IAccessManager\n    function minSetback() public view virtual returns (uint32) {\n        return 5 days;\n    }\n\n    /// @inheritdoc IAccessManager\n    function isTargetClosed(address target) public view virtual returns (bool) {\n        return _targets[target].closed;\n    }\n\n    /// @inheritdoc IAccessManager\n    function getTargetFunctionRole(address target, bytes4 selector) public view virtual returns (uint64) {\n        return _targets[target].allowedRoles[selector];\n    }\n\n    /// @inheritdoc IAccessManager\n    function getTargetAdminDelay(address target) public view virtual returns (uint32) {\n        return _targets[target].adminDelay.get();\n    }\n\n    /// @inheritdoc IAccessManager\n    function getRoleAdmin(uint64 roleId) public view virtual returns (uint64) {\n        return _roles[roleId].admin;\n    }\n\n    /// @inheritdoc IAccessManager\n    function getRoleGuardian(uint64 roleId) public view virtual returns (uint64) {\n        return _roles[roleId].guardian;\n    }\n\n    /// @inheritdoc IAccessManager\n    function getRoleGrantDelay(uint64 roleId) public view virtual returns (uint32) {\n        return _roles[roleId].grantDelay.get();\n    }\n\n    /// @inheritdoc IAccessManager\n    function getAccess(\n        uint64 roleId,\n        address account\n    ) public view virtual returns (uint48 since, uint32 currentDelay, uint32 pendingDelay, uint48 effect) {\n        Access storage access = _roles[roleId].members[account];\n\n        since = access.since;\n        (currentDelay, pendingDelay, effect) = access.delay.getFull();\n\n        return (since, currentDelay, pendingDelay, effect);\n    }\n\n    /// @inheritdoc IAccessManager\n    function hasRole(\n        uint64 roleId,\n        address account\n    ) public view virtual returns (bool isMember, uint32 executionDelay) {\n        if (roleId == PUBLIC_ROLE) {\n            return (true, 0);\n        } else {\n            (uint48 hasRoleSince, uint32 currentDelay, , ) = getAccess(roleId, account);\n            return (hasRoleSince != 0 && hasRoleSince <= Time.timestamp(), currentDelay);\n        }\n    }\n\n    // =============================================== ROLE MANAGEMENT ===============================================\n    /// @inheritdoc IAccessManager\n    function labelRole(uint64 roleId, string calldata label) public virtual onlyAuthorized {\n        if (roleId == ADMIN_ROLE || roleId == PUBLIC_ROLE) {\n            revert AccessManagerLockedRole(roleId);\n        }\n        emit RoleLabel(roleId, label);\n    }\n\n    /// @inheritdoc IAccessManager\n    function grantRole(uint64 roleId, address account, uint32 executionDelay) public virtual onlyAuthorized {\n        _grantRole(roleId, account, getRoleGrantDelay(roleId), executionDelay);\n    }\n\n    /// @inheritdoc IAccessManager\n    function revokeRole(uint64 roleId, address account) public virtual onlyAuthorized {\n        _revokeRole(roleId, account);\n    }\n\n    /// @inheritdoc IAccessManager\n    function renounceRole(uint64 roleId, address callerConfirmation) public virtual {\n        if (callerConfirmation != _msgSender()) {\n            revert AccessManagerBadConfirmation();\n        }\n        _revokeRole(roleId, callerConfirmation);\n    }\n\n    /// @inheritdoc IAccessManager\n    function setRoleAdmin(uint64 roleId, uint64 admin) public virtual onlyAuthorized {\n        _setRoleAdmin(roleId, admin);\n    }\n\n    /// @inheritdoc IAccessManager\n    function setRoleGuardian(uint64 roleId, uint64 guardian) public virtual onlyAuthorized {\n        _setRoleGuardian(roleId, guardian);\n    }\n\n    /// @inheritdoc IAccessManager\n    function setGrantDelay(uint64 roleId, uint32 newDelay) public virtual onlyAuthorized {\n        _setGrantDelay(roleId, newDelay);\n    }\n\n    /**\n     * @dev Internal version of {grantRole} without access control. Returns true if the role was newly granted.\n     *\n     * Emits a {RoleGranted} event.\n     */\n    function _grantRole(\n        uint64 roleId,\n        address account,\n        uint32 grantDelay,\n        uint32 executionDelay\n    ) internal virtual returns (bool) {\n        if (roleId == PUBLIC_ROLE) {\n            revert AccessManagerLockedRole(roleId);\n        }\n\n        bool newMember = _roles[roleId].members[account].since == 0;\n        uint48 since;\n\n        if (newMember) {\n            since = Time.timestamp() + grantDelay;\n            _roles[roleId].members[account] = Access({since: since, delay: executionDelay.toDelay()});\n        } else {\n            // No setback here. Value can be reset by doing revoke + grant, effectively allowing the admin to perform\n            // any change to the execution delay within the duration of the role admin delay.\n            (_roles[roleId].members[account].delay, since) = _roles[roleId].members[account].delay.withUpdate(\n                executionDelay,\n                0\n            );\n        }\n\n        emit RoleGranted(roleId, account, executionDelay, since, newMember);\n        return newMember;\n    }\n\n    /**\n     * @dev Internal version of {revokeRole} without access control. This logic is also used by {renounceRole}.\n     * Returns true if the role was previously granted.\n     *\n     * Emits a {RoleRevoked} event if the account had the role.\n     */\n    function _revokeRole(uint64 roleId, address account) internal virtual returns (bool) {\n        if (roleId == PUBLIC_ROLE) {\n            revert AccessManagerLockedRole(roleId);\n        }\n\n        if (_roles[roleId].members[account].since == 0) {\n            return false;\n        }\n\n        delete _roles[roleId].members[account];\n\n        emit RoleRevoked(roleId, account);\n        return true;\n    }\n\n    /**\n     * @dev Internal version of {setRoleAdmin} without access control.\n     *\n     * Emits a {RoleAdminChanged} event.\n     *\n     * NOTE: Setting the admin role as the `PUBLIC_ROLE` is allowed, but it will effectively allow\n     * anyone to set grant or revoke such role.\n     */\n    function _setRoleAdmin(uint64 roleId, uint64 admin) internal virtual {\n        if (roleId == ADMIN_ROLE || roleId == PUBLIC_ROLE) {\n            revert AccessManagerLockedRole(roleId);\n        }\n\n        _roles[roleId].admin = admin;\n\n        emit RoleAdminChanged(roleId, admin);\n    }\n\n    /**\n     * @dev Internal version of {setRoleGuardian} without access control.\n     *\n     * Emits a {RoleGuardianChanged} event.\n     *\n     * NOTE: Setting the guardian role as the `PUBLIC_ROLE` is allowed, but it will effectively allow\n     * anyone to cancel any scheduled operation for such role.\n     */\n    function _setRoleGuardian(uint64 roleId, uint64 guardian) internal virtual {\n        if (roleId == ADMIN_ROLE || roleId == PUBLIC_ROLE) {\n            revert AccessManagerLockedRole(roleId);\n        }\n\n        _roles[roleId].guardian = guardian;\n\n        emit RoleGuardianChanged(roleId, guardian);\n    }\n\n    /**\n     * @dev Internal version of {setGrantDelay} without access control.\n     *\n     * Emits a {RoleGrantDelayChanged} event.\n     */\n    function _setGrantDelay(uint64 roleId, uint32 newDelay) internal virtual {\n        if (roleId == PUBLIC_ROLE) {\n            revert AccessManagerLockedRole(roleId);\n        }\n\n        uint48 effect;\n        (_roles[roleId].grantDelay, effect) = _roles[roleId].grantDelay.withUpdate(newDelay, minSetback());\n\n        emit RoleGrantDelayChanged(roleId, newDelay, effect);\n    }\n\n    // ============================================= FUNCTION MANAGEMENT ==============================================\n    /// @inheritdoc IAccessManager\n    function setTargetFunctionRole(\n        address target,\n        bytes4[] calldata selectors,\n        uint64 roleId\n    ) public virtual onlyAuthorized {\n        for (uint256 i = 0; i < selectors.length; ++i) {\n            _setTargetFunctionRole(target, selectors[i], roleId);\n        }\n    }\n\n    /**\n     * @dev Internal version of {setTargetFunctionRole} without access control.\n     *\n     * Emits a {TargetFunctionRoleUpdated} event.\n     */\n    function _setTargetFunctionRole(address target, bytes4 selector, uint64 roleId) internal virtual {\n        _targets[target].allowedRoles[selector] = roleId;\n        emit TargetFunctionRoleUpdated(target, selector, roleId);\n    }\n\n    /// @inheritdoc IAccessManager\n    function setTargetAdminDelay(address target, uint32 newDelay) public virtual onlyAuthorized {\n        _setTargetAdminDelay(target, newDelay);\n    }\n\n    /**\n     * @dev Internal version of {setTargetAdminDelay} without access control.\n     *\n     * Emits a {TargetAdminDelayUpdated} event.\n     */\n    function _setTargetAdminDelay(address target, uint32 newDelay) internal virtual {\n        uint48 effect;\n        (_targets[target].adminDelay, effect) = _targets[target].adminDelay.withUpdate(newDelay, minSetback());\n\n        emit TargetAdminDelayUpdated(target, newDelay, effect);\n    }\n\n    // =============================================== MODE MANAGEMENT ================================================\n    /// @inheritdoc IAccessManager\n    function setTargetClosed(address target, bool closed) public virtual onlyAuthorized {\n        _setTargetClosed(target, closed);\n    }\n\n    /**\n     * @dev Set the closed flag for a contract. This is an internal setter with no access restrictions.\n     *\n     * Emits a {TargetClosed} event.\n     */\n    function _setTargetClosed(address target, bool closed) internal virtual {\n        if (target == address(this)) {\n            revert AccessManagerLockedAccount(target);\n        }\n        _targets[target].closed = closed;\n        emit TargetClosed(target, closed);\n    }\n\n    // ============================================== DELAYED OPERATIONS ==============================================\n    /// @inheritdoc IAccessManager\n    function getSchedule(bytes32 id) public view virtual returns (uint48) {\n        uint48 timepoint = _schedules[id].timepoint;\n        return _isExpired(timepoint) ? 0 : timepoint;\n    }\n\n    /// @inheritdoc IAccessManager\n    function getNonce(bytes32 id) public view virtual returns (uint32) {\n        return _schedules[id].nonce;\n    }\n\n    /// @inheritdoc IAccessManager\n    function schedule(\n        address target,\n        bytes calldata data,\n        uint48 when\n    ) public virtual returns (bytes32 operationId, uint32 nonce) {\n        address caller = _msgSender();\n\n        // Fetch restrictions that apply to the caller on the targeted function\n        (, uint32 setback) = _canCallExtended(caller, target, data);\n\n        uint48 minWhen = Time.timestamp() + setback;\n\n        // if call with delay is not authorized, or if requested timing is too soon\n        if (setback == 0 || (when > 0 && when < minWhen)) {\n            revert AccessManagerUnauthorizedCall(caller, target, _checkSelector(data));\n        }\n\n        // Reuse variable due to stack too deep\n        when = uint48(Math.max(when, minWhen)); // cast is safe: both inputs are uint48\n\n        // If caller is authorised, schedule operation\n        operationId = hashOperation(caller, target, data);\n\n        _checkNotScheduled(operationId);\n\n        unchecked {\n            // It's not feasible to overflow the nonce in less than 1000 years\n            nonce = _schedules[operationId].nonce + 1;\n        }\n        _schedules[operationId].timepoint = when;\n        _schedules[operationId].nonce = nonce;\n        emit OperationScheduled(operationId, nonce, when, caller, target, data);\n\n        // Using named return values because otherwise we get stack too deep\n    }\n\n    /**\n     * @dev Reverts if the operation is currently scheduled and has not expired.\n     * (Note: This function was introduced due to stack too deep errors in schedule.)\n     */\n    function _checkNotScheduled(bytes32 operationId) private view {\n        uint48 prevTimepoint = _schedules[operationId].timepoint;\n        if (prevTimepoint != 0 && !_isExpired(prevTimepoint)) {\n            revert AccessManagerAlreadyScheduled(operationId);\n        }\n    }\n\n    /// @inheritdoc IAccessManager\n    // Reentrancy is not an issue because permissions are checked on msg.sender. Additionally,\n    // _consumeScheduledOp guarantees a scheduled operation is only executed once.\n    // slither-disable-next-line reentrancy-no-eth\n    function execute(address target, bytes calldata data) public payable virtual returns (uint32) {\n        address caller = _msgSender();\n\n        // Fetch restrictions that apply to the caller on the targeted function\n        (bool immediate, uint32 setback) = _canCallExtended(caller, target, data);\n\n        // If caller is not authorised, revert\n        if (!immediate && setback == 0) {\n            revert AccessManagerUnauthorizedCall(caller, target, _checkSelector(data));\n        }\n\n        bytes32 operationId = hashOperation(caller, target, data);\n        uint32 nonce;\n\n        // If caller is authorised, check operation was scheduled early enough\n        // Consume an available schedule even if there is no currently enforced delay\n        if (setback != 0 || getSchedule(operationId) != 0) {\n            nonce = _consumeScheduledOp(operationId);\n        }\n\n        // Mark the target and selector as authorised\n        bytes32 executionIdBefore = _executionId;\n        _executionId = _hashExecutionId(target, _checkSelector(data));\n\n        // Perform call\n        Address.functionCallWithValue(target, data, msg.value);\n\n        // Reset execute identifier\n        _executionId = executionIdBefore;\n\n        return nonce;\n    }\n\n    /// @inheritdoc IAccessManager\n    function cancel(address caller, address target, bytes calldata data) public virtual returns (uint32) {\n        address msgsender = _msgSender();\n        bytes4 selector = _checkSelector(data);\n\n        bytes32 operationId = hashOperation(caller, target, data);\n        if (_schedules[operationId].timepoint == 0) {\n            revert AccessManagerNotScheduled(operationId);\n        } else if (caller != msgsender) {\n            // calls can only be canceled by the account that scheduled them, a global admin, or by a guardian of the required role.\n            (bool isAdmin, ) = hasRole(ADMIN_ROLE, msgsender);\n            (bool isGuardian, ) = hasRole(getRoleGuardian(getTargetFunctionRole(target, selector)), msgsender);\n            if (!isAdmin && !isGuardian) {\n                revert AccessManagerUnauthorizedCancel(msgsender, caller, target, selector);\n            }\n        }\n\n        delete _schedules[operationId].timepoint; // reset the timepoint, keep the nonce\n        uint32 nonce = _schedules[operationId].nonce;\n        emit OperationCanceled(operationId, nonce);\n\n        return nonce;\n    }\n\n    /// @inheritdoc IAccessManager\n    function consumeScheduledOp(address caller, bytes calldata data) public virtual {\n        address target = _msgSender();\n        if (IAccessManaged(target).isConsumingScheduledOp() != IAccessManaged.isConsumingScheduledOp.selector) {\n            revert AccessManagerUnauthorizedConsume(target);\n        }\n        _consumeScheduledOp(hashOperation(caller, target, data));\n    }\n\n    /**\n     * @dev Internal variant of {consumeScheduledOp} that operates on bytes32 operationId.\n     *\n     * Returns the nonce of the scheduled operation that is consumed.\n     */\n    function _consumeScheduledOp(bytes32 operationId) internal virtual returns (uint32) {\n        uint48 timepoint = _schedules[operationId].timepoint;\n        uint32 nonce = _schedules[operationId].nonce;\n\n        if (timepoint == 0) {\n            revert AccessManagerNotScheduled(operationId);\n        } else if (timepoint > Time.timestamp()) {\n            revert AccessManagerNotReady(operationId);\n        } else if (_isExpired(timepoint)) {\n            revert AccessManagerExpired(operationId);\n        }\n\n        delete _schedules[operationId].timepoint; // reset the timepoint, keep the nonce\n        emit OperationExecuted(operationId, nonce);\n\n        return nonce;\n    }\n\n    /// @inheritdoc IAccessManager\n    function hashOperation(address caller, address target, bytes calldata data) public view virtual returns (bytes32) {\n        return keccak256(abi.encode(caller, target, data));\n    }\n\n    // ==================================================== OTHERS ====================================================\n    /// @inheritdoc IAccessManager\n    function updateAuthority(address target, address newAuthority) public virtual onlyAuthorized {\n        IAccessManaged(target).setAuthority(newAuthority);\n    }\n\n    // ================================================= ADMIN LOGIC ==================================================\n    /**\n     * @dev Check if the current call is authorized according to admin logic.\n     */\n    function _checkAuthorized() private {\n        address caller = _msgSender();\n        (bool immediate, uint32 delay) = _canCallSelf(caller, _msgData());\n        if (!immediate) {\n            if (delay == 0) {\n                (, uint64 requiredRole, ) = _getAdminRestrictions(_msgData());\n                revert AccessManagerUnauthorizedAccount(caller, requiredRole);\n            } else {\n                _consumeScheduledOp(hashOperation(caller, address(this), _msgData()));\n            }\n        }\n    }\n\n    /**\n     * @dev Get the admin restrictions of a given function call based on the function and arguments involved.\n     *\n     * Returns:\n     * - bool restricted: does this data match a restricted operation\n     * - uint64: which role is this operation restricted to\n     * - uint32: minimum delay to enforce for that operation (max between operation's delay and admin's execution delay)\n     */\n    function _getAdminRestrictions(\n        bytes calldata data\n    ) private view returns (bool restricted, uint64 roleAdminId, uint32 executionDelay) {\n        if (data.length < 4) {\n            return (false, 0, 0);\n        }\n\n        bytes4 selector = _checkSelector(data);\n\n        // Restricted to ADMIN with no delay beside any execution delay the caller may have\n        if (\n            selector == this.labelRole.selector ||\n            selector == this.setRoleAdmin.selector ||\n            selector == this.setRoleGuardian.selector ||\n            selector == this.setGrantDelay.selector ||\n            selector == this.setTargetAdminDelay.selector\n        ) {\n            return (true, ADMIN_ROLE, 0);\n        }\n\n        // Restricted to ADMIN with the admin delay corresponding to the target\n        if (\n            selector == this.updateAuthority.selector ||\n            selector == this.setTargetClosed.selector ||\n            selector == this.setTargetFunctionRole.selector\n        ) {\n            // First argument is a target.\n            address target = abi.decode(data[0x04:0x24], (address));\n            uint32 delay = getTargetAdminDelay(target);\n            return (true, ADMIN_ROLE, delay);\n        }\n\n        // Restricted to that role's admin with no delay beside any execution delay the caller may have.\n        if (selector == this.grantRole.selector || selector == this.revokeRole.selector) {\n            // First argument is a roleId.\n            uint64 roleId = abi.decode(data[0x04:0x24], (uint64));\n            return (true, getRoleAdmin(roleId), 0);\n        }\n\n        return (false, 0, 0);\n    }\n\n    // =================================================== HELPERS ====================================================\n    /**\n     * @dev An extended version of {canCall} for internal usage that checks {_canCallSelf}\n     * when the target is this contract.\n     *\n     * Returns:\n     * - bool immediate: whether the operation can be executed immediately (with no delay)\n     * - uint32 delay: the execution delay\n     */\n    function _canCallExtended(\n        address caller,\n        address target,\n        bytes calldata data\n    ) private view returns (bool immediate, uint32 delay) {\n        if (target == address(this)) {\n            return _canCallSelf(caller, data);\n        } else {\n            return data.length < 4 ? (false, 0) : canCall(caller, target, _checkSelector(data));\n        }\n    }\n\n    /**\n     * @dev A version of {canCall} that checks for admin restrictions in this contract.\n     */\n    function _canCallSelf(address caller, bytes calldata data) private view returns (bool immediate, uint32 delay) {\n        if (data.length < 4) {\n            return (false, 0);\n        }\n\n        if (caller == address(this)) {\n            // Caller is AccessManager, this means the call was sent through {execute} and it already checked\n            // permissions. We verify that the call \"identifier\", which is set during {execute}, is correct.\n            return (_isExecuting(address(this), _checkSelector(data)), 0);\n        }\n\n        (bool enabled, uint64 roleId, uint32 operationDelay) = _getAdminRestrictions(data);\n        if (!enabled) {\n            return (false, 0);\n        }\n\n        (bool inRole, uint32 executionDelay) = hasRole(roleId, caller);\n        if (!inRole) {\n            return (false, 0);\n        }\n\n        // downcast is safe because both options are uint32\n        delay = uint32(Math.max(operationDelay, executionDelay));\n        return (delay == 0, delay);\n    }\n\n    /**\n     * @dev Returns true if a call with `target` and `selector` is being executed via {executed}.\n     */\n    function _isExecuting(address target, bytes4 selector) private view returns (bool) {\n        return _executionId == _hashExecutionId(target, selector);\n    }\n\n    /**\n     * @dev Returns true if a schedule timepoint is past its expiration deadline.\n     */\n    function _isExpired(uint48 timepoint) private view returns (bool) {\n        return timepoint + expiration() <= Time.timestamp();\n    }\n\n    /**\n     * @dev Extracts the selector from calldata. Panics if data is not at least 4 bytes\n     */\n    function _checkSelector(bytes calldata data) private pure returns (bytes4) {\n        return bytes4(data[0:4]);\n    }\n\n    /**\n     * @dev Hashing function for execute protection\n     */\n    function _hashExecutionId(address target, bytes4 selector) private pure returns (bytes32) {\n        return keccak256(abi.encode(target, selector));\n    }\n}\n",
  "sourcePath": "C:\\Users\\joshu\\OneDrive\\Desktop\\Uni Work 2023-24\\Individual Project\\Smart Contracts\\contracts\\@openzeppelin\\contracts\\access\\manager\\AccessManager.sol",
  "compiler": {
    "name": "solc",
    "version": "0.8.21+commit.d9974bed.Emscripten.clang"
  },
  "schemaVersion": "3.4.16",
  "updatedAt": "2024-02-01T00:30:20.540Z",
  "devdoc": {
    "details": "AccessManager is a central contract to store the permissions of a system. A smart contract under the control of an AccessManager instance is known as a target, and will inherit from the {AccessManaged} contract, be connected to this contract as its manager and implement the {AccessManaged-restricted} modifier on a set of functions selected to be permissioned. Note that any function without this setup won't be effectively restricted. The restriction rules for such functions are defined in terms of \"roles\" identified by an `uint64` and scoped by target (`address`) and function selectors (`bytes4`). These roles are stored in this contract and can be configured by admins (`ADMIN_ROLE` members) after a delay (see {getTargetAdminDelay}). For each target contract, admins can configure the following without any delay: * The target's {AccessManaged-authority} via {updateAuthority}. * Close or open a target via {setTargetClosed} keeping the permissions intact. * The roles that are allowed (or disallowed) to call a given function (identified by its selector) through {setTargetFunctionRole}. By default every address is member of the `PUBLIC_ROLE` and every target function is restricted to the `ADMIN_ROLE` until configured otherwise. Additionally, each role has the following configuration options restricted to this manager's admins: * A role's admin role via {setRoleAdmin} who can grant or revoke roles. * A role's guardian role via {setRoleGuardian} who's allowed to cancel operations. * A delay in which a role takes effect after being granted through {setGrantDelay}. * A delay of any target's admin action via {setTargetAdminDelay}. * A role label for discoverability purposes with {labelRole}. Any account can be added and removed into any number of these roles by using the {grantRole} and {revokeRole} functions restricted to each role's admin (see {getRoleAdmin}). Since all the permissions of the managed system can be modified by the admins of this instance, it is expected that they will be highly secured (e.g., a multisig or a well-configured DAO). NOTE: This contract implements a form of the {IAuthority} interface, but {canCall} has additional return data so it doesn't inherit `IAuthority`. It is however compatible with the `IAuthority` interface since the first 32 bytes of the return data are a boolean as expected by that interface. NOTE: Systems that implement other access control mechanisms (for example using {Ownable}) can be paired with an {AccessManager} by transferring permissions (ownership in the case of {Ownable}) directly to the {AccessManager}. Users will be able to interact with these contracts through the {execute} function, following the access rules registered in the {AccessManager}. Keep in mind that in that context, the msg.sender seen by restricted functions will be {AccessManager} itself. WARNING: When granting permissions over an {Ownable} or {AccessControl} contract to an {AccessManager}, be very mindful of the danger associated with functions such as {{Ownable-renounceOwnership}} or {{AccessControl-renounceRole}}.",
    "errors": {
      "AddressEmptyCode(address)": [
        {
          "details": "There's no code at `target` (it is not a contract)."
        }
      ],
      "AddressInsufficientBalance(address)": [
        {
          "details": "The ETH balance of the account is not enough to perform the operation."
        }
      ],
      "FailedInnerCall()": [
        {
          "details": "A call to an address target failed. The target may have reverted."
        }
      ],
      "SafeCastOverflowedUintDowncast(uint8,uint256)": [
        {
          "details": "Value doesn't fit in an uint of `bits` size."
        }
      ]
    },
    "events": {
      "OperationCanceled(bytes32,uint32)": {
        "details": "A scheduled operation was canceled."
      },
      "OperationExecuted(bytes32,uint32)": {
        "details": "A scheduled operation was executed."
      },
      "OperationScheduled(bytes32,uint32,uint48,address,address,bytes)": {
        "details": "A delayed operation was scheduled."
      },
      "RoleAdminChanged(uint64,uint64)": {
        "details": "Role acting as admin over a given `roleId` is updated."
      },
      "RoleGrantDelayChanged(uint64,uint32,uint48)": {
        "details": "Grant delay for a given `roleId` will be updated to `delay` when `since` is reached."
      },
      "RoleGranted(uint64,address,uint32,uint48,bool)": {
        "details": "Emitted when `account` is granted `roleId`. NOTE: The meaning of the `since` argument depends on the `newMember` argument. If the role is granted to a new member, the `since` argument indicates when the account becomes a member of the role, otherwise it indicates the execution delay for this account and roleId is updated."
      },
      "RoleGuardianChanged(uint64,uint64)": {
        "details": "Role acting as guardian over a given `roleId` is updated."
      },
      "RoleLabel(uint64,string)": {
        "details": "Informational labelling for a roleId."
      },
      "RoleRevoked(uint64,address)": {
        "details": "Emitted when `account` membership or `roleId` is revoked. Unlike granting, revoking is instantaneous."
      },
      "TargetAdminDelayUpdated(address,uint32,uint48)": {
        "details": "Admin delay for a given `target` will be updated to `delay` when `since` is reached."
      },
      "TargetClosed(address,bool)": {
        "details": "Target mode is updated (true = closed, false = open)."
      },
      "TargetFunctionRoleUpdated(address,bytes4,uint64)": {
        "details": "Role required to invoke `selector` on `target` is updated to `roleId`."
      }
    },
    "kind": "dev",
    "methods": {
      "canCall(address,address,bytes4)": {
        "details": "Check if an address (`caller`) is authorised to call a given function on a given contract directly (with no restriction). Additionally, it returns the delay needed to perform the call indirectly through the {schedule} & {execute} workflow. This function is usually called by the targeted contract to control immediate execution of restricted functions. Therefore we only return true if the call can be performed without any delay. If the call is subject to a previously set delay (not zero), then the function should return false and the caller should schedule the operation for future execution. If `immediate` is true, the delay can be disregarded and the operation can be immediately executed, otherwise the operation can be executed if and only if delay is greater than 0. NOTE: The IAuthority interface does not include the `uint32` delay. This is an extension of that interface that is backward compatible. Some contracts may thus ignore the second return argument. In that case they will fail to identify the indirect workflow, and will consider calls that require a delay to be forbidden. NOTE: This function does not report the permissions of this manager itself. These are defined by the {_canCallSelf} function instead."
      },
      "cancel(address,address,bytes)": {
        "details": "Cancel a scheduled (delayed) operation. Returns the nonce that identifies the previously scheduled operation that is cancelled. Requirements: - the caller must be the proposer, a guardian of the targeted function, or a global admin Emits a {OperationCanceled} event."
      },
      "consumeScheduledOp(address,bytes)": {
        "details": "Consume a scheduled operation targeting the caller. If such an operation exists, mark it as consumed (emit an {OperationExecuted} event and clean the state). Otherwise, throw an error. This is useful for contract that want to enforce that calls targeting them were scheduled on the manager, with all the verifications that it implies. Emit a {OperationExecuted} event."
      },
      "execute(address,bytes)": {
        "details": "Execute a function that is delay restricted, provided it was properly scheduled beforehand, or the execution delay is 0. Returns the nonce that identifies the previously scheduled operation that is executed, or 0 if the operation wasn't previously scheduled (if the caller doesn't have an execution delay). Emits an {OperationExecuted} event only if the call was scheduled and delayed."
      },
      "expiration()": {
        "details": "Expiration delay for scheduled proposals. Defaults to 1 week. IMPORTANT: Avoid overriding the expiration with 0. Otherwise every contract proposal will be expired immediately, disabling any scheduling usage."
      },
      "getAccess(uint64,address)": {
        "details": "Get the access details for a given account for a given role. These details include the timepoint at which membership becomes active, and the delay applied to all operation by this user that requires this permission level. Returns: [0] Timestamp at which the account membership becomes valid. 0 means role is not granted. [1] Current execution delay for the account. [2] Pending execution delay for the account. [3] Timestamp at which the pending execution delay will become active. 0 means no delay update is scheduled."
      },
      "getNonce(bytes32)": {
        "details": "Return the nonce for the latest scheduled operation with a given id. Returns 0 if the operation has never been scheduled."
      },
      "getRoleAdmin(uint64)": {
        "details": "Get the id of the role that acts as an admin for the given role. The admin permission is required to grant the role, revoke the role and update the execution delay to execute an operation that is restricted to this role."
      },
      "getRoleGrantDelay(uint64)": {
        "details": "Get the role current grant delay. Its value may change at any point without an event emitted following a call to {setGrantDelay}. Changes to this value, including effect timepoint are notified in advance by the {RoleGrantDelayChanged} event."
      },
      "getRoleGuardian(uint64)": {
        "details": "Get the role that acts as a guardian for a given role. The guardian permission allows canceling operations that have been scheduled under the role."
      },
      "getSchedule(bytes32)": {
        "details": "Return the timepoint at which a scheduled operation will be ready for execution. This returns 0 if the operation is not yet scheduled, has expired, was executed, or was canceled."
      },
      "getTargetAdminDelay(address)": {
        "details": "Get the admin delay for a target contract. Changes to contract configuration are subject to this delay."
      },
      "getTargetFunctionRole(address,bytes4)": {
        "details": "Get the role required to call a function."
      },
      "grantRole(uint64,address,uint32)": {
        "details": "Add `account` to `roleId`, or change its execution delay. This gives the account the authorization to call any function that is restricted to this role. An optional execution delay (in seconds) can be set. If that delay is non 0, the user is required to schedule any operation that is restricted to members of this role. The user will only be able to execute the operation after the delay has passed, before it has expired. During this period, admin and guardians can cancel the operation (see {cancel}). If the account has already been granted this role, the execution delay will be updated. This update is not immediate and follows the delay rules. For example, if a user currently has a delay of 3 hours, and this is called to reduce that delay to 1 hour, the new delay will take some time to take effect, enforcing that any operation executed in the 3 hours that follows this update was indeed scheduled before this update. Requirements: - the caller must be an admin for the role (see {getRoleAdmin}) - granted role must not be the `PUBLIC_ROLE` Emits a {RoleGranted} event."
      },
      "hasRole(uint64,address)": {
        "details": "Check if a given account currently has the permission level corresponding to a given role. Note that this permission might be associated with an execution delay. {getAccess} can provide more details."
      },
      "hashOperation(address,address,bytes)": {
        "details": "Hashing function for delayed operations."
      },
      "isTargetClosed(address)": {
        "details": "Get whether the contract is closed disabling any access. Otherwise role permissions are applied."
      },
      "labelRole(uint64,string)": {
        "details": "Give a label to a role, for improved role discoverability by UIs. Requirements: - the caller must be a global admin Emits a {RoleLabel} event."
      },
      "minSetback()": {
        "details": "Minimum setback for all delay updates, with the exception of execution delays. It can be increased without setback (and reset via {revokeRole} in the case event of an accidental increase). Defaults to 5 days."
      },
      "multicall(bytes[])": {
        "custom:oz-upgrades-unsafe-allow-reachable": "delegatecall",
        "details": "Receives and executes a batch of function calls on this contract."
      },
      "renounceRole(uint64,address)": {
        "details": "Renounce role permissions for the calling account with immediate effect. If the sender is not in the role this call has no effect. Requirements: - the caller must be `callerConfirmation`. Emits a {RoleRevoked} event if the account had the role."
      },
      "revokeRole(uint64,address)": {
        "details": "Remove an account from a role, with immediate effect. If the account does not have the role, this call has no effect. Requirements: - the caller must be an admin for the role (see {getRoleAdmin}) - revoked role must not be the `PUBLIC_ROLE` Emits a {RoleRevoked} event if the account had the role."
      },
      "schedule(address,bytes,uint48)": {
        "details": "Schedule a delayed operation for future execution, and return the operation identifier. It is possible to choose the timestamp at which the operation becomes executable as long as it satisfies the execution delays required for the caller. The special value zero will automatically set the earliest possible time. Returns the `operationId` that was scheduled. Since this value is a hash of the parameters, it can reoccur when the same parameters are used; if this is relevant, the returned `nonce` can be used to uniquely identify this scheduled operation from other occurrences of the same `operationId` in invocations of {execute} and {cancel}. Emits a {OperationScheduled} event. NOTE: It is not possible to concurrently schedule more than one operation with the same `target` and `data`. If this is necessary, a random byte can be appended to `data` to act as a salt that will be ignored by the target contract if it is using standard Solidity ABI encoding."
      },
      "setGrantDelay(uint64,uint32)": {
        "details": "Update the delay for granting a `roleId`. Requirements: - the caller must be a global admin Emits a {RoleGrantDelayChanged} event."
      },
      "setRoleAdmin(uint64,uint64)": {
        "details": "Change admin role for a given role. Requirements: - the caller must be a global admin Emits a {RoleAdminChanged} event"
      },
      "setRoleGuardian(uint64,uint64)": {
        "details": "Change guardian role for a given role. Requirements: - the caller must be a global admin Emits a {RoleGuardianChanged} event"
      },
      "setTargetAdminDelay(address,uint32)": {
        "details": "Set the delay for changing the configuration of a given target contract. Requirements: - the caller must be a global admin Emits a {TargetAdminDelayUpdated} event."
      },
      "setTargetClosed(address,bool)": {
        "details": "Set the closed flag for a contract. Requirements: - the caller must be a global admin Emits a {TargetClosed} event."
      },
      "setTargetFunctionRole(address,bytes4[],uint64)": {
        "details": "Set the role required to call functions identified by the `selectors` in the `target` contract. Requirements: - the caller must be a global admin Emits a {TargetFunctionRoleUpdated} event per selector."
      },
      "updateAuthority(address,address)": {
        "details": "Changes the authority of a target managed by this manager instance. Requirements: - the caller must be a global admin"
      }
    },
    "version": 1
  },
  "userdoc": {
    "kind": "user",
    "methods": {},
    "version": 1
  }
}