{
  "contractName": "EtherBank",
  "abi": [
    {
      "inputs": [
        {
          "internalType": "address",
          "name": "",
          "type": "address"
        }
      ],
      "name": "balances",
      "outputs": [
        {
          "internalType": "uint256",
          "name": "",
          "type": "uint256"
        }
      ],
      "stateMutability": "view",
      "type": "function"
    },
    {
      "inputs": [],
      "name": "depositETH",
      "outputs": [],
      "stateMutability": "payable",
      "type": "function"
    },
    {
      "inputs": [],
      "name": "withdrawETH",
      "outputs": [],
      "stateMutability": "nonpayable",
      "type": "function"
    }
  ],
  "bytecode": "0x608060405234801561001057600080fd5b5061045d806100206000396000f3fe6080604052600436106100345760003560e01c806327e235e314610039578063e086e5ec14610076578063f6326fb31461008d575b600080fd5b34801561004557600080fd5b50610060600480360381019061005b91906102a0565b610097565b60405161006d91906102e6565b60405180910390f35b34801561008257600080fd5b5061008b6100af565b005b6100956101e6565b005b60006020528060005260406000206000915090505481565b60008060003373ffffffffffffffffffffffffffffffffffffffff1673ffffffffffffffffffffffffffffffffffffffff16815260200190815260200160002054905060003373ffffffffffffffffffffffffffffffffffffffff168260405161011890610332565b60006040518083038185875af1925050503d8060008114610155576040519150601f19603f3d011682016040523d82523d6000602084013e61015a565b606091505b505090508061019e576040517f08c379a0000000000000000000000000000000000000000000000000000000008152600401610195906103a4565b60405180910390fd5b60008060003373ffffffffffffffffffffffffffffffffffffffff1673ffffffffffffffffffffffffffffffffffffffff168152602001908152602001600020819055505050565b346000803373ffffffffffffffffffffffffffffffffffffffff1673ffffffffffffffffffffffffffffffffffffffff168152602001908152602001600020600082825461023491906103f3565b92505081905550565b600080fd5b600073ffffffffffffffffffffffffffffffffffffffff82169050919050565b600061026d82610242565b9050919050565b61027d81610262565b811461028857600080fd5b50565b60008135905061029a81610274565b92915050565b6000602082840312156102b6576102b561023d565b5b60006102c48482850161028b565b91505092915050565b6000819050919050565b6102e0816102cd565b82525050565b60006020820190506102fb60008301846102d7565b92915050565b600081905092915050565b50565b600061031c600083610301565b91506103278261030c565b600082019050919050565b600061033d8261030f565b9150819050919050565b600082825260208201905092915050565b7f5769746864726177206661696c65640000000000000000000000000000000000600082015250565b600061038e600f83610347565b915061039982610358565b602082019050919050565b600060208201905081810360008301526103bd81610381565b9050919050565b7f4e487b7100000000000000000000000000000000000000000000000000000000600052601160045260246000fd5b60006103fe826102cd565b9150610409836102cd565b9250828201905080821115610421576104206103c4565b5b9291505056fea264697066735822122075d716272ac14e66474cec53387f5e6212bd4b01f342e95b86c9df10244a7ff364736f6c63430008130033",
  "immutableReferences": {},
  "source": "// SPDX-License-Identifier: UNLICENSED\r\npragma solidity ^0.8.0;\r\n\r\n\r\n// Let's scan this!\r\ncontract EtherBank {\r\n\r\n    mapping(address => uint256) public balances;\r\n\r\n    function depositETH() external payable {\r\n        balances[msg.sender] += msg.value;\r\n    }\r\n\r\n    function withdrawETH() external {\r\n\r\n        // Higher than balance\r\n        uint256 balance = balances[msg.sender];\r\n\r\n        // Send ETH \r\n        (bool success, ) = msg.sender.call{value: balance}(\"\");\r\n        require(success, \"Withdraw failed\");\r\n\r\n        // Update Balance\r\n        balances[msg.sender] = 0;\r\n    }\r\n}",
  "sourcePath": "C:\\Users\\joshu\\OneDrive\\Desktop\\Uni Work 2023-24\\Individual Project\\Smart Contracts\\contracts\\REEnt.sol",
  "compiler": {
    "name": "solc",
    "version": "0.8.19+commit.7dd6d404.Emscripten.clang"
  },
  "schemaVersion": "3.4.16",
  "updatedAt": "2024-02-12T22:56:51.178Z",
  "devdoc": {
    "kind": "dev",
    "methods": {},
    "version": 1
  },
  "userdoc": {
    "kind": "user",
    "methods": {},
    "version": 1
  }
}