{
  "contractName": "FrontRunningAttacker",
  "abi": [
    {
      "inputs": [
        {
          "internalType": "address",
          "name": "_targetContract",
          "type": "address"
        }
      ],
      "stateMutability": "nonpayable",
      "type": "constructor"
    },
    {
      "inputs": [],
      "name": "targetContract",
      "outputs": [
        {
          "internalType": "contract FrontRunningContract",
          "name": "",
          "type": "address"
        }
      ],
      "stateMutability": "view",
      "type": "function",
      "constant": true
    },
    {
      "inputs": [],
      "name": "attack",
      "outputs": [],
      "stateMutability": "payable",
      "type": "function",
      "payable": true
    }
  ],
  "bytecode": "0x608060405234801561001057600080fd5b50604051610463380380610463833981810160405281019061003291906100db565b806000806101000a81548173ffffffffffffffffffffffffffffffffffffffff021916908373ffffffffffffffffffffffffffffffffffffffff16021790555050610108565b600080fd5b600073ffffffffffffffffffffffffffffffffffffffff82169050919050565b60006100a88261007d565b9050919050565b6100b88161009d565b81146100c357600080fd5b50565b6000815190506100d5816100af565b92915050565b6000602082840312156100f1576100f0610078565b5b60006100ff848285016100c6565b91505092915050565b61034c806101176000396000f3fe6080604052600436106100295760003560e01c80639e5faafc1461002e578063bd90df7014610038575b600080fd5b610036610063565b005b34801561004457600080fd5b5061004d61018d565b60405161005a9190610230565b60405180910390f35b6000678ac7230489e8000060008054906101000a900473ffffffffffffffffffffffffffffffffffffffff1673ffffffffffffffffffffffffffffffffffffffff1663d57bde796040518163ffffffff1660e01b8152600401602060405180830381865afa1580156100d9573d6000803e3d6000fd5b505050506040513d601f19601f820116820180604052508101906100fd9190610286565b61010791906102e2565b905060008054906101000a900473ffffffffffffffffffffffffffffffffffffffff1673ffffffffffffffffffffffffffffffffffffffff1663ecfc7ecc826040518263ffffffff1660e01b81526004016000604051808303818588803b15801561017157600080fd5b505af1158015610185573d6000803e3d6000fd5b505050505050565b60008054906101000a900473ffffffffffffffffffffffffffffffffffffffff1681565b600073ffffffffffffffffffffffffffffffffffffffff82169050919050565b6000819050919050565b60006101f66101f16101ec846101b1565b6101d1565b6101b1565b9050919050565b6000610208826101db565b9050919050565b600061021a826101fd565b9050919050565b61022a8161020f565b82525050565b60006020820190506102456000830184610221565b92915050565b600080fd5b6000819050919050565b61026381610250565b811461026e57600080fd5b50565b6000815190506102808161025a565b92915050565b60006020828403121561029c5761029b61024b565b5b60006102aa84828501610271565b91505092915050565b7f4e487b7100000000000000000000000000000000000000000000000000000000600052601160045260246000fd5b60006102ed82610250565b91506102f883610250565b92508282019050808211156103105761030f6102b3565b5b9291505056fea2646970667358221220ea8ec3a28488eaef8f96d36fb75829ea426d2b9050831255ab9aab766976f5a564736f6c63430008130033",
  "immutableReferences": {},
  "source": "// SPDX-License-Identifier: UNLICENSED\r\npragma solidity ^0.8.19;\r\n\r\ncontract FrontRunningContract {\r\n    address public leader;\r\n    uint256 public highestBid;\r\n\r\n    constructor() {\r\n        leader = msg.sender;\r\n        highestBid = 0;\r\n    }\r\n\r\n    function placeBid() external payable {\r\n        require(msg.value > highestBid, \"Bid must be higher than current highest bid\");\r\n        highestBid = msg.value;\r\n        leader = msg.sender;\r\n    }\r\n\r\n    function withdrawBid() external {\r\n        require(msg.sender == leader, \"Only the leader can withdraw\");\r\n        payable(msg.sender).transfer(address(this).balance);\r\n    }\r\n}\r\ncontract FrontRunningAttacker {\r\n    FrontRunningContract public targetContract;\r\n\r\n    constructor(address _targetContract) {\r\n        targetContract = FrontRunningContract(_targetContract);\r\n    }\r\n\r\nfunction attack() external payable {\r\n    // Place a bid with a fixed higher value than the current highest bid\r\n    uint256 bidValue = targetContract.highestBid() + 10 ether; // Sending 10 ether higher than the current highest bid\r\n    targetContract.placeBid{value: bidValue}();\r\n}\r\n\r\n\r\n}",
  "sourcePath": "C:\\Users\\joshu\\OneDrive\\Desktop\\Individual Project\\Smart Contracts\\contracts\\FrontRunning.sol",
  "compiler": {
    "name": "solc",
    "version": "0.8.19+commit.7dd6d404.Emscripten.clang"
  },
  "schemaVersion": "3.4.16",
  "updatedAt": "2024-04-10T00:22:40.378Z",
  "networkType": "ethereum",
  "devdoc": {
    "kind": "dev",
    "methods": {},
    "version": 1
  },
  "userdoc": {
    "kind": "user",
    "methods": {},
    "version": 1
  }
}