{
  "contractName": "InsecureRandomness",
  "abi": [
    {
      "inputs": [],
      "name": "randomNumber",
      "outputs": [
        {
          "internalType": "uint256",
          "name": "",
          "type": "uint256"
        }
      ],
      "stateMutability": "view",
      "type": "function"
    },
    {
      "inputs": [],
      "name": "randomNumberGeneration",
      "outputs": [],
      "stateMutability": "nonpayable",
      "type": "function"
    }
  ],
  "bytecode": "0x608060405234801561001057600080fd5b506101c7806100206000396000f3fe608060405234801561001057600080fd5b50600436106100365760003560e01c8063ccbac9f51461003b578063d690521514610059575b600080fd5b610043610063565b60405161005091906100b3565b60405180910390f35b610061610069565b005b60005481565b600060014361007891906100fd565b90506000814060001c90506064816100909190610160565b6000819055505050565b6000819050919050565b6100ad8161009a565b82525050565b60006020820190506100c860008301846100a4565b92915050565b7f4e487b7100000000000000000000000000000000000000000000000000000000600052601160045260246000fd5b60006101088261009a565b91506101138361009a565b925082820390508181111561012b5761012a6100ce565b5b92915050565b7f4e487b7100000000000000000000000000000000000000000000000000000000600052601260045260246000fd5b600061016b8261009a565b91506101768361009a565b92508261018657610185610131565b5b82820690509291505056fea2646970667358221220345d6e304ea7ce1e2caa7fee1cb8de1dec29bdc8a445c0dfb686d04ef314197e64736f6c63430008130033",
  "immutableReferences": {},
  "source": "// SPDX-License-Identifier: UNLICENSED\r\n\r\npragma solidity ^0.8.19;\r\n\r\ncontract InsecureRandomness {\r\n\r\n    uint256 public randomNumber; //for storage of generated number\r\n    function randomNumberGeneration() public { \r\n        uint256 blockNumber = block.number - 1; //retain previous block number\r\n        uint256 blockHash = uint256(blockhash(blockNumber)); //retains previous block hash\r\n        randomNumber = blockHash % 100; //genrate random integer with block hash modulus (100)\r\n    }\r\n}\r\n\r\ncontract RandomnessAttack {\r\n\r\n    InsecureRandomness public vulnerableContract; \r\n    constructor(InsecureRandomness _vulnerableContract) { //uses vulnerable address for attack\r\n        vulnerableContract = _vulnerableContract;\r\n    }\r\n\r\n    function attack() public {\r\n        vulnerableContract.randomNumberGeneration(); //calling randomNumberGeneration function\r\n    }\r\n\r\n    function getRandomNumber() public view returns (uint256) {\r\n        return vulnerableContract.randomNumber(); //return random number\r\n    }\r\n}",
  "sourcePath": "C:\\Users\\joshu\\OneDrive\\Desktop\\Individual Project\\Smart Contracts\\contracts\\InsecureRandomness.sol",
  "compiler": {
    "name": "solc",
    "version": "0.8.19+commit.7dd6d404.Emscripten.clang"
  },
  "schemaVersion": "3.4.16",
  "updatedAt": "2024-04-22T17:37:36.506Z",
  "devdoc": {
    "kind": "dev",
    "methods": {},
    "version": 1
  },
  "userdoc": {
    "kind": "user",
    "methods": {},
    "version": 1
  }
}