{
  "contractName": "MyContractSecure",
  "abi": [
    {
      "inputs": [],
      "name": "ReentrancyGuardReentrantCall",
      "type": "error"
    },
    {
      "stateMutability": "payable",
      "type": "fallback",
      "payable": true
    },
    {
      "stateMutability": "payable",
      "type": "receive",
      "payable": true
    },
    {
      "inputs": [],
      "name": "deposit",
      "outputs": [],
      "stateMutability": "payable",
      "type": "function",
      "payable": true
    },
    {
      "inputs": [],
      "name": "withdraw",
      "outputs": [],
      "stateMutability": "nonpayable",
      "type": "function"
    }
  ],
  "bytecode": "0x608060405234801561001057600080fd5b506001600081905550610822806100286000396000f3fe60806040526004361061002d5760003560e01c80633ccfd60b146100a8578063d0e30db0146100bf5761006d565b3661006d576040517f08c379a0000000000000000000000000000000000000000000000000000000008152600401610064906104b1565b60405180910390fd5b6040517f08c379a000000000000000000000000000000000000000000000000000000000815260040161009f90610543565b60405180910390fd5b3480156100b457600080fd5b506100bd6100c9565b005b6100c76102c4565b005b6100d16103de565b600073ffffffffffffffffffffffffffffffffffffffff163373ffffffffffffffffffffffffffffffffffffffff1603610140576040517f08c379a0000000000000000000000000000000000000000000000000000000008152600401610137906105af565b60405180910390fd5b6000600160003373ffffffffffffffffffffffffffffffffffffffff1673ffffffffffffffffffffffffffffffffffffffff168152602001908152602001600020549050600081116101c7576040517f08c379a00000000000000000000000000000000000000000000000000000000081526004016101be90610641565b60405180910390fd5b6000600160003373ffffffffffffffffffffffffffffffffffffffff1673ffffffffffffffffffffffffffffffffffffffff1681526020019081526020016000208190555060003373ffffffffffffffffffffffffffffffffffffffff168260405161023290610692565b60006040518083038185875af1925050503d806000811461026f576040519150601f19603f3d011682016040523d82523d6000602084013e610274565b606091505b50509050806102b8576040517f08c379a00000000000000000000000000000000000000000000000000000000081526004016102af906106f3565b60405180910390fd5b50506102c2610424565b565b6102cc6103de565b600073ffffffffffffffffffffffffffffffffffffffff163373ffffffffffffffffffffffffffffffffffffffff160361033b576040517f08c379a0000000000000000000000000000000000000000000000000000000008152600401610332906105af565b60405180910390fd5b6000341161037e576040517f08c379a00000000000000000000000000000000000000000000000000000000081526004016103759061075f565b60405180910390fd5b34600160003373ffffffffffffffffffffffffffffffffffffffff1673ffffffffffffffffffffffffffffffffffffffff16815260200190815260200160002060008282546103cd91906107b8565b925050819055506103dc610424565b565b60026000540361041a576040517f3ee5aeb500000000000000000000000000000000000000000000000000000000815260040160405180910390fd5b6002600081905550565b6001600081905550565b600082825260208201905092915050565b7f446f206e6f742073656e64204574686572206469726563746c7920746f20746860008201527f6520636f6e747261637400000000000000000000000000000000000000000000602082015250565b600061049b602a8361042e565b91506104a68261043f565b604082019050919050565b600060208201905081810360008301526104ca8161048e565b9050919050565b7f446f206e6f742063616c6c207468652066616c6c6261636b2066756e6374696f60008201527f6e206469726563746c7900000000000000000000000000000000000000000000602082015250565b600061052d602a8361042e565b9150610538826104d1565b604082019050919050565b6000602082019050818103600083015261055c81610520565b9050919050565b7f53656e6465722061646472657373206973206e6f742061636365707461626c65600082015250565b600061059960208361042e565b91506105a482610563565b602082019050919050565b600060208201905081810360008301526105c88161058c565b9050919050565b7f5573657220747279696e6720746f207769746864726177206d6f72652074686160008201527f6e206465706f7369746564000000000000000000000000000000000000000000602082015250565b600061062b602b8361042e565b9150610636826105cf565b604082019050919050565b6000602082019050818103600083015261065a8161061e565b9050919050565b600081905092915050565b50565b600061067c600083610661565b91506106878261066c565b600082019050919050565b600061069d8261066f565b9150819050919050565b7f53656e6420556e7375636365737366756c000000000000000000000000000000600082015250565b60006106dd60118361042e565b91506106e8826106a7565b602082019050919050565b6000602082019050818103600083015261070c816106d0565b9050919050565b7f416d6f756e74206d757374206265206465706f73697465640000000000000000600082015250565b600061074960188361042e565b915061075482610713565b602082019050919050565b600060208201905081810360008301526107788161073c565b9050919050565b6000819050919050565b7f4e487b7100000000000000000000000000000000000000000000000000000000600052601160045260246000fd5b60006107c38261077f565b91506107ce8361077f565b92508282019050808211156107e6576107e5610789565b5b9291505056fea2646970667358221220b43e7a91c61b8571d646e736a91a3c853d763d241221aee28b0b99b02f56081c64736f6c63430008130033",
  "immutableReferences": {},
  "source": "// SPDX-License-Identifier: UNLICENSED\r\npragma solidity ^0.8.19;\r\nimport \"@openzeppelin/contracts/utils/ReentrancyGuard.sol\";\r\ncontract MyContractSecure is ReentrancyGuard {\r\n    mapping(address => uint256) private userBalances;\r\n    function deposit() public payable nonReentrant {\r\n        require(msg.sender != address(0), \"Sender address is not acceptable\");\r\n        require(msg.value > 0, \"Amount must be deposited\");\r\n        userBalances[msg.sender] += msg.value;\r\n    }\r\n    function withdraw() public nonReentrant {\r\n        require(msg.sender != address(0), \"Sender address is not acceptable\");\r\n        uint256 balance = userBalances[msg.sender];\r\n        require(balance > 0, \"User trying to withdraw more than deposited\");\r\n        userBalances[msg.sender] = 0;\r\n        (bool sent, ) = payable(msg.sender).call{value: balance}(\"\");\r\n        require(sent, \"Send Unsuccessful\");\r\n    }\r\n    receive() external payable {\r\n        revert(\"Do not send Ether directly to the contract\");\r\n    }\r\n    fallback() external payable {\r\n        revert(\"Do not call the fallback function directly\");\r\n    }\r\n}\r\n",
  "sourcePath": "C:\\Users\\joshu\\OneDrive\\Desktop\\Individual Project\\Smart Contracts\\contracts\\REENTSecure.sol",
  "compiler": {
    "name": "solc",
    "version": "0.8.19+commit.7dd6d404.Emscripten.clang"
  },
  "schemaVersion": "3.4.16",
  "updatedAt": "2024-04-21T20:28:49.186Z",
  "networkType": "ethereum",
  "devdoc": {
    "errors": {
      "ReentrancyGuardReentrantCall()": [
        {
          "details": "Unauthorized reentrant call."
        }
      ]
    },
    "kind": "dev",
    "methods": {},
    "version": 1
  },
  "userdoc": {
    "kind": "user",
    "methods": {},
    "version": 1
  }
}