{
  "contractName": "MyContract",
  "abi": [
    {
      "inputs": [],
      "name": "deposit",
      "outputs": [],
      "stateMutability": "payable",
      "type": "function"
    },
    {
      "inputs": [],
      "name": "withdraw",
      "outputs": [],
      "stateMutability": "nonpayable",
      "type": "function"
    }
  ],
  "bytecode": "0x608060405234801561001057600080fd5b506104c7806100206000396000f3fe6080604052600436106100295760003560e01c80633ccfd60b1461002e578063d0e30db014610045575b600080fd5b34801561003a57600080fd5b5061004361004f565b005b61004d6101c9565b005b60008060003373ffffffffffffffffffffffffffffffffffffffff1673ffffffffffffffffffffffffffffffffffffffff168152602001908152602001600020549050600081116100d5576040517f08c379a00000000000000000000000000000000000000000000000000000000081526004016100cc906102e6565b60405180910390fd5b60003373ffffffffffffffffffffffffffffffffffffffff16826040516100fb90610337565b60006040518083038185875af1925050503d8060008114610138576040519150601f19603f3d011682016040523d82523d6000602084013e61013d565b606091505b5050905080610181576040517f08c379a000000000000000000000000000000000000000000000000000000000815260040161017890610398565b60405180910390fd5b60008060003373ffffffffffffffffffffffffffffffffffffffff1673ffffffffffffffffffffffffffffffffffffffff168152602001908152602001600020819055505050565b6000341161020c576040517f08c379a000000000000000000000000000000000000000000000000000000000815260040161020390610404565b60405180910390fd5b346000803373ffffffffffffffffffffffffffffffffffffffff1673ffffffffffffffffffffffffffffffffffffffff168152602001908152602001600020600082825461025a919061045d565b92505081905550565b600082825260208201905092915050565b7f5573657220747279696e6720746f207769746864726177206d6f72652074686160008201527f6e206465706f7369746564000000000000000000000000000000000000000000602082015250565b60006102d0602b83610263565b91506102db82610274565b604082019050919050565b600060208201905081810360008301526102ff816102c3565b9050919050565b600081905092915050565b50565b6000610321600083610306565b915061032c82610311565b600082019050919050565b600061034282610314565b9150819050919050565b7f53656e6420556e7375636365737366756c000000000000000000000000000000600082015250565b6000610382601183610263565b915061038d8261034c565b602082019050919050565b600060208201905081810360008301526103b181610375565b9050919050565b7f4d757374204465706f73697420416e20457468657265756d20416d6f756e7400600082015250565b60006103ee601f83610263565b91506103f9826103b8565b602082019050919050565b6000602082019050818103600083015261041d816103e1565b9050919050565b6000819050919050565b7f4e487b7100000000000000000000000000000000000000000000000000000000600052601160045260246000fd5b600061046882610424565b915061047383610424565b925082820190508082111561048b5761048a61042e565b5b9291505056fea26469706673582212202e5e04005711b0c5dbd1559e05c285e7bf4fd095fc67a49931f424aa5e06525a64736f6c63430008130033",
  "immutableReferences": {},
  "source": "//SPDX-License-Identifier: UNLICENSED\r\npragma solidity 0.8.19;\r\ncontract MyContract {\r\n    mapping (address => uint256) userBalances; //mapping for balances of users\r\n    function deposit() public payable {\r\n        require(msg.value > 0, \"Must Deposit An Ethereum Amount\"); //greater than 0\r\n        userBalances[msg.sender] += msg.value; //add deposited amount to balance\r\n    }\r\n    function withdraw() public {\r\n        uint256 balance = userBalances[msg.sender]; //rerieve balance\r\n        require(balance > 0, \"User trying to withdraw more than deposited\"); //greater than 0\r\n\r\n        (bool sent, ) = msg.sender.call{value: balance}(\"\"); //send the users current balance\r\n        require(sent, \"Send Unsuccessful\");\r\n        userBalances[msg.sender] = 0; //balace back to 0 after withdrawn\r\n    }\r\n}",
  "sourcePath": "C:\\Users\\joshu\\OneDrive\\Desktop\\Individual Project\\Smart Contracts\\contracts\\REENTVictim.sol",
  "compiler": {
    "name": "solc",
    "version": "0.8.19+commit.7dd6d404.Emscripten.clang"
  },
  "schemaVersion": "3.4.16",
  "updatedAt": "2024-04-22T17:37:36.539Z",
  "devdoc": {
    "kind": "dev",
    "methods": {},
    "version": 1
  },
  "userdoc": {
    "kind": "user",
    "methods": {},
    "version": 1
  }
}