{
  "contractName": "NoAccessControl",
  "abi": [
    {
      "inputs": [
        {
          "internalType": "address",
          "name": "",
          "type": "address"
        }
      ],
      "name": "amount",
      "outputs": [
        {
          "internalType": "uint256",
          "name": "",
          "type": "uint256"
        }
      ],
      "stateMutability": "view",
      "type": "function"
    },
    {
      "inputs": [],
      "name": "deposit",
      "outputs": [],
      "stateMutability": "payable",
      "type": "function"
    },
    {
      "inputs": [
        {
          "internalType": "address",
          "name": "addr",
          "type": "address"
        }
      ],
      "name": "withdraw",
      "outputs": [],
      "stateMutability": "nonpayable",
      "type": "function"
    }
  ],
  "bytecode": "0x608060405234801561001057600080fd5b50610407806100206000396000f3fe6080604052600436106100345760003560e01c806351cff8d914610039578063b9f0bf6614610062578063d0e30db01461009f575b600080fd5b34801561004557600080fd5b50610060600480360381019061005b9190610290565b6100a9565b005b34801561006e57600080fd5b5061008960048036038101906100849190610290565b6101be565b60405161009691906102d6565b60405180910390f35b6100a76101d6565b005b60008060008373ffffffffffffffffffffffffffffffffffffffff1673ffffffffffffffffffffffffffffffffffffffff1681526020019081526020016000205490506000811161012f576040517f08c379a00000000000000000000000000000000000000000000000000000000081526004016101269061034e565b60405180910390fd5b60008060008473ffffffffffffffffffffffffffffffffffffffff1673ffffffffffffffffffffffffffffffffffffffff168152602001908152602001600020819055508173ffffffffffffffffffffffffffffffffffffffff166108fc829081150290604051600060405180830381858888f193505050501580156101b9573d6000803e3d6000fd5b505050565b60006020528060005260406000206000915090505481565b346000803373ffffffffffffffffffffffffffffffffffffffff1673ffffffffffffffffffffffffffffffffffffffff1681526020019081526020016000206000828254610224919061039d565b92505081905550565b600080fd5b600073ffffffffffffffffffffffffffffffffffffffff82169050919050565b600061025d82610232565b9050919050565b61026d81610252565b811461027857600080fd5b50565b60008135905061028a81610264565b92915050565b6000602082840312156102a6576102a561022d565b5b60006102b48482850161027b565b91505092915050565b6000819050919050565b6102d0816102bd565b82525050565b60006020820190506102eb60008301846102c7565b92915050565b600082825260208201905092915050565b7f6e6f206574686572206465706f73697465640000000000000000000000000000600082015250565b60006103386012836102f1565b915061034382610302565b602082019050919050565b600060208201905081810360008301526103678161032b565b9050919050565b7f4e487b7100000000000000000000000000000000000000000000000000000000600052601160045260246000fd5b60006103a8826102bd565b91506103b3836102bd565b92508282019050808211156103cb576103ca61036e565b5b9291505056fea26469706673582212200140819e714e5454bd1c90038ddafcf1fb470a03e74a705c8716a23efb52247664736f6c63430008130033",
  "immutableReferences": {},
  "source": "// SPDX-License-Identifier: UNLICENSED\r\npragma solidity 0.8.19;\r\n\r\ncontract NoAccessControl {\r\n    mapping(address => uint256) public amount; //store deposited amounts\r\n\r\n    function deposit() public payable {\r\n        amount[msg.sender] += msg.value; //add funds deposited to user balance\r\n    }\r\n\r\n    function withdraw(address addr) public {\r\n        uint256 balance = amount[addr]; //get balance of address intended\r\n        require(balance > 0, \"no ether deposited\"); //need to deposit some Ether\r\n        amount[addr] = 0; //set balance to 0\r\n        payable(addr).transfer(balance); //transfer balance to adress deposited\r\n    }\r\n}",
  "sourcePath": "C:\\Users\\joshu\\OneDrive\\Desktop\\Individual Project\\Smart Contracts\\contracts\\MissingAccess.sol",
  "compiler": {
    "name": "solc",
    "version": "0.8.19+commit.7dd6d404.Emscripten.clang"
  },
  "schemaVersion": "3.4.16",
  "updatedAt": "2024-04-22T17:37:36.532Z",
  "devdoc": {
    "kind": "dev",
    "methods": {},
    "version": 1
  },
  "userdoc": {
    "kind": "user",
    "methods": {},
    "version": 1
  }
}