{
  "contractName": "NoAccessControlSecure",
  "abi": [
    {
      "inputs": [],
      "stateMutability": "nonpayable",
      "type": "constructor"
    },
    {
      "inputs": [
        {
          "internalType": "address",
          "name": "owner",
          "type": "address"
        }
      ],
      "name": "OwnableInvalidOwner",
      "type": "error"
    },
    {
      "inputs": [
        {
          "internalType": "address",
          "name": "account",
          "type": "address"
        }
      ],
      "name": "OwnableUnauthorizedAccount",
      "type": "error"
    },
    {
      "anonymous": false,
      "inputs": [
        {
          "indexed": true,
          "internalType": "address",
          "name": "depositor",
          "type": "address"
        },
        {
          "indexed": false,
          "internalType": "uint256",
          "name": "amount",
          "type": "uint256"
        }
      ],
      "name": "EtherDeposited",
      "type": "event"
    },
    {
      "anonymous": false,
      "inputs": [
        {
          "indexed": true,
          "internalType": "address",
          "name": "recipient",
          "type": "address"
        },
        {
          "indexed": false,
          "internalType": "uint256",
          "name": "amount",
          "type": "uint256"
        }
      ],
      "name": "EtherWithdrawn",
      "type": "event"
    },
    {
      "anonymous": false,
      "inputs": [
        {
          "indexed": true,
          "internalType": "address",
          "name": "previousOwner",
          "type": "address"
        },
        {
          "indexed": true,
          "internalType": "address",
          "name": "newOwner",
          "type": "address"
        }
      ],
      "name": "OwnershipTransferred",
      "type": "event"
    },
    {
      "anonymous": false,
      "inputs": [
        {
          "indexed": false,
          "internalType": "uint256",
          "name": "newLimit",
          "type": "uint256"
        }
      ],
      "name": "WithdrawalLimitModification",
      "type": "event"
    },
    {
      "inputs": [],
      "name": "owner",
      "outputs": [
        {
          "internalType": "address",
          "name": "",
          "type": "address"
        }
      ],
      "stateMutability": "view",
      "type": "function",
      "constant": true
    },
    {
      "inputs": [],
      "name": "renounceOwnership",
      "outputs": [],
      "stateMutability": "nonpayable",
      "type": "function"
    },
    {
      "inputs": [
        {
          "internalType": "address",
          "name": "newOwner",
          "type": "address"
        }
      ],
      "name": "transferOwnership",
      "outputs": [],
      "stateMutability": "nonpayable",
      "type": "function"
    },
    {
      "inputs": [],
      "name": "deposit",
      "outputs": [],
      "stateMutability": "payable",
      "type": "function",
      "payable": true
    },
    {
      "inputs": [],
      "name": "withdraw",
      "outputs": [],
      "stateMutability": "nonpayable",
      "type": "function"
    },
    {
      "inputs": [
        {
          "internalType": "uint256",
          "name": "newLimit",
          "type": "uint256"
        }
      ],
      "name": "setWithdrawalLimit",
      "outputs": [],
      "stateMutability": "nonpayable",
      "type": "function"
    },
    {
      "inputs": [
        {
          "internalType": "address",
          "name": "addr",
          "type": "address"
        }
      ],
      "name": "getBalance",
      "outputs": [
        {
          "internalType": "uint256",
          "name": "",
          "type": "uint256"
        }
      ],
      "stateMutability": "view",
      "type": "function",
      "constant": true
    }
  ],
  "bytecode": "0x6080604052674563918244f4000060025534801561001c57600080fd5b5033600073ffffffffffffffffffffffffffffffffffffffff168173ffffffffffffffffffffffffffffffffffffffff16036100905760006040517f1e4fbdf700000000000000000000000000000000000000000000000000000000815260040161008791906101aa565b60405180910390fd5b61009f816100a560201b60201c565b506101c5565b60008060009054906101000a900473ffffffffffffffffffffffffffffffffffffffff169050816000806101000a81548173ffffffffffffffffffffffffffffffffffffffff021916908373ffffffffffffffffffffffffffffffffffffffff1602179055508173ffffffffffffffffffffffffffffffffffffffff168173ffffffffffffffffffffffffffffffffffffffff167f8be0079c531659141344cd1fd0a4f28419497f9722a3daafe3b4186f6b6457e060405160405180910390a35050565b600073ffffffffffffffffffffffffffffffffffffffff82169050919050565b600061019482610169565b9050919050565b6101a481610189565b82525050565b60006020820190506101bf600083018461019b565b92915050565b610aed806101d46000396000f3fe6080604052600436106100705760003560e01c80638da5cb5b1161004e5780638da5cb5b146100cc578063d0e30db0146100f7578063f2fde38b14610101578063f8b2cb4f1461012a57610070565b80633ccfd60b146100755780635a0768ce1461008c578063715018a6146100b5575b600080fd5b34801561008157600080fd5b5061008a610167565b005b34801561009857600080fd5b506100b360048036038101906100ae91906107f3565b6103bd565b005b3480156100c157600080fd5b506100ca610406565b005b3480156100d857600080fd5b506100e161041a565b6040516100ee9190610861565b60405180910390f35b6100ff610443565b005b34801561010d57600080fd5b50610128600480360381019061012391906108a8565b610596565b005b34801561013657600080fd5b50610151600480360381019061014c91906108a8565b61061c565b60405161015e91906108e4565b60405180910390f35b3361017061041a565b73ffffffffffffffffffffffffffffffffffffffff163373ffffffffffffffffffffffffffffffffffffffff1614806101d457508073ffffffffffffffffffffffffffffffffffffffff163373ffffffffffffffffffffffffffffffffffffffff16145b610213576040517f08c379a000000000000000000000000000000000000000000000000000000000815260040161020a9061095c565b60405180910390fd5b6000600160003373ffffffffffffffffffffffffffffffffffffffff1673ffffffffffffffffffffffffffffffffffffffff1681526020019081526020016000205490506000811161029a576040517f08c379a0000000000000000000000000000000000000000000000000000000008152600401610291906109c8565b60405180910390fd5b6002548111156102df576040517f08c379a00000000000000000000000000000000000000000000000000000000081526004016102d690610a34565b60405180910390fd5b6000600160003373ffffffffffffffffffffffffffffffffffffffff1673ffffffffffffffffffffffffffffffffffffffff168152602001908152602001600020819055503373ffffffffffffffffffffffffffffffffffffffff166108fc829081150290604051600060405180830381858888f1935050505015801561036a573d6000803e3d6000fd5b503373ffffffffffffffffffffffffffffffffffffffff167f06097061aeda806b5e9cb4133d9899f332ff0913956567fc0f7ea15e3d19947c826040516103b191906108e4565b60405180910390a25050565b6103c5610665565b806002819055507fe9389284bfed8918f422b2386db6c377246eaf84a312c4ff5169fe076b484cdc816040516103fb91906108e4565b60405180910390a150565b61040e610665565b61041860006106ec565b565b60008060009054906101000a900473ffffffffffffffffffffffffffffffffffffffff16905090565b3361044c61041a565b73ffffffffffffffffffffffffffffffffffffffff163373ffffffffffffffffffffffffffffffffffffffff1614806104b057508073ffffffffffffffffffffffffffffffffffffffff163373ffffffffffffffffffffffffffffffffffffffff16145b6104ef576040517f08c379a00000000000000000000000000000000000000000000000000000000081526004016104e69061095c565b60405180910390fd5b34600160003373ffffffffffffffffffffffffffffffffffffffff1673ffffffffffffffffffffffffffffffffffffffff168152602001908152602001600020600082825461053e9190610a83565b925050819055503373ffffffffffffffffffffffffffffffffffffffff167f939e51ac2fd009b158d6344f7e68a83d8d18d9b0cc88cf514aac6aaa9cad2a183460405161058b91906108e4565b60405180910390a250565b61059e610665565b600073ffffffffffffffffffffffffffffffffffffffff168173ffffffffffffffffffffffffffffffffffffffff16036106105760006040517f1e4fbdf70000000000000000000000000000000000000000000000000000000081526004016106079190610861565b60405180910390fd5b610619816106ec565b50565b6000600160008373ffffffffffffffffffffffffffffffffffffffff1673ffffffffffffffffffffffffffffffffffffffff168152602001908152602001600020549050919050565b61066d6107b0565b73ffffffffffffffffffffffffffffffffffffffff1661068b61041a565b73ffffffffffffffffffffffffffffffffffffffff16146106ea576106ae6107b0565b6040517f118cdaa70000000000000000000000000000000000000000000000000000000081526004016106e19190610861565b60405180910390fd5b565b60008060009054906101000a900473ffffffffffffffffffffffffffffffffffffffff169050816000806101000a81548173ffffffffffffffffffffffffffffffffffffffff021916908373ffffffffffffffffffffffffffffffffffffffff1602179055508173ffffffffffffffffffffffffffffffffffffffff168173ffffffffffffffffffffffffffffffffffffffff167f8be0079c531659141344cd1fd0a4f28419497f9722a3daafe3b4186f6b6457e060405160405180910390a35050565b600033905090565b600080fd5b6000819050919050565b6107d0816107bd565b81146107db57600080fd5b50565b6000813590506107ed816107c7565b92915050565b600060208284031215610809576108086107b8565b5b6000610817848285016107de565b91505092915050565b600073ffffffffffffffffffffffffffffffffffffffff82169050919050565b600061084b82610820565b9050919050565b61085b81610840565b82525050565b60006020820190506108766000830184610852565b92915050565b61088581610840565b811461089057600080fd5b50565b6000813590506108a28161087c565b92915050565b6000602082840312156108be576108bd6107b8565b5b60006108cc84828501610893565b91505092915050565b6108de816107bd565b82525050565b60006020820190506108f960008301846108d5565b92915050565b600082825260208201905092915050565b7f616363657373206973206e6f7420617574686f72697365640000000000000000600082015250565b60006109466018836108ff565b915061095182610910565b602082019050919050565b6000602082019050818103600083015261097581610939565b9050919050565b7f4e6f206574686572206465706f73697465640000000000000000000000000000600082015250565b60006109b26012836108ff565b91506109bd8261097c565b602082019050919050565b600060208201905081810360008301526109e1816109a5565b9050919050565b7f5769746864726177616c20616d6f756e742065786365656473206c696d697400600082015250565b6000610a1e601f836108ff565b9150610a29826109e8565b602082019050919050565b60006020820190508181036000830152610a4d81610a11565b9050919050565b7f4e487b7100000000000000000000000000000000000000000000000000000000600052601160045260246000fd5b6000610a8e826107bd565b9150610a99836107bd565b9250828201905080821115610ab157610ab0610a54565b5b9291505056fea2646970667358221220fe2734497c276165ab9f573a6fa5848e9c6dc8eb044da2d82aed85a0288f0b3264736f6c63430008130033",
  "immutableReferences": {},
  "source": "// SPDX-License-Identifier: UNLICENSED\r\npragma solidity 0.8.19;\r\nimport \"@openzeppelin/contracts/access/Ownable.sol\";\r\ncontract NoAccessControlSecure is Ownable {\r\n    mapping(address => uint256) private amount;\r\n    uint256 private maxWithdrawal = 5 ether;\r\n    event EtherDeposited(address indexed depositor, uint256 amount);\r\n    event EtherWithdrawn(address indexed recipient, uint256 amount);\r\n    event WithdrawalLimitModification(uint256 newLimit);\r\n    constructor() Ownable(msg.sender) {}\r\n    modifier onlyAuthorized(address account) {\r\n        require(msg.sender == owner() || msg.sender == account, \"access is not authorised\");\r\n        _;\r\n    }\r\n    function deposit() public payable onlyAuthorized(msg.sender) {\r\n        amount[msg.sender] += msg.value;\r\n        emit EtherDeposited(msg.sender, msg.value);\r\n    }\r\n   function withdraw() public onlyAuthorized(msg.sender) {\r\n        uint256 balance = amount[msg.sender];\r\n        require(balance > 0, \"No ether deposited\");\r\n        require(balance <= maxWithdrawal, \"Withdrawal amount exceeds limit\");\r\n        amount[msg.sender] = 0;\r\n        payable(msg.sender).transfer(balance);\r\n        emit EtherWithdrawn(msg.sender, balance);\r\n    }\r\n    function setWithdrawalLimit(uint256 newLimit) public onlyOwner {\r\n        maxWithdrawal = newLimit;\r\n        emit WithdrawalLimitModification(newLimit);\r\n    }\r\n    function getBalance(address addr) public view returns (uint256) {\r\n        return amount[addr];\r\n    }\r\n}",
  "sourcePath": "C:\\Users\\joshu\\OneDrive\\Desktop\\Individual Project\\Smart Contracts\\contracts\\MissingAccessSecure.sol",
  "compiler": {
    "name": "solc",
    "version": "0.8.19+commit.7dd6d404.Emscripten.clang"
  },
  "schemaVersion": "3.4.16",
  "updatedAt": "2024-04-07T21:23:09.833Z",
  "networkType": "ethereum",
  "devdoc": {
    "errors": {
      "OwnableInvalidOwner(address)": [
        {
          "details": "The owner is not a valid owner account. (eg. `address(0)`)"
        }
      ],
      "OwnableUnauthorizedAccount(address)": [
        {
          "details": "The caller account is not authorized to perform an operation."
        }
      ]
    },
    "kind": "dev",
    "methods": {
      "owner()": {
        "details": "Returns the address of the current owner."
      },
      "renounceOwnership()": {
        "details": "Leaves the contract without owner. It will not be possible to call `onlyOwner` functions. Can only be called by the current owner. NOTE: Renouncing ownership will leave the contract without an owner, thereby disabling any functionality that is only available to the owner."
      },
      "transferOwnership(address)": {
        "details": "Transfers ownership of the contract to a new account (`newOwner`). Can only be called by the current owner."
      }
    },
    "version": 1
  },
  "userdoc": {
    "kind": "user",
    "methods": {},
    "version": 1
  }
}