{
  "contractName": "RandomnessAttack",
  "abi": [
    {
      "inputs": [
        {
          "internalType": "contract InsecureRandomness",
          "name": "_vulnerableContract",
          "type": "address"
        }
      ],
      "stateMutability": "nonpayable",
      "type": "constructor"
    },
    {
      "inputs": [],
      "name": "vulnerableContract",
      "outputs": [
        {
          "internalType": "contract InsecureRandomness",
          "name": "",
          "type": "address"
        }
      ],
      "stateMutability": "view",
      "type": "function"
    },
    {
      "inputs": [],
      "name": "attack",
      "outputs": [],
      "stateMutability": "nonpayable",
      "type": "function"
    },
    {
      "inputs": [],
      "name": "getRandomNumber",
      "outputs": [
        {
          "internalType": "uint256",
          "name": "",
          "type": "uint256"
        }
      ],
      "stateMutability": "view",
      "type": "function"
    }
  ],
  "bytecode": "0x608060405234801561001057600080fd5b50604051610454380380610454833981810160405281019061003291906100ed565b806000806101000a81548173ffffffffffffffffffffffffffffffffffffffff021916908373ffffffffffffffffffffffffffffffffffffffff1602179055505061011a565b600080fd5b600073ffffffffffffffffffffffffffffffffffffffff82169050919050565b60006100a88261007d565b9050919050565b60006100ba8261009d565b9050919050565b6100ca816100af565b81146100d557600080fd5b50565b6000815190506100e7816100c1565b92915050565b60006020828403121561010357610102610078565b5b6000610111848285016100d8565b91505092915050565b61032b806101296000396000f3fe608060405234801561001057600080fd5b50600436106100415760003560e01c8063144166ae146100465780639e5faafc14610064578063dbdff2c11461006e575b600080fd5b61004e61008c565b60405161005b9190610248565b60405180910390f35b61006c6100b0565b005b610076610132565b604051610083919061027c565b60405180910390f35b60008054906101000a900473ffffffffffffffffffffffffffffffffffffffff1681565b60008054906101000a900473ffffffffffffffffffffffffffffffffffffffff1673ffffffffffffffffffffffffffffffffffffffff1663d69052156040518163ffffffff1660e01b8152600401600060405180830381600087803b15801561011857600080fd5b505af115801561012c573d6000803e3d6000fd5b50505050565b60008060009054906101000a900473ffffffffffffffffffffffffffffffffffffffff1673ffffffffffffffffffffffffffffffffffffffff1663ccbac9f56040518163ffffffff1660e01b8152600401602060405180830381865afa1580156101a0573d6000803e3d6000fd5b505050506040513d601f19601f820116820180604052508101906101c491906102c8565b905090565b600073ffffffffffffffffffffffffffffffffffffffff82169050919050565b6000819050919050565b600061020e610209610204846101c9565b6101e9565b6101c9565b9050919050565b6000610220826101f3565b9050919050565b600061023282610215565b9050919050565b61024281610227565b82525050565b600060208201905061025d6000830184610239565b92915050565b6000819050919050565b61027681610263565b82525050565b6000602082019050610291600083018461026d565b92915050565b600080fd5b6102a581610263565b81146102b057600080fd5b50565b6000815190506102c28161029c565b92915050565b6000602082840312156102de576102dd610297565b5b60006102ec848285016102b3565b9150509291505056fea26469706673582212204ac37a9a3c99718bffb40c62728da594aa210eb4ac2a3118635185e101fa214864736f6c63430008130033",
  "immutableReferences": {},
  "source": "// SPDX-License-Identifier: UNLICENSED\r\n\r\npragma solidity ^0.8.19;\r\n\r\ncontract InsecureRandomness {\r\n\r\n    uint256 public randomNumber; //for storage of generated number\r\n    function randomNumberGeneration() public { \r\n        uint256 blockNumber = block.number - 1; //retain previous block number\r\n        uint256 blockHash = uint256(blockhash(blockNumber)); //retains previous block hash\r\n        randomNumber = blockHash % 100; //genrate random integer with block hash modulus (100)\r\n    }\r\n}\r\n\r\ncontract RandomnessAttack {\r\n\r\n    InsecureRandomness public vulnerableContract; \r\n    constructor(InsecureRandomness _vulnerableContract) { //uses vulnerable address for attack\r\n        vulnerableContract = _vulnerableContract;\r\n    }\r\n\r\n    function attack() public {\r\n        vulnerableContract.randomNumberGeneration(); //calling randomNumberGeneration function\r\n    }\r\n\r\n    function getRandomNumber() public view returns (uint256) {\r\n        return vulnerableContract.randomNumber(); //return random number\r\n    }\r\n}",
  "sourcePath": "C:\\Users\\joshu\\OneDrive\\Desktop\\Individual Project\\Smart Contracts\\contracts\\InsecureRandomness.sol",
  "compiler": {
    "name": "solc",
    "version": "0.8.19+commit.7dd6d404.Emscripten.clang"
  },
  "schemaVersion": "3.4.16",
  "updatedAt": "2024-04-22T17:37:36.509Z",
  "devdoc": {
    "kind": "dev",
    "methods": {},
    "version": 1
  },
  "userdoc": {
    "kind": "user",
    "methods": {},
    "version": 1
  }
}