{
  "contractName": "ReentrancyXExternalCallDEX",
  "abi": [
    {
      "inputs": [
        {
          "internalType": "address",
          "name": "",
          "type": "address"
        }
      ],
      "name": "balances",
      "outputs": [
        {
          "internalType": "uint256",
          "name": "",
          "type": "uint256"
        }
      ],
      "stateMutability": "view",
      "type": "function"
    },
    {
      "stateMutability": "payable",
      "type": "receive"
    },
    {
      "inputs": [],
      "name": "deposit",
      "outputs": [],
      "stateMutability": "payable",
      "type": "function"
    },
    {
      "inputs": [],
      "name": "withdraw",
      "outputs": [],
      "stateMutability": "nonpayable",
      "type": "function"
    },
    {
      "inputs": [],
      "name": "executeCheckedExternalCallWithModifier",
      "outputs": [],
      "stateMutability": "payable",
      "type": "function"
    }
  ],
  "bytecode": "0x608060405234801561001057600080fd5b50610657806100206000396000f3fe6080604052600436106100435760003560e01c806327e235e3146100575780633ccfd60b14610094578063d0e30db0146100ab578063d8ed0f4f146100b557610052565b36610052576100506100bf565b005b600080fd5b34801561006357600080fd5b5061007e600480360381019061007991906103c2565b610116565b60405161008b9190610408565b60405180910390f35b3480156100a057600080fd5b506100a961012e565b005b6100b36100bf565b005b6100bd6102a8565b005b346000803373ffffffffffffffffffffffffffffffffffffffff1673ffffffffffffffffffffffffffffffffffffffff168152602001908152602001600020600082825461010d9190610452565b92505081905550565b60006020528060005260406000206000915090505481565b60008060003373ffffffffffffffffffffffffffffffffffffffff1673ffffffffffffffffffffffffffffffffffffffff168152602001908152602001600020549050600081116101b4576040517f08c379a00000000000000000000000000000000000000000000000000000000081526004016101ab906104e3565b60405180910390fd5b60003373ffffffffffffffffffffffffffffffffffffffff16826040516101da90610534565b60006040518083038185875af1925050503d8060008114610217576040519150601f19603f3d011682016040523d82523d6000602084013e61021c565b606091505b5050905080610260576040517f08c379a000000000000000000000000000000000000000000000000000000000815260040161025790610595565b60405180910390fd5b60008060003373ffffffffffffffffffffffffffffffffffffffff1673ffffffffffffffffffffffffffffffffffffffff168152602001908152602001600020819055505050565b6102b06100bf565b60003373ffffffffffffffffffffffffffffffffffffffff16346040516102d690610534565b60006040518083038185875af1925050503d8060008114610313576040519150601f19603f3d011682016040523d82523d6000602084013e610318565b606091505b505090508061035c576040517f08c379a000000000000000000000000000000000000000000000000000000000815260040161035390610601565b60405180910390fd5b50565b600080fd5b600073ffffffffffffffffffffffffffffffffffffffff82169050919050565b600061038f82610364565b9050919050565b61039f81610384565b81146103aa57600080fd5b50565b6000813590506103bc81610396565b92915050565b6000602082840312156103d8576103d761035f565b5b60006103e6848285016103ad565b91505092915050565b6000819050919050565b610402816103ef565b82525050565b600060208201905061041d60008301846103f9565b92915050565b7f4e487b7100000000000000000000000000000000000000000000000000000000600052601160045260246000fd5b600061045d826103ef565b9150610468836103ef565b92508282019050808211156104805761047f610423565b5b92915050565b600082825260208201905092915050565b7f496e73756666696369656e742062616c616e6365000000000000000000000000600082015250565b60006104cd601483610486565b91506104d882610497565b602082019050919050565b600060208201905081810360008301526104fc816104c0565b9050919050565b600081905092915050565b50565b600061051e600083610503565b91506105298261050e565b600082019050919050565b600061053f82610511565b9150819050919050565b7f4661696c656420746f2077697468647261770000000000000000000000000000600082015250565b600061057f601283610486565b915061058a82610549565b602082019050919050565b600060208201905081810360008301526105ae81610572565b9050919050565b7f4661696c656420746f20657865637574652065787465726e616c2063616c6c00600082015250565b60006105eb601f83610486565b91506105f6826105b5565b602082019050919050565b6000602082019050818103600083015261061a816105de565b905091905056fea26469706673582212200f1e95bbc777d8ffb32ca17e7c31ebfb7f1d114bb4164542d883dcc41354efea64736f6c63430008130033",
  "immutableReferences": {},
  "source": "pragma solidity ^0.8.0;\r\n\r\nimport \"@openzeppelin/contracts/utils/Address.sol\";\r\n\r\ncontract ReentrancyXExternalCallDEX {\r\n    using Address for address payable;\r\n\r\n    mapping(address => uint256) public balances;\r\n\r\n    function deposit() public payable {\r\n        balances[msg.sender] += msg.value;\r\n    }\r\n\r\n    function withdraw() public {\r\n        uint256 amount = balances[msg.sender];\r\n        require(amount > 0, \"Insufficient balance\");\r\n        (bool success, ) = msg.sender.call{value: amount}(\"\");\r\n        require(success, \"Failed to withdraw\");\r\n        balances[msg.sender] = 0;\r\n    }\r\n\r\n    function executeCheckedExternalCallWithModifier() public payable {\r\n        deposit();\r\n        (bool success, ) = msg.sender.call{value: msg.value}(\"\");\r\n        require(success, \"Failed to execute external call\");\r\n    }\r\n\r\n    receive() external payable {\r\n        deposit();\r\n    }\r\n}",
  "sourcePath": "C:\\Users\\joshu\\OneDrive\\Desktop\\Uni Work 2023-24\\Individual Project\\Smart Contracts\\contracts\\ReentrancyXExternalCallDEX.sol",
  "compiler": {
    "name": "solc",
    "version": "0.8.19+commit.7dd6d404.Emscripten.clang"
  },
  "schemaVersion": "3.4.16",
  "updatedAt": "2024-02-11T14:12:51.092Z",
  "devdoc": {
    "kind": "dev",
    "methods": {},
    "version": 1
  },
  "userdoc": {
    "kind": "user",
    "methods": {},
    "version": 1
  }
}