{
  "contractName": "ReentrantContract",
  "abi": [
    {
      "inputs": [
        {
          "internalType": "address",
          "name": "_myToken",
          "type": "address"
        }
      ],
      "stateMutability": "nonpayable",
      "type": "constructor"
    },
    {
      "inputs": [],
      "name": "myToken",
      "outputs": [
        {
          "internalType": "contract IERC20",
          "name": "",
          "type": "address"
        }
      ],
      "stateMutability": "view",
      "type": "function",
      "constant": true
    },
    {
      "inputs": [
        {
          "internalType": "uint256",
          "name": "amount",
          "type": "uint256"
        }
      ],
      "name": "callDeposit",
      "outputs": [],
      "stateMutability": "nonpayable",
      "type": "function"
    }
  ],
  "bytecode": "0x608060405234801561001057600080fd5b5060405161034c38038061034c833981810160405281019061003291906100db565b806000806101000a81548173ffffffffffffffffffffffffffffffffffffffff021916908373ffffffffffffffffffffffffffffffffffffffff16021790555050610108565b600080fd5b600073ffffffffffffffffffffffffffffffffffffffff82169050919050565b60006100a88261007d565b9050919050565b6100b88161009d565b81146100c357600080fd5b50565b6000815190506100d5816100af565b92915050565b6000602082840312156100f1576100f0610078565b5b60006100ff848285016100c6565b91505092915050565b610235806101176000396000f3fe608060405234801561001057600080fd5b50600436106100365760003560e01c8063a5627d321461003b578063b8fcf93714610057575b600080fd5b61005560048036038101906100509190610138565b610075565b005b61005f6100d9565b60405161006c91906101e4565b60405180910390f35b3373ffffffffffffffffffffffffffffffffffffffff1663d0e30db0826040518263ffffffff1660e01b81526004016000604051808303818588803b1580156100bd57600080fd5b505af11580156100d1573d6000803e3d6000fd5b505050505050565b60008054906101000a900473ffffffffffffffffffffffffffffffffffffffff1681565b600080fd5b6000819050919050565b61011581610102565b811461012057600080fd5b50565b6000813590506101328161010c565b92915050565b60006020828403121561014e5761014d6100fd565b5b600061015c84828501610123565b91505092915050565b600073ffffffffffffffffffffffffffffffffffffffff82169050919050565b6000819050919050565b60006101aa6101a56101a084610165565b610185565b610165565b9050919050565b60006101bc8261018f565b9050919050565b60006101ce826101b1565b9050919050565b6101de816101c3565b82525050565b60006020820190506101f960008301846101d5565b9291505056fea2646970667358221220bcc59cbd13405fe131d30a45a3572ce8373b69ce8ec4d5034d05fce1fc22720364736f6c63430008130033",
  "immutableReferences": {},
  "source": "// SPDX-License-Identifier: MIT\r\npragma solidity ^0.8.0;\r\n\r\nimport \"@openzeppelin/contracts/token/ERC20/IERC20.sol\";\r\nimport \"@openzeppelin/contracts/access/Ownable.sol\";\r\n\r\ncontract SimpleDEX is Ownable {\r\n    IERC20 public myToken;\r\n    mapping(address => uint256) public balances;\r\n\r\n    event Deposit(address indexed account, uint256 amount);\r\n    event Withdraw(address indexed account, uint256 amount);\r\n\r\n    // Additional event for ReentrantContract\r\n    event ReentrantCall(address indexed account, uint256 amount);\r\n\r\n    constructor(address _myToken, address _owner) Ownable(_owner) {\r\n        myToken = IERC20(_myToken);\r\n    }\r\n\r\n    function deposit() external payable {\r\n        require(myToken.transferFrom(msg.sender, address(this), msg.value), \"Transfer failed\");\r\n        balances[msg.sender] += msg.value;\r\n        emit Deposit(msg.sender, msg.value);\r\n\r\n        // Introduce an unchecked external call vulnerability by calling an external contract\r\n        // This is for educational purposes only; avoid using such patterns in production.\r\n        ReentrantContract(msg.sender).callDeposit(msg.value);\r\n\r\n        // Emit an event to indicate the reentrant call\r\n        emit ReentrantCall(msg.sender, msg.value);\r\n    }\r\n\r\n    function withdraw(uint256 amount) external {\r\n        require(balances[msg.sender] >= amount, \"Insufficient balance\");\r\n        balances[msg.sender] -= amount;\r\n        myToken.transfer(msg.sender, amount);\r\n        emit Withdraw(msg.sender, amount);\r\n    }\r\n}\r\n\r\n// Additional contract for ReentrantContract\r\ncontract ReentrantContract {\r\n    IERC20 public myToken;\r\n\r\n    constructor(address _myToken) {\r\n        myToken = IERC20(_myToken);\r\n    }\r\n\r\n    function callDeposit(uint256 amount) external {\r\n        // Simulate some logic in the external contract that may reenter\r\n        // For example, let's reenter the calling contract's deposit function\r\n        SimpleDEX(msg.sender).deposit{value: amount}();\r\n\r\n        // Perform other logic if needed (this part will execute after the reentrancy)\r\n        // ...\r\n    }\r\n}\r\n",
  "sourcePath": "C:\\Users\\joshu\\OneDrive\\Desktop\\Uni Work 2023-24\\Individual Project\\Smart Contracts\\contracts\\ReentrancyXExternalCallDEX.sol",
  "compiler": {
    "name": "solc",
    "version": "0.8.19+commit.7dd6d404.Emscripten.clang"
  },
  "schemaVersion": "3.4.16",
  "updatedAt": "2024-02-09T15:40:25.762Z",
  "networkType": "ethereum",
  "devdoc": {
    "kind": "dev",
    "methods": {},
    "version": 1
  },
  "userdoc": {
    "kind": "user",
    "methods": {},
    "version": 1
  }
}