{
  "contractName": "Reentrancy",
  "abi": [
    {
      "inputs": [
        {
          "internalType": "address",
          "name": "",
          "type": "address"
        }
      ],
      "name": "balances",
      "outputs": [
        {
          "internalType": "uint256",
          "name": "",
          "type": "uint256"
        }
      ],
      "stateMutability": "view",
      "type": "function",
      "constant": true
    },
    {
      "inputs": [],
      "name": "deposit",
      "outputs": [],
      "stateMutability": "payable",
      "type": "function",
      "payable": true
    },
    {
      "inputs": [
        {
          "internalType": "uint256",
          "name": "amount",
          "type": "uint256"
        }
      ],
      "name": "withdraw",
      "outputs": [],
      "stateMutability": "nonpayable",
      "type": "function"
    },
    {
      "inputs": [
        {
          "internalType": "address payable",
          "name": "target",
          "type": "address"
        },
        {
          "internalType": "uint256",
          "name": "amount",
          "type": "uint256"
        }
      ],
      "name": "attack",
      "outputs": [],
      "stateMutability": "nonpayable",
      "type": "function"
    }
  ],
  "bytecode": "0x608060405234801561001057600080fd5b506106eb806100206000396000f3fe60806040526004361061003f5760003560e01c806327e235e3146100445780632e1a7d4d1461008157806352fba25c146100aa578063d0e30db0146100d3575b600080fd5b34801561005057600080fd5b5061006b600480360381019061006691906103b7565b6100dd565b60405161007891906103fd565b60405180910390f35b34801561008d57600080fd5b506100a860048036038101906100a39190610444565b6100f5565b005b3480156100b657600080fd5b506100d160048036038101906100cc91906104af565b610215565b005b6100db6102c6565b005b60006020528060005260406000206000915090505481565b806000803373ffffffffffffffffffffffffffffffffffffffff1673ffffffffffffffffffffffffffffffffffffffff168152602001908152602001600020541015610176576040517f08c379a000000000000000000000000000000000000000000000000000000000815260040161016d9061054c565b60405180910390fd5b3373ffffffffffffffffffffffffffffffffffffffff166108fc829081150290604051600060405180830381858888f193505050501580156101bc573d6000803e3d6000fd5b50806000803373ffffffffffffffffffffffffffffffffffffffff1673ffffffffffffffffffffffffffffffffffffffff168152602001908152602001600020600082825461020b919061059b565b9250508190555050565b60008273ffffffffffffffffffffffffffffffffffffffff168260405161023b90610600565b60006040518083038185875af1925050503d8060008114610278576040519150601f19603f3d011682016040523d82523d6000602084013e61027d565b606091505b50509050806102c1576040517f08c379a00000000000000000000000000000000000000000000000000000000081526004016102b890610661565b60405180910390fd5b505050565b346000803373ffffffffffffffffffffffffffffffffffffffff1673ffffffffffffffffffffffffffffffffffffffff168152602001908152602001600020546103109190610681565b6000803373ffffffffffffffffffffffffffffffffffffffff1673ffffffffffffffffffffffffffffffffffffffff16815260200190815260200160002081905550565b600080fd5b600073ffffffffffffffffffffffffffffffffffffffff82169050919050565b600061038482610359565b9050919050565b61039481610379565b811461039f57600080fd5b50565b6000813590506103b18161038b565b92915050565b6000602082840312156103cd576103cc610354565b5b60006103db848285016103a2565b91505092915050565b6000819050919050565b6103f7816103e4565b82525050565b600060208201905061041260008301846103ee565b92915050565b610421816103e4565b811461042c57600080fd5b50565b60008135905061043e81610418565b92915050565b60006020828403121561045a57610459610354565b5b60006104688482850161042f565b91505092915050565b600061047c82610359565b9050919050565b61048c81610471565b811461049757600080fd5b50565b6000813590506104a981610483565b92915050565b600080604083850312156104c6576104c5610354565b5b60006104d48582860161049a565b92505060206104e58582860161042f565b9150509250929050565b600082825260208201905092915050565b7f496e73756666696369656e742062616c616e6365000000000000000000000000600082015250565b60006105366014836104ef565b915061054182610500565b602082019050919050565b6000602082019050818103600083015261056581610529565b9050919050565b7f4e487b7100000000000000000000000000000000000000000000000000000000600052601160045260246000fd5b60006105a6826103e4565b91506105b1836103e4565b92508282039050818111156105c9576105c861056c565b5b92915050565b600081905092915050565b50565b60006105ea6000836105cf565b91506105f5826105da565b600082019050919050565b600061060b826105dd565b9150819050919050565b7f5472616e73666572206661696c65640000000000000000000000000000000000600082015250565b600061064b600f836104ef565b915061065682610615565b602082019050919050565b6000602082019050818103600083015261067a8161063e565b9050919050565b600061068c826103e4565b9150610697836103e4565b92508282019050808211156106af576106ae61056c565b5b9291505056fea2646970667358221220f1dfacd5028ac43e8c63bcc3673d3f34156facb7e4716d3c58ce44289783775c64736f6c63430008130033",
  "immutableReferences": {},
  "source": "// SPDX-License-Identifier: UNLICENSED\r\npragma solidity ^0.8.0;\r\n\r\ncontract Reentrancy {\r\n    mapping(address => uint256) public balances;\r\n\r\n    function deposit() public payable {\r\n        balances[msg.sender] = balances[msg.sender] + msg.value;\r\n    }\r\n\r\n    function withdraw(uint256 amount) public {\r\n        require(balances[msg.sender] >= amount, \"Insufficient balance\");\r\n        payable(msg.sender).transfer(amount); // Change (msg.sender) to (payable(msg.sender))\r\n        balances[msg.sender] -= amount;\r\n    }\r\n\r\n    function attack(address payable target, uint256 amount) public {\r\n    (bool success, ) = target.call{value: amount}(\"\");\r\n    require(success, \"Transfer failed\");\r\n}\r\n}",
  "sourcePath": "C:\\Users\\joshu\\OneDrive\\Desktop\\Uni Work 2023-24\\Individual Project\\Smart Contracts\\contracts\\REEnt.sol",
  "compiler": {
    "name": "solc",
    "version": "0.8.19+commit.7dd6d404.Emscripten.clang"
  },
  "schemaVersion": "3.4.16",
  "updatedAt": "2024-02-11T15:34:55.710Z",
  "networkType": "ethereum",
  "devdoc": {
    "kind": "dev",
    "methods": {},
    "version": 1
  },
  "userdoc": {
    "kind": "user",
    "methods": {},
    "version": 1
  }
}