{
  "contractName": "scon",
  "abi": [
    {
      "inputs": [],
      "stateMutability": "nonpayable",
      "type": "constructor"
    },
    {
      "inputs": [],
      "name": "message",
      "outputs": [
        {
          "internalType": "string",
          "name": "",
          "type": "string"
        }
      ],
      "stateMutability": "view",
      "type": "function"
    },
    {
      "inputs": [
        {
          "internalType": "string",
          "name": "newMessage",
          "type": "string"
        }
      ],
      "name": "setMessage",
      "outputs": [],
      "stateMutability": "nonpayable",
      "type": "function"
    }
  ],
  "bytecode": "0x608060405234801562000010575f80fd5b506040518060400160405280600d81526020017f48656c6c6f2c20576f726c6421000000000000000000000000000000000000008152505f9081620000569190620002c1565b50620003a5565b5f81519050919050565b7f4e487b71000000000000000000000000000000000000000000000000000000005f52604160045260245ffd5b7f4e487b71000000000000000000000000000000000000000000000000000000005f52602260045260245ffd5b5f6002820490506001821680620000d957607f821691505b602082108103620000ef57620000ee62000094565b5b50919050565b5f819050815f5260205f209050919050565b5f6020601f8301049050919050565b5f82821b905092915050565b5f60088302620001537fffffffffffffffffffffffffffffffffffffffffffffffffffffffffffffffff8262000116565b6200015f868362000116565b95508019841693508086168417925050509392505050565b5f819050919050565b5f819050919050565b5f620001a9620001a36200019d8462000177565b62000180565b62000177565b9050919050565b5f819050919050565b620001c48362000189565b620001dc620001d382620001b0565b84845462000122565b825550505050565b5f90565b620001f2620001e4565b620001ff818484620001b9565b505050565b5b8181101562000226576200021a5f82620001e8565b60018101905062000205565b5050565b601f82111562000275576200023f81620000f5565b6200024a8462000107565b810160208510156200025a578190505b62000272620002698562000107565b83018262000204565b50505b505050565b5f82821c905092915050565b5f620002975f19846008026200027a565b1980831691505092915050565b5f620002b1838362000286565b9150826002028217905092915050565b620002cc826200005d565b67ffffffffffffffff811115620002e857620002e762000067565b5b620002f48254620000c1565b620003018282856200022a565b5f60209050601f83116001811462000337575f841562000322578287015190505b6200032e8582620002a4565b8655506200039d565b601f1984166200034786620000f5565b5f5b82811015620003705784890151825560018201915060208501945060208101905062000349565b868310156200039057848901516200038c601f89168262000286565b8355505b6001600288020188555050505b505050505050565b61064580620003b35f395ff3fe608060405234801561000f575f80fd5b5060043610610034575f3560e01c8063368b877214610038578063e21f37ce14610054575b5f80fd5b610052600480360381019061004d919061025c565b610072565b005b61005c610084565b604051610069919061031d565b60405180910390f35b805f90816100809190610540565b5050565b5f80546100909061036a565b80601f01602080910402602001604051908101604052809291908181526020018280546100bc9061036a565b80156101075780601f106100de57610100808354040283529160200191610107565b820191905f5260205f20905b8154815290600101906020018083116100ea57829003601f168201915b505050505081565b5f604051905090565b5f80fd5b5f80fd5b5f80fd5b5f80fd5b5f601f19601f8301169050919050565b7f4e487b71000000000000000000000000000000000000000000000000000000005f52604160045260245ffd5b61016e82610128565b810181811067ffffffffffffffff8211171561018d5761018c610138565b5b80604052505050565b5f61019f61010f565b90506101ab8282610165565b919050565b5f67ffffffffffffffff8211156101ca576101c9610138565b5b6101d382610128565b9050602081019050919050565b828183375f83830152505050565b5f6102006101fb846101b0565b610196565b90508281526020810184848401111561021c5761021b610124565b5b6102278482856101e0565b509392505050565b5f82601f83011261024357610242610120565b5b81356102538482602086016101ee565b91505092915050565b5f6020828403121561027157610270610118565b5b5f82013567ffffffffffffffff81111561028e5761028d61011c565b5b61029a8482850161022f565b91505092915050565b5f81519050919050565b5f82825260208201905092915050565b5f5b838110156102da5780820151818401526020810190506102bf565b5f8484015250505050565b5f6102ef826102a3565b6102f981856102ad565b93506103098185602086016102bd565b61031281610128565b840191505092915050565b5f6020820190508181035f83015261033581846102e5565b905092915050565b7f4e487b71000000000000000000000000000000000000000000000000000000005f52602260045260245ffd5b5f600282049050600182168061038157607f821691505b6020821081036103945761039361033d565b5b50919050565b5f819050815f5260205f209050919050565b5f6020601f8301049050919050565b5f82821b905092915050565b5f600883026103f67fffffffffffffffffffffffffffffffffffffffffffffffffffffffffffffffff826103bb565b61040086836103bb565b95508019841693508086168417925050509392505050565b5f819050919050565b5f819050919050565b5f61044461043f61043a84610418565b610421565b610418565b9050919050565b5f819050919050565b61045d8361042a565b6104716104698261044b565b8484546103c7565b825550505050565b5f90565b610485610479565b610490818484610454565b505050565b5b818110156104b3576104a85f8261047d565b600181019050610496565b5050565b601f8211156104f8576104c98161039a565b6104d2846103ac565b810160208510156104e1578190505b6104f56104ed856103ac565b830182610495565b50505b505050565b5f82821c905092915050565b5f6105185f19846008026104fd565b1980831691505092915050565b5f6105308383610509565b9150826002028217905092915050565b610549826102a3565b67ffffffffffffffff81111561056257610561610138565b5b61056c825461036a565b6105778282856104b7565b5f60209050601f8311600181146105a8575f8415610596578287015190505b6105a08582610525565b865550610607565b601f1984166105b68661039a565b5f5b828110156105dd578489015182556001820191506020850194506020810190506105b8565b868310156105fa57848901516105f6601f891682610509565b8355505b6001600288020188555050505b50505050505056fea2646970667358221220ff70019d6e55bb5ee159d865736a9c14c1270ec6402d88223382175958c392e864736f6c63430008140033",
  "immutableReferences": {},
  "source": "// SPDX-License-Identifier: UNLICENSED\r\npragma solidity ^0.8.0;\r\n\r\ncontract scon {\r\n    string public message;\r\n\r\n    constructor() {\r\n        message = \"Hello, World!\";\r\n    }\r\n\r\n    function setMessage(string memory newMessage) public {\r\n        message = newMessage;\r\n    }\r\n}\r\n\r\n\r\n",
  "sourcePath": "C:\\Users\\joshu\\OneDrive\\Desktop\\Uni Work 2023-24\\Individual Project\\Smart Contracts\\contracts\\scon.sol",
  "compiler": {
    "name": "solc",
    "version": "0.8.20+commit.a1b79de6.Emscripten.clang"
  },
  "schemaVersion": "3.4.16",
  "updatedAt": "2024-02-01T01:38:10.873Z",
  "devdoc": {
    "kind": "dev",
    "methods": {},
    "version": 1
  },
  "userdoc": {
    "kind": "user",
    "methods": {},
    "version": 1
  }
}