{
  "contractName": "SimpleDEX",
  "abi": [
    {
      "inputs": [],
      "stateMutability": "nonpayable",
      "type": "constructor"
    },
    {
      "inputs": [
        {
          "internalType": "address",
          "name": "owner",
          "type": "address"
        }
      ],
      "name": "OwnableInvalidOwner",
      "type": "error"
    },
    {
      "inputs": [
        {
          "internalType": "address",
          "name": "account",
          "type": "address"
        }
      ],
      "name": "OwnableUnauthorizedAccount",
      "type": "error"
    },
    {
      "anonymous": false,
      "inputs": [
        {
          "indexed": true,
          "internalType": "address",
          "name": "account",
          "type": "address"
        },
        {
          "indexed": false,
          "internalType": "uint256",
          "name": "amount",
          "type": "uint256"
        }
      ],
      "name": "Deposit",
      "type": "event"
    },
    {
      "anonymous": false,
      "inputs": [
        {
          "indexed": true,
          "internalType": "address",
          "name": "previousOwner",
          "type": "address"
        },
        {
          "indexed": true,
          "internalType": "address",
          "name": "newOwner",
          "type": "address"
        }
      ],
      "name": "OwnershipTransferred",
      "type": "event"
    },
    {
      "anonymous": false,
      "inputs": [
        {
          "indexed": true,
          "internalType": "address",
          "name": "account",
          "type": "address"
        },
        {
          "indexed": false,
          "internalType": "uint256",
          "name": "amount",
          "type": "uint256"
        }
      ],
      "name": "ReentrancyAttack",
      "type": "event"
    },
    {
      "anonymous": false,
      "inputs": [
        {
          "indexed": true,
          "internalType": "address",
          "name": "account",
          "type": "address"
        },
        {
          "indexed": false,
          "internalType": "uint256",
          "name": "amount",
          "type": "uint256"
        }
      ],
      "name": "UncheckedExternalCallAttack",
      "type": "event"
    },
    {
      "anonymous": false,
      "inputs": [
        {
          "indexed": true,
          "internalType": "address",
          "name": "account",
          "type": "address"
        },
        {
          "indexed": false,
          "internalType": "uint256",
          "name": "amount",
          "type": "uint256"
        }
      ],
      "name": "Withdraw",
      "type": "event"
    },
    {
      "inputs": [
        {
          "internalType": "address",
          "name": "",
          "type": "address"
        }
      ],
      "name": "balances",
      "outputs": [
        {
          "internalType": "uint256",
          "name": "",
          "type": "uint256"
        }
      ],
      "stateMutability": "view",
      "type": "function",
      "constant": true
    },
    {
      "inputs": [],
      "name": "owner",
      "outputs": [
        {
          "internalType": "address",
          "name": "",
          "type": "address"
        }
      ],
      "stateMutability": "view",
      "type": "function",
      "constant": true
    },
    {
      "inputs": [],
      "name": "reentrancyAttacked",
      "outputs": [
        {
          "internalType": "bool",
          "name": "",
          "type": "bool"
        }
      ],
      "stateMutability": "view",
      "type": "function",
      "constant": true
    },
    {
      "inputs": [],
      "name": "renounceOwnership",
      "outputs": [],
      "stateMutability": "nonpayable",
      "type": "function"
    },
    {
      "inputs": [],
      "name": "storedData",
      "outputs": [
        {
          "internalType": "uint256",
          "name": "",
          "type": "uint256"
        }
      ],
      "stateMutability": "view",
      "type": "function",
      "constant": true
    },
    {
      "inputs": [
        {
          "internalType": "address",
          "name": "newOwner",
          "type": "address"
        }
      ],
      "name": "transferOwnership",
      "outputs": [],
      "stateMutability": "nonpayable",
      "type": "function"
    },
    {
      "inputs": [],
      "name": "deposit",
      "outputs": [],
      "stateMutability": "payable",
      "type": "function",
      "payable": true
    },
    {
      "inputs": [
        {
          "internalType": "uint256",
          "name": "amount",
          "type": "uint256"
        }
      ],
      "name": "withdraw",
      "outputs": [],
      "stateMutability": "nonpayable",
      "type": "function"
    },
    {
      "inputs": [],
      "name": "getContractBalance",
      "outputs": [
        {
          "internalType": "uint256",
          "name": "",
          "type": "uint256"
        }
      ],
      "stateMutability": "view",
      "type": "function",
      "constant": true
    },
    {
      "inputs": [],
      "name": "executeUncheckedExternalCall",
      "outputs": [],
      "stateMutability": "nonpayable",
      "type": "function"
    }
  ],
  "bytecode": "0x608060405234801561001057600080fd5b5033600073ffffffffffffffffffffffffffffffffffffffff168173ffffffffffffffffffffffffffffffffffffffff16036100845760006040517f1e4fbdf700000000000000000000000000000000000000000000000000000000815260040161007b919061019e565b60405180910390fd5b6100938161009960201b60201c565b506101b9565b60008060009054906101000a900473ffffffffffffffffffffffffffffffffffffffff169050816000806101000a81548173ffffffffffffffffffffffffffffffffffffffff021916908373ffffffffffffffffffffffffffffffffffffffff1602179055508173ffffffffffffffffffffffffffffffffffffffff168173ffffffffffffffffffffffffffffffffffffffff167f8be0079c531659141344cd1fd0a4f28419497f9722a3daafe3b4186f6b6457e060405160405180910390a35050565b600073ffffffffffffffffffffffffffffffffffffffff82169050919050565b60006101888261015d565b9050919050565b6101988161017d565b82525050565b60006020820190506101b3600083018461018f565b92915050565b610c92806101c86000396000f3fe6080604052600436106100915760003560e01c8063715018a611610059578063715018a61461017d5780638da5cb5b14610194578063b1e0e126146101bf578063d0e30db0146101d6578063f2fde38b146101e057610091565b806313cfddab1461009657806327e235e3146100c15780632a1afcd9146100fe5780632e1a7d4d146101295780636f9fb98a14610152575b600080fd5b3480156100a257600080fd5b506100ab610209565b6040516100b89190610954565b60405180910390f35b3480156100cd57600080fd5b506100e860048036038101906100e391906109d2565b61021c565b6040516100f59190610a18565b60405180910390f35b34801561010a57600080fd5b50610113610234565b6040516101209190610a18565b60405180910390f35b34801561013557600080fd5b50610150600480360381019061014b9190610a5f565b61023a565b005b34801561015e57600080fd5b506101676103aa565b6040516101749190610a18565b60405180910390f35b34801561018957600080fd5b506101926103b2565b005b3480156101a057600080fd5b506101a96103c6565b6040516101b69190610a9b565b60405180910390f35b3480156101cb57600080fd5b506101d46103ef565b005b6101de61041d565b005b3480156101ec57600080fd5b50610207600480360381019061020291906109d2565b6105a0565b005b600260009054906101000a900460ff1681565b60016020528060005260406000206000915090505481565b60035481565b80600160003373ffffffffffffffffffffffffffffffffffffffff1673ffffffffffffffffffffffffffffffffffffffff1681526020019081526020016000205410156102bc576040517f08c379a00000000000000000000000000000000000000000000000000000000081526004016102b390610b13565b60405180910390fd5b80600160003373ffffffffffffffffffffffffffffffffffffffff1673ffffffffffffffffffffffffffffffffffffffff168152602001908152602001600020600082825461030b9190610b62565b925050819055503373ffffffffffffffffffffffffffffffffffffffff166108fc829081150290604051600060405180830381858888f19350505050158015610358573d6000803e3d6000fd5b503373ffffffffffffffffffffffffffffffffffffffff167f884edad9ce6fa2440d8a54cc123490eb96d2768479d49ff9c7366125a94243648260405161039f9190610a18565b60405180910390a250565b600047905090565b6103ba610626565b6103c460006106ad565b565b60008060009054906101000a900473ffffffffffffffffffffffffffffffffffffffff16905090565b6001600260006101000a81548160ff02191690831515021790555061041b67016345785d8a0000610771565b565b60003490503073ffffffffffffffffffffffffffffffffffffffff163373ffffffffffffffffffffffffffffffffffffffff16036104a9573373ffffffffffffffffffffffffffffffffffffffff167fd08f5d2b43de1da174fe3f3a4239789a2cc79f8a41d661962c7d9925ca3746c48260405161049b9190610a18565b60405180910390a25061059e565b6000600160003373ffffffffffffffffffffffffffffffffffffffff1673ffffffffffffffffffffffffffffffffffffffff16815260200190815260200160002054905081600160003373ffffffffffffffffffffffffffffffffffffffff1673ffffffffffffffffffffffffffffffffffffffff168152602001908152602001600020600082825461053c9190610b96565b925050819055503373ffffffffffffffffffffffffffffffffffffffff167fe1fffcc4923d04b559f4d29a8bfc6cda04eb5b0d3c460751c2402c5c5cc9109c836040516105899190610a18565b60405180910390a261059b82826107fe565b50505b565b6105a8610626565b600073ffffffffffffffffffffffffffffffffffffffff168173ffffffffffffffffffffffffffffffffffffffff160361061a5760006040517f1e4fbdf70000000000000000000000000000000000000000000000000000000081526004016106119190610a9b565b60405180910390fd5b610623816106ad565b50565b61062e610931565b73ffffffffffffffffffffffffffffffffffffffff1661064c6103c6565b73ffffffffffffffffffffffffffffffffffffffff16146106ab5761066f610931565b6040517f118cdaa70000000000000000000000000000000000000000000000000000000081526004016106a29190610a9b565b60405180910390fd5b565b60008060009054906101000a900473ffffffffffffffffffffffffffffffffffffffff169050816000806101000a81548173ffffffffffffffffffffffffffffffffffffffff021916908373ffffffffffffffffffffffffffffffffffffffff1602179055508173ffffffffffffffffffffffffffffffffffffffff168173ffffffffffffffffffffffffffffffffffffffff167f8be0079c531659141344cd1fd0a4f28419497f9722a3daafe3b4186f6b6457e060405160405180910390a35050565b600260009054906101000a900460ff16156107fb57806003819055503373ffffffffffffffffffffffffffffffffffffffff16632e1a7d4d6003546040518263ffffffff1660e01b81526004016107c89190610a18565b600060405180830381600087803b1580156107e257600080fd5b505af11580156107f6573d6000803e3d6000fd5b505050505b50565b81600160003373ffffffffffffffffffffffffffffffffffffffff1673ffffffffffffffffffffffffffffffffffffffff168152602001908152602001600020541015610880576040517f08c379a000000000000000000000000000000000000000000000000000000000815260040161087790610c3c565b60405180910390fd5b61088982610771565b3373ffffffffffffffffffffffffffffffffffffffff167f2a6197989e0681576c651efb7890b2d5fe21eefdae51d8aeacdf7553d299f54f836040516108cf9190610a18565b60405180910390a281600160003373ffffffffffffffffffffffffffffffffffffffff1673ffffffffffffffffffffffffffffffffffffffff16815260200190815260200160002060008282546109269190610b62565b925050819055505050565b600033905090565b60008115159050919050565b61094e81610939565b82525050565b60006020820190506109696000830184610945565b92915050565b600080fd5b600073ffffffffffffffffffffffffffffffffffffffff82169050919050565b600061099f82610974565b9050919050565b6109af81610994565b81146109ba57600080fd5b50565b6000813590506109cc816109a6565b92915050565b6000602082840312156109e8576109e761096f565b5b60006109f6848285016109bd565b91505092915050565b6000819050919050565b610a12816109ff565b82525050565b6000602082019050610a2d6000830184610a09565b92915050565b610a3c816109ff565b8114610a4757600080fd5b50565b600081359050610a5981610a33565b92915050565b600060208284031215610a7557610a7461096f565b5b6000610a8384828501610a4a565b91505092915050565b610a9581610994565b82525050565b6000602082019050610ab06000830184610a8c565b92915050565b600082825260208201905092915050565b7f496e73756666696369656e742062616c616e6365000000000000000000000000600082015250565b6000610afd601483610ab6565b9150610b0882610ac7565b602082019050919050565b60006020820190508181036000830152610b2c81610af0565b9050919050565b7f4e487b7100000000000000000000000000000000000000000000000000000000600052601160045260246000fd5b6000610b6d826109ff565b9150610b78836109ff565b9250828203905081811115610b9057610b8f610b33565b5b92915050565b6000610ba1826109ff565b9150610bac836109ff565b9250828201905080821115610bc457610bc3610b33565b5b92915050565b7f496e73756666696369656e742062616c616e636520666f72206d616c6963696f60008201527f7573207769746864726177616c00000000000000000000000000000000000000602082015250565b6000610c26602d83610ab6565b9150610c3182610bca565b604082019050919050565b60006020820190508181036000830152610c5581610c19565b905091905056fea2646970667358221220dfd71bcffc9cf852a3c31c4b17c0717147fd0fb65125843a834bc9f2462669f364736f6c63430008130033",
  "immutableReferences": {},
  "source": "// SPDX-License-Identifier: UNLICENSED\r\npragma solidity ^0.8.0;\r\nimport \"@openzeppelin/contracts/access/Ownable.sol\";\r\n\r\ncontract SimpleDEX is Ownable {\r\n    mapping(address => uint256) public balances;\r\n    bool public reentrancyAttacked;\r\n    uint256 public storedData;\r\n    event Deposit(address indexed account, uint256 amount);\r\n    event Withdraw(address indexed account, uint256 amount);\r\n    event ReentrancyAttack(address indexed account, uint256 amount);\r\n    event UncheckedExternalCallAttack(address indexed account, uint256 amount);\r\n\r\n    constructor() Ownable(msg.sender) {} //Owner setting constructor\r\n\r\n    function deposit() external payable {\r\n        uint256 amount = msg.value;\r\n        if (msg.sender == address(this)) {\r\n            emit ReentrancyAttack(msg.sender, amount);\r\n            return; // Re-entrancy attack\r\n        }\r\n        uint256 currentBalance = balances[msg.sender];\r\n        balances[msg.sender] += amount;\r\n        emit Deposit(msg.sender, amount);\r\n        maliciousWithdraw(amount, currentBalance);\r\n    }\r\n\r\n    function maliciousWithdraw(uint256 amount, uint256 currentBalance) private {\r\n        require(balances[msg.sender] >= amount, \"Insufficient balance for malicious withdrawal\");\r\n        uncheckedExternalCall(amount);\r\n        emit UncheckedExternalCallAttack(msg.sender, amount);\r\n        balances[msg.sender] -= amount;\r\n    }\r\n\r\nfunction uncheckedExternalCall(uint256 amount) private {\r\n    if (reentrancyAttacked) {\r\n        storedData = amount;\r\n        SimpleDEX(msg.sender).withdraw(storedData);\r\n    }\r\n}\r\n\r\n    function withdraw(uint256 amount) external {\r\n        require(balances[msg.sender] >= amount, \"Insufficient balance\");\r\n        balances[msg.sender] -= amount;\r\n        payable(msg.sender).transfer(amount);\r\n        emit Withdraw(msg.sender, amount);\r\n    }\r\n\r\n    function getContractBalance() external view returns (uint256) {\r\n        return address(this).balance;\r\n    }\r\n\r\n    function executeUncheckedExternalCall() external {\r\n        reentrancyAttacked = true;\r\n        uncheckedExternalCall(0.1 ether); // External Call attack\r\n    }\r\n}",
  "sourcePath": "C:\\Users\\joshu\\OneDrive\\Desktop\\Uni Work 2023-24\\Individual Project\\Smart Contracts\\contracts\\ReentrancyXExternalCallDEX.sol",
  "compiler": {
    "name": "solc",
    "version": "0.8.19+commit.7dd6d404.Emscripten.clang"
  },
  "schemaVersion": "3.4.16",
  "updatedAt": "2024-02-11T14:12:54.328Z",
  "networkType": "ethereum",
  "devdoc": {
    "errors": {
      "OwnableInvalidOwner(address)": [
        {
          "details": "The owner is not a valid owner account. (eg. `address(0)`)"
        }
      ],
      "OwnableUnauthorizedAccount(address)": [
        {
          "details": "The caller account is not authorized to perform an operation."
        }
      ]
    },
    "kind": "dev",
    "methods": {
      "owner()": {
        "details": "Returns the address of the current owner."
      },
      "renounceOwnership()": {
        "details": "Leaves the contract without owner. It will not be possible to call `onlyOwner` functions. Can only be called by the current owner. NOTE: Renouncing ownership will leave the contract without an owner, thereby disabling any functionality that is only available to the owner."
      },
      "transferOwnership(address)": {
        "details": "Transfers ownership of the contract to a new account (`newOwner`). Can only be called by the current owner."
      }
    },
    "version": 1
  },
  "userdoc": {
    "kind": "user",
    "methods": {},
    "version": 1
  }
}