{
  "contractName": "TimestampDependentContract",
  "abi": [
    {
      "inputs": [],
      "stateMutability": "nonpayable",
      "type": "constructor"
    },
    {
      "inputs": [],
      "name": "MinimumDelay",
      "outputs": [
        {
          "internalType": "uint256",
          "name": "",
          "type": "uint256"
        }
      ],
      "stateMutability": "view",
      "type": "function"
    },
    {
      "inputs": [],
      "name": "deadline",
      "outputs": [
        {
          "internalType": "uint256",
          "name": "",
          "type": "uint256"
        }
      ],
      "stateMutability": "view",
      "type": "function"
    },
    {
      "inputs": [],
      "name": "owner",
      "outputs": [
        {
          "internalType": "address",
          "name": "",
          "type": "address"
        }
      ],
      "stateMutability": "view",
      "type": "function"
    },
    {
      "inputs": [
        {
          "internalType": "address",
          "name": "",
          "type": "address"
        }
      ],
      "name": "users",
      "outputs": [
        {
          "internalType": "uint256",
          "name": "",
          "type": "uint256"
        }
      ],
      "stateMutability": "view",
      "type": "function"
    },
    {
      "inputs": [
        {
          "internalType": "uint256",
          "name": "deadline2",
          "type": "uint256"
        }
      ],
      "name": "setDeadline",
      "outputs": [],
      "stateMutability": "nonpayable",
      "type": "function"
    },
    {
      "inputs": [
        {
          "internalType": "uint256",
          "name": "sseconds",
          "type": "uint256"
        }
      ],
      "name": "attack",
      "outputs": [],
      "stateMutability": "nonpayable",
      "type": "function"
    },
    {
      "inputs": [],
      "name": "withdraw",
      "outputs": [],
      "stateMutability": "nonpayable",
      "type": "function"
    },
    {
      "inputs": [],
      "name": "getDeadline",
      "outputs": [
        {
          "internalType": "uint256",
          "name": "",
          "type": "uint256"
        }
      ],
      "stateMutability": "view",
      "type": "function"
    },
    {
      "inputs": [],
      "name": "deposit",
      "outputs": [],
      "stateMutability": "payable",
      "type": "function"
    }
  ],
  "bytecode": "0x608060405234801561001057600080fd5b50336000806101000a81548173ffffffffffffffffffffffffffffffffffffffff021916908373ffffffffffffffffffffffffffffffffffffffff160217905550600a4261005e91906100a2565b6001819055506100d6565b6000819050919050565b7f4e487b7100000000000000000000000000000000000000000000000000000000600052601160045260246000fd5b60006100ad82610069565b91506100b883610069565b92508282019050808211156100d0576100cf610073565b5b92915050565b61087d806100e56000396000f3fe6080604052600436106100865760003560e01c80635f8d96de116100595780635f8d96de1461012157806364dd891a1461014c5780638da5cb5b14610175578063a87430ba146101a0578063d0e30db0146101dd57610086565b8063116c2ebc1461008b578063195199f6146100b657806329dcb0cf146100df5780633ccfd60b1461010a575b600080fd5b34801561009757600080fd5b506100a06101e7565b6040516100ad91906104e1565b60405180910390f35b3480156100c257600080fd5b506100dd60048036038101906100d8919061052d565b6101ec565b005b3480156100eb57600080fd5b506100f4610284565b60405161010191906104e1565b60405180910390f35b34801561011657600080fd5b5061011f61028a565b005b34801561012d57600080fd5b506101366103ca565b60405161014391906104e1565b60405180910390f35b34801561015857600080fd5b50610173600480360381019061016e919061052d565b6103d4565b005b34801561018157600080fd5b5061018a61048a565b604051610197919061059b565b60405180910390f35b3480156101ac57600080fd5b506101c760048036038101906101c291906105e2565b6104ae565b6040516101d491906104e1565b60405180910390f35b6101e56104c6565b005b600a81565b60008054906101000a900473ffffffffffffffffffffffffffffffffffffffff1673ffffffffffffffffffffffffffffffffffffffff163373ffffffffffffffffffffffffffffffffffffffff161461027a576040517f08c379a00000000000000000000000000000000000000000000000000000000081526004016102719061066c565b60405180910390fd5b8060018190555050565b60015481565b60008054906101000a900473ffffffffffffffffffffffffffffffffffffffff1673ffffffffffffffffffffffffffffffffffffffff163373ffffffffffffffffffffffffffffffffffffffff1614610318576040517f08c379a000000000000000000000000000000000000000000000000000000000815260040161030f9061066c565b60405180910390fd5b600047905060008111610360576040517f08c379a0000000000000000000000000000000000000000000000000000000008152600401610357906106fe565b60405180910390fd5b60008054906101000a900473ffffffffffffffffffffffffffffffffffffffff1673ffffffffffffffffffffffffffffffffffffffff166108fc829081150290604051600060405180830381858888f193505050501580156103c6573d6000803e3d6000fd5b5050565b6000600154905090565b600154421015806103f15750806001546103ee919061074d565b42105b610430576040517f08c379a0000000000000000000000000000000000000000000000000000000008152600401610427906107f3565b60405180910390fd5b6001600260003373ffffffffffffffffffffffffffffffffffffffff1673ffffffffffffffffffffffffffffffffffffffff16815260200190815260200160002060008282546104809190610813565b9250508190555050565b60008054906101000a900473ffffffffffffffffffffffffffffffffffffffff1681565b60026020528060005260406000206000915090505481565b565b6000819050919050565b6104db816104c8565b82525050565b60006020820190506104f660008301846104d2565b92915050565b600080fd5b61050a816104c8565b811461051557600080fd5b50565b60008135905061052781610501565b92915050565b600060208284031215610543576105426104fc565b5b600061055184828501610518565b91505092915050565b600073ffffffffffffffffffffffffffffffffffffffff82169050919050565b60006105858261055a565b9050919050565b6105958161057a565b82525050565b60006020820190506105b0600083018461058c565b92915050565b6105bf8161057a565b81146105ca57600080fd5b50565b6000813590506105dc816105b6565b92915050565b6000602082840312156105f8576105f76104fc565b5b6000610606848285016105cd565b91505092915050565b600082825260208201905092915050565b7f4f776e6572207065726d697373696f6e206f6e6c792e00000000000000000000600082015250565b600061065660168361060f565b915061066182610620565b602082019050919050565b6000602082019050818103600083015261068581610649565b9050919050565b7f42616c616e636520697320302c207769746864726177616c20696d706f73736960008201527f626c652e00000000000000000000000000000000000000000000000000000000602082015250565b60006106e860248361060f565b91506106f38261068c565b604082019050919050565b60006020820190508181036000830152610717816106db565b9050919050565b7f4e487b7100000000000000000000000000000000000000000000000000000000600052601160045260246000fd5b6000610758826104c8565b9150610763836104c8565b925082820390508181111561077b5761077a61071e565b5b92915050565b7f41747461636b206973206e6f7420706f737369626c6520617420746865206d6f60008201527f6d656e7400000000000000000000000000000000000000000000000000000000602082015250565b60006107dd60248361060f565b91506107e882610781565b604082019050919050565b6000602082019050818103600083015261080c816107d0565b9050919050565b600061081e826104c8565b9150610829836104c8565b92508282019050808211156108415761084061071e565b5b9291505056fea264697066735822122055153504e82caf233ac113c9e2c154e7682a18d173d8b84cca3634a5762fd75464736f6c63430008130033",
  "immutableReferences": {},
  "source": "// SPDX-License-Identifier: UNLICENSED\r\n\r\npragma solidity ^0.8.19;\r\n\r\ncontract TimestampDependentContract {\r\n\r\n    address public owner; //public variable for owner address\r\n    uint public deadline; //public variable for dealine set\r\n    uint public constant MinimumDelay = 10; //comstant var for minimum delay\r\n    mapping(address => uint) public users; //user mapping\r\n\r\n    constructor() {\r\n        owner = msg.sender; //owner initialised with the user that deployed the contract\r\n        deadline = block.timestamp + MinimumDelay; //initial deadline\r\n    }\r\n\r\n    modifier OwnerFunction() {\r\n        require(msg.sender == owner, \"Owner permission only.\");\r\n        _;\r\n    }\r\n\r\n    function setDeadline(uint deadline2) public OwnerFunction {\r\n        deadline = deadline2; //deadline to be set by owner\r\n    }\r\n\r\nfunction attack(uint sseconds) public {\r\n    require(block.timestamp >= deadline || block.timestamp < deadline - sseconds, \"Attack is not possible at the moment\");\r\n    //current deadline must be before or after the current block time subtracting number of seconds specified by user\r\n    users[msg.sender] += 1; //gets value stored in users balance, and increments, tracking amount of times performed\r\n}\r\n\r\n    function withdraw() public OwnerFunction {\r\n        uint amountToWithdraw = address(this).balance; //get user balance\r\n        require(amountToWithdraw > 0, \"Balance is 0, withdrawal impossible.\");\r\n        payable(owner).transfer(amountToWithdraw); //Current amount transferred to owner\r\n    }\r\n\r\n    function getDeadline() public view returns (uint) {\r\n        return deadline; //get current deadline\r\n    }\r\n\r\n    function deposit() public payable { //deposit function\r\n    }\r\n}",
  "sourcePath": "C:\\Users\\joshu\\OneDrive\\Desktop\\Individual Project\\Smart Contracts\\contracts\\Timestamp.sol",
  "compiler": {
    "name": "solc",
    "version": "0.8.19+commit.7dd6d404.Emscripten.clang"
  },
  "schemaVersion": "3.4.16",
  "updatedAt": "2024-04-22T17:37:36.543Z",
  "devdoc": {
    "kind": "dev",
    "methods": {},
    "version": 1
  },
  "userdoc": {
    "kind": "user",
    "methods": {},
    "version": 1
  }
}