{
  "contractName": "VulnerableContract",
  "abi": [
    {
      "anonymous": false,
      "inputs": [
        {
          "indexed": false,
          "internalType": "uint256",
          "name": "newPrice",
          "type": "uint256"
        }
      ],
      "name": "PriceSet",
      "type": "event"
    },
    {
      "anonymous": false,
      "inputs": [
        {
          "indexed": false,
          "internalType": "address",
          "name": "buyer",
          "type": "address"
        },
        {
          "indexed": false,
          "internalType": "uint256",
          "name": "amount",
          "type": "uint256"
        }
      ],
      "name": "Purchase",
      "type": "event"
    },
    {
      "inputs": [],
      "name": "price",
      "outputs": [
        {
          "internalType": "uint256",
          "name": "",
          "type": "uint256"
        }
      ],
      "stateMutability": "view",
      "type": "function"
    },
    {
      "inputs": [
        {
          "internalType": "uint256",
          "name": "_price",
          "type": "uint256"
        }
      ],
      "name": "setPrice",
      "outputs": [],
      "stateMutability": "nonpayable",
      "type": "function"
    },
    {
      "inputs": [],
      "name": "buy",
      "outputs": [],
      "stateMutability": "payable",
      "type": "function"
    }
  ],
  "bytecode": "0x608060405234801561001057600080fd5b5061030d806100206000396000f3fe6080604052600436106100345760003560e01c806391b7f5ed14610039578063a035b1fe14610062578063a6f2ae3a1461008d575b600080fd5b34801561004557600080fd5b50610060600480360381019061005b9190610199565b610097565b005b34801561006e57600080fd5b506100776100d8565b60405161008491906101d5565b60405180910390f35b6100956100de565b005b806000819055507f6bfd5e75539a9d2626425a2e2922675256b219fe546d63dad56011759b9a2f66816040516100cd91906101d5565b60405180910390a150565b60005481565b600054341015610123576040517f08c379a000000000000000000000000000000000000000000000000000000000815260040161011a9061024d565b60405180910390fd5b7f2499a5330ab0979cc612135e7883ebc3cd5c9f7a8508f042540c34723348f63233346040516101549291906102ae565b60405180910390a1565b600080fd5b6000819050919050565b61017681610163565b811461018157600080fd5b50565b6000813590506101938161016d565b92915050565b6000602082840312156101af576101ae61015e565b5b60006101bd84828501610184565b91505092915050565b6101cf81610163565b82525050565b60006020820190506101ea60008301846101c6565b92915050565b600082825260208201905092915050565b7f496e73756666696369656e742066756e64732073656e74000000000000000000600082015250565b60006102376017836101f0565b915061024282610201565b602082019050919050565b600060208201905081810360008301526102668161022a565b9050919050565b600073ffffffffffffffffffffffffffffffffffffffff82169050919050565b60006102988261026d565b9050919050565b6102a88161028d565b82525050565b60006040820190506102c3600083018561029f565b6102d060208301846101c6565b939250505056fea2646970667358221220b08b3385b0124cdf97bedf1791973fb2629128dde140c009342310899a92ebdf64736f6c63430008130033",
  "immutableReferences": {},
  "source": "// VulnerableContract.sol\r\n// SPDX-License-Identifier: MIT\r\npragma solidity ^0.8.19;\r\n\r\ncontract VulnerableContract {\r\n    uint256 public price;\r\n\r\n    event PriceSet(uint256 newPrice);\r\n    event Purchase(address buyer, uint256 amount);\r\n\r\n    function setPrice(uint256 _price) external {\r\n        price = _price;\r\n        emit PriceSet(_price);\r\n    }\r\n\r\n    function buy() external payable {\r\n        require(msg.value >= price, \"Insufficient funds sent\");\r\n        // Perform the purchase logic\r\n        // For simplicity, let's just emit an event\r\n        emit Purchase(msg.sender, msg.value);\r\n    }\r\n}\r\n\r\ncontract AttackingContract {\r\n    VulnerableContract public vulnerableContract;\r\n    address public owner;\r\n\r\n    event FrontRunAttack(uint256 priceSent);\r\n\r\n    constructor(address _vulnerableContract) {\r\n        vulnerableContract = VulnerableContract(_vulnerableContract);\r\n        owner = msg.sender;\r\n    }\r\n\r\n    function frontRun(uint256 _price) external payable  {\r\n        emit FrontRunAttack(_price);\r\n        // Simulate front-running attack by setting a higher price\r\n        vulnerableContract.setPrice(_price + 1);\r\n        // Trigger the vulnerable function\r\n        vulnerableContract.buy{value: _price + 1}();\r\n    }\r\n\r\n    // This function allows the owner to withdraw funds sent to this contract\r\n    function withdraw() external {\r\n        require(msg.sender == owner, \"Only owner can withdraw\");\r\n        payable(owner).transfer(address(this).balance);\r\n    }\r\n}\r\n",
  "sourcePath": "C:\\Users\\joshu\\OneDrive\\Desktop\\Individual Project\\Smart Contracts\\contracts\\FrontRunning.sol",
  "compiler": {
    "name": "solc",
    "version": "0.8.19+commit.7dd6d404.Emscripten.clang"
  },
  "schemaVersion": "3.4.16",
  "updatedAt": "2024-04-10T00:22:36.656Z",
  "devdoc": {
    "kind": "dev",
    "methods": {},
    "version": 1
  },
  "userdoc": {
    "kind": "user",
    "methods": {},
    "version": 1
  }
}