{
  "contractName": "VulnerableDefiMart",
  "abi": [
    {
      "inputs": [
        {
          "internalType": "address",
          "name": "_rewardToken",
          "type": "address"
        }
      ],
      "stateMutability": "nonpayable",
      "type": "constructor"
    },
    {
      "inputs": [],
      "name": "owner",
      "outputs": [
        {
          "internalType": "address",
          "name": "",
          "type": "address"
        }
      ],
      "stateMutability": "view",
      "type": "function"
    },
    {
      "inputs": [],
      "name": "rewardToken",
      "outputs": [
        {
          "internalType": "contract IERC20",
          "name": "",
          "type": "address"
        }
      ],
      "stateMutability": "view",
      "type": "function"
    },
    {
      "inputs": [
        {
          "internalType": "address",
          "name": "",
          "type": "address"
        }
      ],
      "name": "stakedBalance",
      "outputs": [
        {
          "internalType": "uint256",
          "name": "",
          "type": "uint256"
        }
      ],
      "stateMutability": "view",
      "type": "function"
    },
    {
      "inputs": [
        {
          "internalType": "uint256",
          "name": "_amount",
          "type": "uint256"
        }
      ],
      "name": "stake",
      "outputs": [],
      "stateMutability": "nonpayable",
      "type": "function"
    },
    {
      "inputs": [],
      "name": "withdraw",
      "outputs": [],
      "stateMutability": "nonpayable",
      "type": "function"
    },
    {
      "inputs": [
        {
          "internalType": "address",
          "name": "_newOwner",
          "type": "address"
        }
      ],
      "name": "updateOwner",
      "outputs": [],
      "stateMutability": "nonpayable",
      "type": "function"
    },
    {
      "inputs": [],
      "name": "insecureRandom",
      "outputs": [
        {
          "internalType": "uint256",
          "name": "",
          "type": "uint256"
        }
      ],
      "stateMutability": "view",
      "type": "function"
    },
    {
      "inputs": [
        {
          "internalType": "address",
          "name": "_target",
          "type": "address"
        },
        {
          "internalType": "bytes",
          "name": "_data",
          "type": "bytes"
        }
      ],
      "name": "executeExternalCall",
      "outputs": [],
      "stateMutability": "nonpayable",
      "type": "function"
    }
  ],
  "bytecode": "0x608060405234801561000f575f80fd5b50604051610e00380380610e0083398181016040528101906100319190610114565b335f806101000a81548173ffffffffffffffffffffffffffffffffffffffff021916908373ffffffffffffffffffffffffffffffffffffffff1602179055508060025f6101000a81548173ffffffffffffffffffffffffffffffffffffffff021916908373ffffffffffffffffffffffffffffffffffffffff1602179055505061013f565b5f80fd5b5f73ffffffffffffffffffffffffffffffffffffffff82169050919050565b5f6100e3826100ba565b9050919050565b6100f3816100d9565b81146100fd575f80fd5b50565b5f8151905061010e816100ea565b92915050565b5f60208284031215610129576101286100b6565b5b5f61013684828501610100565b91505092915050565b610cb48061014c5f395ff3fe608060405234801561000f575f80fd5b5060043610610086575f3560e01c80638da5cb5b116100595780638da5cb5b146100fc578063a694fc3a1461011a578063eb5dd6c614610136578063f7c618c11461015457610086565b80633ccfd60b1461008a5780636021726714610094578063880cdc31146100c45780638c075249146100e0575b5f80fd5b610092610172565b005b6100ae60048036038101906100a9919061067e565b61033e565b6040516100bb91906106c1565b60405180910390f35b6100de60048036038101906100d9919061067e565b610353565b005b6100fa60048036038101906100f59190610816565b610422565b005b6101046104cf565b604051610111919061087f565b60405180910390f35b610134600480360381019061012f91906108c2565b6104f2565b005b61013e6105e7565b60405161014b91906106c1565b60405180910390f35b61015c6105ee565b6040516101699190610948565b60405180910390f35b5f60015f3373ffffffffffffffffffffffffffffffffffffffff1673ffffffffffffffffffffffffffffffffffffffff1681526020019081526020015f205490505f60015f3373ffffffffffffffffffffffffffffffffffffffff1673ffffffffffffffffffffffffffffffffffffffff1681526020019081526020015f208190555060025f9054906101000a900473ffffffffffffffffffffffffffffffffffffffff1673ffffffffffffffffffffffffffffffffffffffff1663a9059cbb33836040518363ffffffff1660e01b8152600401610251929190610961565b6020604051808303815f875af115801561026d573d5f803e3d5ffd5b505050506040513d601f19601f8201168201806040525081019061029191906109bd565b505f3373ffffffffffffffffffffffffffffffffffffffff16826040516102b790610a15565b5f6040518083038185875af1925050503d805f81146102f1576040519150601f19603f3d011682016040523d82523d5f602084013e6102f6565b606091505b505090508061033a576040517f08c379a000000000000000000000000000000000000000000000000000000000815260040161033190610a83565b60405180910390fd5b5050565b6001602052805f5260405f205f915090505481565b5f8054906101000a900473ffffffffffffffffffffffffffffffffffffffff1673ffffffffffffffffffffffffffffffffffffffff163373ffffffffffffffffffffffffffffffffffffffff16146103e0576040517f08c379a00000000000000000000000000000000000000000000000000000000081526004016103d790610aeb565b60405180910390fd5b805f806101000a81548173ffffffffffffffffffffffffffffffffffffffff021916908373ffffffffffffffffffffffffffffffffffffffff16021790555050565b5f8273ffffffffffffffffffffffffffffffffffffffff16826040516104489190610b6b565b5f604051808303815f865af19150503d805f8114610481576040519150601f19603f3d011682016040523d82523d5f602084013e610486565b606091505b50509050806104ca576040517f08c379a00000000000000000000000000000000000000000000000000000000081526004016104c190610bcb565b60405180910390fd5b505050565b5f8054906101000a900473ffffffffffffffffffffffffffffffffffffffff1681565b8060015f3373ffffffffffffffffffffffffffffffffffffffff1673ffffffffffffffffffffffffffffffffffffffff1681526020019081526020015f205f82825461053e9190610c16565b9250508190555060025f9054906101000a900473ffffffffffffffffffffffffffffffffffffffff1673ffffffffffffffffffffffffffffffffffffffff166323b872dd3330846040518463ffffffff1660e01b81526004016105a393929190610c49565b6020604051808303815f875af11580156105bf573d5f803e3d5ffd5b505050506040513d601f19601f820116820180604052508101906105e391906109bd565b5050565b5f42905090565b60025f9054906101000a900473ffffffffffffffffffffffffffffffffffffffff1681565b5f604051905090565b5f80fd5b5f80fd5b5f73ffffffffffffffffffffffffffffffffffffffff82169050919050565b5f61064d82610624565b9050919050565b61065d81610643565b8114610667575f80fd5b50565b5f8135905061067881610654565b92915050565b5f602082840312156106935761069261061c565b5b5f6106a08482850161066a565b91505092915050565b5f819050919050565b6106bb816106a9565b82525050565b5f6020820190506106d45f8301846106b2565b92915050565b5f80fd5b5f80fd5b5f601f19601f8301169050919050565b7f4e487b71000000000000000000000000000000000000000000000000000000005f52604160045260245ffd5b610728826106e2565b810181811067ffffffffffffffff82111715610747576107466106f2565b5b80604052505050565b5f610759610613565b9050610765828261071f565b919050565b5f67ffffffffffffffff821115610784576107836106f2565b5b61078d826106e2565b9050602081019050919050565b828183375f83830152505050565b5f6107ba6107b58461076a565b610750565b9050828152602081018484840111156107d6576107d56106de565b5b6107e184828561079a565b509392505050565b5f82601f8301126107fd576107fc6106da565b5b813561080d8482602086016107a8565b91505092915050565b5f806040838503121561082c5761082b61061c565b5b5f6108398582860161066a565b925050602083013567ffffffffffffffff81111561085a57610859610620565b5b610866858286016107e9565b9150509250929050565b61087981610643565b82525050565b5f6020820190506108925f830184610870565b92915050565b6108a1816106a9565b81146108ab575f80fd5b50565b5f813590506108bc81610898565b92915050565b5f602082840312156108d7576108d661061c565b5b5f6108e4848285016108ae565b91505092915050565b5f819050919050565b5f61091061090b61090684610624565b6108ed565b610624565b9050919050565b5f610921826108f6565b9050919050565b5f61093282610917565b9050919050565b61094281610928565b82525050565b5f60208201905061095b5f830184610939565b92915050565b5f6040820190506109745f830185610870565b61098160208301846106b2565b9392505050565b5f8115159050919050565b61099c81610988565b81146109a6575f80fd5b50565b5f815190506109b781610993565b92915050565b5f602082840312156109d2576109d161061c565b5b5f6109df848285016109a9565b91505092915050565b5f81905092915050565b50565b5f610a005f836109e8565b9150610a0b826109f2565b5f82019050919050565b5f610a1f826109f5565b9150819050919050565b5f82825260208201905092915050565b7f5472616e73666572206661696c656400000000000000000000000000000000005f82015250565b5f610a6d600f83610a29565b9150610a7882610a39565b602082019050919050565b5f6020820190508181035f830152610a9a81610a61565b9050919050565b7f4e6f7420746865206f776e6572000000000000000000000000000000000000005f82015250565b5f610ad5600d83610a29565b9150610ae082610aa1565b602082019050919050565b5f6020820190508181035f830152610b0281610ac9565b9050919050565b5f81519050919050565b5f5b83811015610b30578082015181840152602081019050610b15565b5f8484015250505050565b5f610b4582610b09565b610b4f81856109e8565b9350610b5f818560208601610b13565b80840191505092915050565b5f610b768284610b3b565b915081905092915050565b7f45787465726e616c2063616c6c206661696c65640000000000000000000000005f82015250565b5f610bb5601483610a29565b9150610bc082610b81565b602082019050919050565b5f6020820190508181035f830152610be281610ba9565b9050919050565b7f4e487b71000000000000000000000000000000000000000000000000000000005f52601160045260245ffd5b5f610c20826106a9565b9150610c2b836106a9565b9250828201905080821115610c4357610c42610be9565b5b92915050565b5f606082019050610c5c5f830186610870565b610c696020830185610870565b610c7660408301846106b2565b94935050505056fea26469706673582212208fcba88db8fab70d841b6e2f333e8e234f027bf61aabda8856218f28130beb2164736f6c63430008150033",
  "immutableReferences": {},
  "source": "// SPDX-License-Identifier: MIT\r\npragma solidity ^0.8.0;\r\n\r\nimport \"@openzeppelin/contracts/token/ERC20/IERC20.sol\";\r\nimport \"@openzeppelin/contracts/token/ERC20/ERC20.sol\";\r\n\r\ncontract VulnerableDefiMart {\r\n    address public owner;\r\n    mapping(address => uint256) public stakedBalance;\r\n    IERC20 public rewardToken;\r\n\r\n    constructor(address _rewardToken) {\r\n        owner = msg.sender;\r\n        rewardToken = IERC20(_rewardToken);\r\n    }\r\n\r\n    function stake(uint256 _amount) external {\r\n        // Vulnerability: Integer Overflow/Underflow\r\n        stakedBalance[msg.sender] += _amount;\r\n        rewardToken.transferFrom(msg.sender, address(this), _amount);\r\n    }\r\n\r\n    function withdraw() external {\r\n        // Vulnerability: Reentrancy Attack\r\n        uint256 amount = stakedBalance[msg.sender];\r\n        stakedBalance[msg.sender] = 0;\r\n        rewardToken.transfer(msg.sender, amount);\r\n        (bool success, ) = msg.sender.call{value: amount}(\"\");\r\n        require(success, \"Transfer failed\");\r\n    }\r\n\r\n    function updateOwner(address _newOwner) external {\r\n        // Vulnerability: Access Control Vulnerability\r\n        require(msg.sender == owner, \"Not the owner\");\r\n        owner = _newOwner;\r\n    }\r\n\r\n    function insecureRandom() external view returns (uint256) {\r\n        // Vulnerability: Insecure Randomness\r\n        return block.timestamp;\r\n    }\r\n\r\n    function executeExternalCall(address _target, bytes memory _data) external {\r\n        // Vulnerability: Unchecked External Calls\r\n        (bool success, ) = _target.call(_data);\r\n        require(success, \"External call failed\");\r\n    }\r\n}\r\n",
  "sourcePath": "C:\\Users\\joshu\\OneDrive\\Desktop\\Uni Work 2023-24\\Individual Project\\Smart Contracts\\contracts\\DeFiSimple.sol",
  "compiler": {
    "name": "solc",
    "version": "0.8.21+commit.d9974bed.Emscripten.clang"
  },
  "schemaVersion": "3.4.16",
  "updatedAt": "2023-11-24T20:41:07.191Z",
  "devdoc": {
    "kind": "dev",
    "methods": {},
    "version": 1
  },
  "userdoc": {
    "kind": "user",
    "methods": {},
    "version": 1
  }
}