{
  "contractName": "WeakAccessControlSecure",
  "abi": [
    {
      "inputs": [],
      "stateMutability": "nonpayable",
      "type": "constructor"
    },
    {
      "inputs": [
        {
          "internalType": "address",
          "name": "owner",
          "type": "address"
        }
      ],
      "name": "OwnableInvalidOwner",
      "type": "error"
    },
    {
      "inputs": [
        {
          "internalType": "address",
          "name": "account",
          "type": "address"
        }
      ],
      "name": "OwnableUnauthorizedAccount",
      "type": "error"
    },
    {
      "inputs": [],
      "name": "ReentrancyGuardReentrantCall",
      "type": "error"
    },
    {
      "anonymous": false,
      "inputs": [
        {
          "indexed": true,
          "internalType": "address",
          "name": "depositor",
          "type": "address"
        },
        {
          "indexed": false,
          "internalType": "uint256",
          "name": "amount",
          "type": "uint256"
        }
      ],
      "name": "EtherDeposited",
      "type": "event"
    },
    {
      "anonymous": false,
      "inputs": [
        {
          "indexed": true,
          "internalType": "address",
          "name": "previousOwner",
          "type": "address"
        },
        {
          "indexed": true,
          "internalType": "address",
          "name": "newOwner",
          "type": "address"
        }
      ],
      "name": "OwnerSwitched",
      "type": "event"
    },
    {
      "anonymous": false,
      "inputs": [
        {
          "indexed": true,
          "internalType": "address",
          "name": "previousOwner",
          "type": "address"
        },
        {
          "indexed": true,
          "internalType": "address",
          "name": "newOwner",
          "type": "address"
        }
      ],
      "name": "OwnershipTransferred",
      "type": "event"
    },
    {
      "inputs": [],
      "name": "owner",
      "outputs": [
        {
          "internalType": "address",
          "name": "",
          "type": "address"
        }
      ],
      "stateMutability": "view",
      "type": "function",
      "constant": true
    },
    {
      "inputs": [],
      "name": "renounceOwnership",
      "outputs": [],
      "stateMutability": "nonpayable",
      "type": "function"
    },
    {
      "inputs": [
        {
          "internalType": "address",
          "name": "newOwner",
          "type": "address"
        }
      ],
      "name": "transferOwnership",
      "outputs": [],
      "stateMutability": "nonpayable",
      "type": "function"
    },
    {
      "inputs": [],
      "name": "deposit",
      "outputs": [],
      "stateMutability": "payable",
      "type": "function",
      "payable": true
    },
    {
      "inputs": [
        {
          "internalType": "uint256",
          "name": "sum",
          "type": "uint256"
        }
      ],
      "name": "withdraw",
      "outputs": [],
      "stateMutability": "nonpayable",
      "type": "function"
    },
    {
      "inputs": [
        {
          "internalType": "address payable",
          "name": "_newOwner",
          "type": "address"
        }
      ],
      "name": "switchOwner",
      "outputs": [],
      "stateMutability": "nonpayable",
      "type": "function"
    },
    {
      "inputs": [],
      "name": "withdrawOwner",
      "outputs": [],
      "stateMutability": "nonpayable",
      "type": "function"
    }
  ],
  "bytecode": "0x608060405234801561001057600080fd5b5033600073ffffffffffffffffffffffffffffffffffffffff168173ffffffffffffffffffffffffffffffffffffffff16036100845760006040517f1e4fbdf700000000000000000000000000000000000000000000000000000000815260040161007b91906101a5565b60405180910390fd5b610093816100a060201b60201c565b50600180819055506101c0565b60008060009054906101000a900473ffffffffffffffffffffffffffffffffffffffff169050816000806101000a81548173ffffffffffffffffffffffffffffffffffffffff021916908373ffffffffffffffffffffffffffffffffffffffff1602179055508173ffffffffffffffffffffffffffffffffffffffff168173ffffffffffffffffffffffffffffffffffffffff167f8be0079c531659141344cd1fd0a4f28419497f9722a3daafe3b4186f6b6457e060405160405180910390a35050565b600073ffffffffffffffffffffffffffffffffffffffff82169050919050565b600061018f82610164565b9050919050565b61019f81610184565b82525050565b60006020820190506101ba6000830184610196565b92915050565b610b11806101cf6000396000f3fe6080604052600436106100705760003560e01c80638da5cb5b1161004e5780638da5cb5b146100de578063d0e30db014610109578063e8cc00ad14610113578063f2fde38b1461012a57610070565b80632e1a7d4d14610075578063395d7deb1461009e578063715018a6146100c7575b600080fd5b34801561008157600080fd5b5061009c60048036038101906100979190610778565b610153565b005b3480156100aa57600080fd5b506100c560048036038101906100c09190610803565b610285565b005b3480156100d357600080fd5b506100dc610381565b005b3480156100ea57600080fd5b506100f3610395565b6040516101009190610851565b60405180910390f35b6101116103be565b005b34801561011f57600080fd5b50610128610464565b005b34801561013657600080fd5b50610151600480360381019061014c9190610898565b610515565b005b61015b61059b565b80600260003373ffffffffffffffffffffffffffffffffffffffff1673ffffffffffffffffffffffffffffffffffffffff1681526020019081526020016000205410156101dd576040517f08c379a00000000000000000000000000000000000000000000000000000000081526004016101d490610922565b60405180910390fd5b80600260003373ffffffffffffffffffffffffffffffffffffffff1673ffffffffffffffffffffffffffffffffffffffff168152602001908152602001600020600082825461022c9190610971565b925050819055503373ffffffffffffffffffffffffffffffffffffffff166108fc829081150290604051600060405180830381858888f19350505050158015610279573d6000803e3d6000fd5b506102826105e1565b50565b61028d6105ea565b80600073ffffffffffffffffffffffffffffffffffffffff168173ffffffffffffffffffffffffffffffffffffffff16036102fd576040517f08c379a00000000000000000000000000000000000000000000000000000000081526004016102f4906109f1565b60405180910390fd5b61030561059b565b600061030f610395565b905061031a83610515565b8273ffffffffffffffffffffffffffffffffffffffff168173ffffffffffffffffffffffffffffffffffffffff167fb964d42a3eda429108057f3947984d4f74db82cd0e711bc2a46066979ce9d6a060405160405180910390a35061037d6105e1565b5050565b6103896105ea565b6103936000610671565b565b60008060009054906101000a900473ffffffffffffffffffffffffffffffffffffffff16905090565b34600260003373ffffffffffffffffffffffffffffffffffffffff1673ffffffffffffffffffffffffffffffffffffffff168152602001908152602001600020600082825461040d9190610a11565b925050819055503373ffffffffffffffffffffffffffffffffffffffff167f939e51ac2fd009b158d6344f7e68a83d8d18d9b0cc88cf514aac6aaa9cad2a183460405161045a9190610a54565b60405180910390a2565b61046c6105ea565b600047116104af576040517f08c379a00000000000000000000000000000000000000000000000000000000081526004016104a690610abb565b60405180910390fd5b6104b761059b565b60004790506104c4610395565b73ffffffffffffffffffffffffffffffffffffffff166108fc829081150290604051600060405180830381858888f19350505050158015610509573d6000803e3d6000fd5b50506105136105e1565b565b61051d6105ea565b600073ffffffffffffffffffffffffffffffffffffffff168173ffffffffffffffffffffffffffffffffffffffff160361058f5760006040517f1e4fbdf70000000000000000000000000000000000000000000000000000000081526004016105869190610851565b60405180910390fd5b61059881610671565b50565b6002600154036105d7576040517f3ee5aeb500000000000000000000000000000000000000000000000000000000815260040160405180910390fd5b6002600181905550565b60018081905550565b6105f2610735565b73ffffffffffffffffffffffffffffffffffffffff16610610610395565b73ffffffffffffffffffffffffffffffffffffffff161461066f57610633610735565b6040517f118cdaa70000000000000000000000000000000000000000000000000000000081526004016106669190610851565b60405180910390fd5b565b60008060009054906101000a900473ffffffffffffffffffffffffffffffffffffffff169050816000806101000a81548173ffffffffffffffffffffffffffffffffffffffff021916908373ffffffffffffffffffffffffffffffffffffffff1602179055508173ffffffffffffffffffffffffffffffffffffffff168173ffffffffffffffffffffffffffffffffffffffff167f8be0079c531659141344cd1fd0a4f28419497f9722a3daafe3b4186f6b6457e060405160405180910390a35050565b600033905090565b600080fd5b6000819050919050565b61075581610742565b811461076057600080fd5b50565b6000813590506107728161074c565b92915050565b60006020828403121561078e5761078d61073d565b5b600061079c84828501610763565b91505092915050565b600073ffffffffffffffffffffffffffffffffffffffff82169050919050565b60006107d0826107a5565b9050919050565b6107e0816107c5565b81146107eb57600080fd5b50565b6000813590506107fd816107d7565b92915050565b6000602082840312156108195761081861073d565b5b6000610827848285016107ee565b91505092915050565b600061083b826107a5565b9050919050565b61084b81610830565b82525050565b60006020820190506108666000830184610842565b92915050565b61087581610830565b811461088057600080fd5b50565b6000813590506108928161086c565b92915050565b6000602082840312156108ae576108ad61073d565b5b60006108bc84828501610883565b91505092915050565b600082825260208201905092915050565b7f496e73756666696369656e742062616c616e6365000000000000000000000000600082015250565b600061090c6014836108c5565b9150610917826108d6565b602082019050919050565b6000602082019050818103600083015261093b816108ff565b9050919050565b7f4e487b7100000000000000000000000000000000000000000000000000000000600052601160045260246000fd5b600061097c82610742565b915061098783610742565b925082820390508181111561099f5761099e610942565b5b92915050565b7f496e76616c6964206e6577206f776e6572206164647265737300000000000000600082015250565b60006109db6019836108c5565b91506109e6826109a5565b602082019050919050565b60006020820190508181036000830152610a0a816109ce565b9050919050565b6000610a1c82610742565b9150610a2783610742565b9250828201905080821115610a3f57610a3e610942565b5b92915050565b610a4e81610742565b82525050565b6000602082019050610a696000830184610a45565b92915050565b7f436f6e74726163742062616c616e6365206973207a65726f0000000000000000600082015250565b6000610aa56018836108c5565b9150610ab082610a6f565b602082019050919050565b60006020820190508181036000830152610ad481610a98565b905091905056fea2646970667358221220a9bacda53c52f1e9a8aee3dec7055eb110de19e38d0cc9940eb60f90e24d11a564736f6c63430008130033",
  "immutableReferences": {},
  "source": "// SPDX-License-Identifier: UNLICENSED\r\npragma solidity 0.8.19;\r\nimport \"@openzeppelin/contracts/access/Ownable.sol\";\r\nimport \"@openzeppelin/contracts/utils/ReentrancyGuard.sol\";\r\ncontract WeakAccessControlSecure is Ownable, ReentrancyGuard {\r\n    mapping(address => uint256) private amount;\r\n    event EtherDeposited(address indexed depositor, uint256 amount);\r\n    event OwnerSwitched(address indexed previousOwner, address indexed newOwner);\r\n    constructor() Ownable(msg.sender) {}\r\n    modifier onlyIfBalanceGreaterThanZero() {\r\n        require(address(this).balance > 0, \"Contract balance is zero\");\r\n        _;\r\n    }\r\n    modifier validNewOwner(address _newOwner) {\r\n        require(_newOwner != address(0), \"Invalid new owner address\");\r\n        _;\r\n    }\r\n    function deposit() public payable {\r\n        amount[msg.sender] += msg.value;\r\n        emit EtherDeposited(msg.sender, msg.value);\r\n    }\r\n    function withdraw(uint256 sum) public nonReentrant {\r\n        require(amount[msg.sender] >= sum, \"Insufficient balance\");\r\n        amount[msg.sender] -= sum;\r\n        payable(msg.sender).transfer(sum);\r\n    }\r\n    function switchOwner(address payable _newOwner) public onlyOwner validNewOwner(_newOwner) nonReentrant {\r\n        address previousOwner = owner();\r\n        transferOwnership(_newOwner);\r\n        emit OwnerSwitched(previousOwner, _newOwner);\r\n    }\r\n    function withdrawOwner() public onlyOwner onlyIfBalanceGreaterThanZero nonReentrant {\r\n        uint256 balance = address(this).balance;\r\n        payable(owner()).transfer(balance);\r\n    }\r\n}\r\n",
  "sourcePath": "C:\\Users\\joshu\\OneDrive\\Desktop\\Individual Project\\Smart Contracts\\contracts\\WeakAccessSecure.sol",
  "compiler": {
    "name": "solc",
    "version": "0.8.19+commit.7dd6d404.Emscripten.clang"
  },
  "schemaVersion": "3.4.16",
  "updatedAt": "2024-04-08T10:13:34.607Z",
  "networkType": "ethereum",
  "devdoc": {
    "errors": {
      "OwnableInvalidOwner(address)": [
        {
          "details": "The owner is not a valid owner account. (eg. `address(0)`)"
        }
      ],
      "OwnableUnauthorizedAccount(address)": [
        {
          "details": "The caller account is not authorized to perform an operation."
        }
      ],
      "ReentrancyGuardReentrantCall()": [
        {
          "details": "Unauthorized reentrant call."
        }
      ]
    },
    "kind": "dev",
    "methods": {
      "owner()": {
        "details": "Returns the address of the current owner."
      },
      "renounceOwnership()": {
        "details": "Leaves the contract without owner. It will not be possible to call `onlyOwner` functions. Can only be called by the current owner. NOTE: Renouncing ownership will leave the contract without an owner, thereby disabling any functionality that is only available to the owner."
      },
      "transferOwnership(address)": {
        "details": "Transfers ownership of the contract to a new account (`newOwner`). Can only be called by the current owner."
      }
    },
    "version": 1
  },
  "userdoc": {
    "kind": "user",
    "methods": {},
    "version": 1
  }
}