{
  "contractName": "WeakAccessControl",
  "abi": [
    {
      "inputs": [],
      "stateMutability": "nonpayable",
      "type": "constructor"
    },
    {
      "inputs": [
        {
          "internalType": "address",
          "name": "",
          "type": "address"
        }
      ],
      "name": "amount",
      "outputs": [
        {
          "internalType": "uint256",
          "name": "",
          "type": "uint256"
        }
      ],
      "stateMutability": "view",
      "type": "function"
    },
    {
      "inputs": [],
      "name": "deposit",
      "outputs": [],
      "stateMutability": "payable",
      "type": "function"
    },
    {
      "inputs": [
        {
          "internalType": "uint256",
          "name": "sum",
          "type": "uint256"
        }
      ],
      "name": "withdraw",
      "outputs": [],
      "stateMutability": "nonpayable",
      "type": "function"
    },
    {
      "inputs": [
        {
          "internalType": "address payable",
          "name": "owner2",
          "type": "address"
        }
      ],
      "name": "switchOwner",
      "outputs": [],
      "stateMutability": "nonpayable",
      "type": "function"
    },
    {
      "inputs": [],
      "name": "withdrawOwner",
      "outputs": [],
      "stateMutability": "nonpayable",
      "type": "function"
    }
  ],
  "bytecode": "0x608060405234801561001057600080fd5b50336000806101000a81548173ffffffffffffffffffffffffffffffffffffffff021916908373ffffffffffffffffffffffffffffffffffffffff160217905550610872806100606000396000f3fe60806040526004361061004a5760003560e01c80632e1a7d4d1461004f578063395d7deb14610078578063b9f0bf66146100a1578063d0e30db0146100de578063e8cc00ad146100e8575b600080fd5b34801561005b57600080fd5b50610076600480360381019061007191906104dd565b6100ff565b005b34801561008457600080fd5b5061009f600480360381019061009a9190610568565b610221565b005b3480156100ad57600080fd5b506100c860048036038101906100c391906105d3565b6102f2565b6040516100d5919061060f565b60405180910390f35b6100e661030a565b005b3480156100f457600080fd5b506100fd610362565b005b80600160003373ffffffffffffffffffffffffffffffffffffffff1673ffffffffffffffffffffffffffffffffffffffff168152602001908152602001600020541015610181576040517f08c379a000000000000000000000000000000000000000000000000000000000815260040161017890610687565b60405180910390fd5b80600160003373ffffffffffffffffffffffffffffffffffffffff1673ffffffffffffffffffffffffffffffffffffffff16815260200190815260200160002060008282546101d091906106d6565b925050819055503373ffffffffffffffffffffffffffffffffffffffff166108fc829081150290604051600060405180830381858888f1935050505015801561021d573d6000803e3d6000fd5b5050565b60008054906101000a900473ffffffffffffffffffffffffffffffffffffffff1673ffffffffffffffffffffffffffffffffffffffff163373ffffffffffffffffffffffffffffffffffffffff16146102af576040517f08c379a00000000000000000000000000000000000000000000000000000000081526004016102a69061077c565b60405180910390fd5b806000806101000a81548173ffffffffffffffffffffffffffffffffffffffff021916908373ffffffffffffffffffffffffffffffffffffffff16021790555050565b60016020528060005260406000206000915090505481565b34600160003373ffffffffffffffffffffffffffffffffffffffff1673ffffffffffffffffffffffffffffffffffffffff1681526020019081526020016000206000828254610359919061079c565b92505081905550565b60008054906101000a900473ffffffffffffffffffffffffffffffffffffffff1673ffffffffffffffffffffffffffffffffffffffff163373ffffffffffffffffffffffffffffffffffffffff16146103f0576040517f08c379a00000000000000000000000000000000000000000000000000000000081526004016103e79061077c565b60405180910390fd5b600047905060008111610438576040517f08c379a000000000000000000000000000000000000000000000000000000000815260040161042f9061081c565b60405180910390fd5b60008054906101000a900473ffffffffffffffffffffffffffffffffffffffff1673ffffffffffffffffffffffffffffffffffffffff166108fc829081150290604051600060405180830381858888f1935050505015801561049e573d6000803e3d6000fd5b5050565b600080fd5b6000819050919050565b6104ba816104a7565b81146104c557600080fd5b50565b6000813590506104d7816104b1565b92915050565b6000602082840312156104f3576104f26104a2565b5b6000610501848285016104c8565b91505092915050565b600073ffffffffffffffffffffffffffffffffffffffff82169050919050565b60006105358261050a565b9050919050565b6105458161052a565b811461055057600080fd5b50565b6000813590506105628161053c565b92915050565b60006020828403121561057e5761057d6104a2565b5b600061058c84828501610553565b91505092915050565b60006105a08261050a565b9050919050565b6105b081610595565b81146105bb57600080fd5b50565b6000813590506105cd816105a7565b92915050565b6000602082840312156105e9576105e86104a2565b5b60006105f7848285016105be565b91505092915050565b610609816104a7565b82525050565b60006020820190506106246000830184610600565b92915050565b600082825260208201905092915050565b7f62616c616e636520746f6f206c6f770000000000000000000000000000000000600082015250565b6000610671600f8361062a565b915061067c8261063b565b602082019050919050565b600060208201905081810360008301526106a081610664565b9050919050565b7f4e487b7100000000000000000000000000000000000000000000000000000000600052601160045260246000fd5b60006106e1826104a7565b91506106ec836104a7565b9250828203905081811115610704576107036106a7565b5b92915050565b7f66756e6374696f6e206f6e6c7920617661696c61626c6520746f20637572726560008201527f6e74206f776e6572000000000000000000000000000000000000000000000000602082015250565b600061076660288361062a565b91506107718261070a565b604082019050919050565b6000602082019050818103600083015261079581610759565b9050919050565b60006107a7826104a7565b91506107b2836104a7565b92508282019050808211156107ca576107c96106a7565b5b92915050565b7f3020455448000000000000000000000000000000000000000000000000000000600082015250565b600061080660058361062a565b9150610811826107d0565b602082019050919050565b60006020820190508181036000830152610835816107f9565b905091905056fea264697066735822122087adc66d53e06739758fd886992521dbaa3a3ac406e22324fabe2044c718d02964736f6c63430008130033",
  "immutableReferences": {},
  "source": "// SPDX-License-Identifier: UNLICENSED\r\n\r\npragma solidity 0.8.19;\r\n\r\ncontract WeakAccessControl {\r\n\r\n    address owner; //storing owner address\r\n    mapping(address => uint256) public amount; //store balances or all users\r\n    constructor() {\r\n        owner = msg.sender; //owner initialisation \r\n    }\r\n\r\n    function deposit() public payable {\r\n        amount[msg.sender] += msg.value; //Balance increased by the amount deposited\r\n    }\r\n\r\n    function withdraw(uint256 sum) public {\r\n        require(amount[msg.sender] >= sum, \"balance too low\"); //checks for balance too low against requirements\r\n        amount[msg.sender] -= sum; //decrease balance when withdrawn\r\n        payable(msg.sender).transfer(sum); //transfer to sender\r\n    }\r\n\r\n    function switchOwner(address payable owner2) public {\r\n        require(msg.sender == owner, \"function only available to current owner\"); //ensures sender is owner\r\n        owner = owner2; //transferring to new owner\r\n    }\r\n\r\n    function withdrawOwner() public {\r\n        require(msg.sender == owner, \"function only available to current owner\"); //must be owner\r\n        uint256 balance = address(this).balance; //balance checking\r\n        require(balance > 0, \"0 ETH\"); //more than 0\r\n        payable(owner).transfer(balance); //transfer the sum to new/ current owner\r\n    }\r\n}",
  "sourcePath": "C:\\Users\\joshu\\OneDrive\\Desktop\\Individual Project\\Smart Contracts\\contracts\\WeakAccess.sol",
  "compiler": {
    "name": "solc",
    "version": "0.8.19+commit.7dd6d404.Emscripten.clang"
  },
  "schemaVersion": "3.4.16",
  "updatedAt": "2024-04-22T17:37:36.549Z",
  "devdoc": {
    "kind": "dev",
    "methods": {},
    "version": 1
  },
  "userdoc": {
    "kind": "user",
    "methods": {},
    "version": 1
  }
}